{
	"contracts/perpustakaan.sol": {
		"Perpustakaan": {
			"abi": [
				{
					"inputs": [],
					"stateMutability": "nonpayable",
					"type": "constructor"
				},
				{
					"anonymous": false,
					"inputs": [
						{
							"indexed": true,
							"internalType": "uint256",
							"name": "ISBN",
							"type": "uint256"
						}
					],
					"name": "BukuDihapus",
					"type": "event"
				},
				{
					"anonymous": false,
					"inputs": [
						{
							"indexed": true,
							"internalType": "uint256",
							"name": "ISBN",
							"type": "uint256"
						},
						{
							"indexed": false,
							"internalType": "string",
							"name": "judul",
							"type": "string"
						},
						{
							"indexed": false,
							"internalType": "uint256",
							"name": "tahun",
							"type": "uint256"
						},
						{
							"indexed": false,
							"internalType": "string",
							"name": "penulis",
							"type": "string"
						}
					],
					"name": "BukuDiperbarui",
					"type": "event"
				},
				{
					"anonymous": false,
					"inputs": [
						{
							"indexed": true,
							"internalType": "uint256",
							"name": "ISBN",
							"type": "uint256"
						},
						{
							"indexed": false,
							"internalType": "string",
							"name": "judul",
							"type": "string"
						},
						{
							"indexed": false,
							"internalType": "uint256",
							"name": "tahun",
							"type": "uint256"
						},
						{
							"indexed": false,
							"internalType": "string",
							"name": "penulis",
							"type": "string"
						}
					],
					"name": "BukuDitambahkan",
					"type": "event"
				},
				{
					"inputs": [
						{
							"internalType": "uint256",
							"name": "_ISBN",
							"type": "uint256"
						},
						{
							"internalType": "address",
							"name": "pemanggil",
							"type": "address"
						}
					],
					"name": "DapatkanBuku",
					"outputs": [
						{
							"internalType": "uint256",
							"name": "",
							"type": "uint256"
						},
						{
							"internalType": "string",
							"name": "",
							"type": "string"
						},
						{
							"internalType": "uint256",
							"name": "",
							"type": "uint256"
						},
						{
							"internalType": "string",
							"name": "",
							"type": "string"
						}
					],
					"stateMutability": "view",
					"type": "function"
				},
				{
					"inputs": [
						{
							"internalType": "uint256",
							"name": "_ISBN",
							"type": "uint256"
						}
					],
					"name": "HapusBuku",
					"outputs": [],
					"stateMutability": "nonpayable",
					"type": "function"
				},
				{
					"inputs": [
						{
							"internalType": "uint256",
							"name": "_ISBN",
							"type": "uint256"
						},
						{
							"internalType": "string",
							"name": "_judul",
							"type": "string"
						},
						{
							"internalType": "uint256",
							"name": "_tahun",
							"type": "uint256"
						},
						{
							"internalType": "string",
							"name": "_penulis",
							"type": "string"
						}
					],
					"name": "PerbaruiBuku",
					"outputs": [],
					"stateMutability": "nonpayable",
					"type": "function"
				},
				{
					"inputs": [
						{
							"internalType": "uint256",
							"name": "_ISBN",
							"type": "uint256"
						},
						{
							"internalType": "string",
							"name": "_judul",
							"type": "string"
						},
						{
							"internalType": "uint256",
							"name": "_tahun",
							"type": "uint256"
						},
						{
							"internalType": "string",
							"name": "_penulis",
							"type": "string"
						}
					],
					"name": "TambahBuku",
					"outputs": [],
					"stateMutability": "nonpayable",
					"type": "function"
				},
				{
					"inputs": [],
					"name": "admin",
					"outputs": [
						{
							"internalType": "address",
							"name": "",
							"type": "address"
						}
					],
					"stateMutability": "view",
					"type": "function"
				},
				{
					"inputs": [
						{
							"internalType": "uint256",
							"name": "",
							"type": "uint256"
						}
					],
					"name": "buku",
					"outputs": [
						{
							"internalType": "uint256",
							"name": "ISBN",
							"type": "uint256"
						},
						{
							"internalType": "string",
							"name": "judul",
							"type": "string"
						},
						{
							"internalType": "uint256",
							"name": "tahun",
							"type": "uint256"
						},
						{
							"internalType": "string",
							"name": "penulis",
							"type": "string"
						}
					],
					"stateMutability": "view",
					"type": "function"
				},
				{
					"inputs": [
						{
							"internalType": "address",
							"name": "_alamat",
							"type": "address"
						}
					],
					"name": "isAdmin",
					"outputs": [
						{
							"internalType": "bool",
							"name": "",
							"type": "bool"
						}
					],
					"stateMutability": "view",
					"type": "function"
				},
				{
					"inputs": [],
					"name": "jumlahBuku",
					"outputs": [
						{
							"internalType": "uint256",
							"name": "",
							"type": "uint256"
						}
					],
					"stateMutability": "view",
					"type": "function"
				},
				{
					"inputs": [],
					"name": "pemilik",
					"outputs": [
						{
							"internalType": "address",
							"name": "",
							"type": "address"
						}
					],
					"stateMutability": "view",
					"type": "function"
				}
			],
			"devdoc": {
				"kind": "dev",
				"methods": {},
				"version": 1
			},
			"evm": {
				"assembly": "    /* \"contracts/perpustakaan.sol\":61:2491  contract Perpustakaan {... */\n  mstore(0x40, 0x80)\n    /* \"contracts/perpustakaan.sol\":346:428  constructor() {... */\n  callvalue\n  dup1\n  iszero\n  tag_1\n  jumpi\n  0x00\n  dup1\n  revert\ntag_1:\n  pop\n    /* \"contracts/perpustakaan.sol\":381:391  msg.sender */\n  caller\n    /* \"contracts/perpustakaan.sol\":371:378  pemilik */\n  0x00\n  dup1\n    /* \"contracts/perpustakaan.sol\":371:391  pemilik = msg.sender */\n  0x0100\n  exp\n  dup2\n  sload\n  dup2\n  0xffffffffffffffffffffffffffffffffffffffff\n  mul\n  not\n  and\n  swap1\n  dup4\n  0xffffffffffffffffffffffffffffffffffffffff\n  and\n  mul\n  or\n  swap1\n  sstore\n  pop\n    /* \"contracts/perpustakaan.sol\":410:420  msg.sender */\n  caller\n    /* \"contracts/perpustakaan.sol\":402:407  admin */\n  0x01\n  0x00\n    /* \"contracts/perpustakaan.sol\":402:420  admin = msg.sender */\n  0x0100\n  exp\n  dup2\n  sload\n  dup2\n  0xffffffffffffffffffffffffffffffffffffffff\n  mul\n  not\n  and\n  swap1\n  dup4\n  0xffffffffffffffffffffffffffffffffffffffff\n  and\n  mul\n  or\n  swap1\n  sstore\n  pop\n    /* \"contracts/perpustakaan.sol\":61:2491  contract Perpustakaan {... */\n  dataSize(sub_0)\n  dup1\n  dataOffset(sub_0)\n  0x00\n  codecopy\n  0x00\n  return\nstop\n\nsub_0: assembly {\n        /* \"contracts/perpustakaan.sol\":61:2491  contract Perpustakaan {... */\n      mstore(0x40, 0x80)\n      callvalue\n      dup1\n      iszero\n      tag_1\n      jumpi\n      0x00\n      dup1\n      revert\n    tag_1:\n      pop\n      jumpi(tag_2, lt(calldatasize, 0x04))\n      shr(0xe0, calldataload(0x00))\n      dup1\n      0x79302e75\n      gt\n      tag_12\n      jumpi\n      dup1\n      0x79302e75\n      eq\n      tag_7\n      jumpi\n      dup1\n      0x7d1a1111\n      eq\n      tag_8\n      jumpi\n      dup1\n      0xc6f25071\n      eq\n      tag_9\n      jumpi\n      dup1\n      0xe4854e65\n      eq\n      tag_10\n      jumpi\n      dup1\n      0xf851a440\n      eq\n      tag_11\n      jumpi\n      jump(tag_2)\n    tag_12:\n      dup1\n      0x24d7806c\n      eq\n      tag_3\n      jumpi\n      dup1\n      0x4b9d4169\n      eq\n      tag_4\n      jumpi\n      dup1\n      0x4c30b541\n      eq\n      tag_5\n      jumpi\n      dup1\n      0x6ebcd2c2\n      eq\n      tag_6\n      jumpi\n    tag_2:\n      0x00\n      dup1\n      revert\n        /* \"contracts/perpustakaan.sol\":2383:2488  function isAdmin(address _alamat) public view returns (bool) {... */\n    tag_3:\n      tag_13\n      0x04\n      dup1\n      calldatasize\n      sub\n      dup2\n      add\n      swap1\n      tag_14\n      swap2\n      swap1\n      tag_15\n      jump\t// in\n    tag_14:\n      tag_16\n      jump\t// in\n    tag_13:\n      mload(0x40)\n      tag_17\n      swap2\n      swap1\n      tag_18\n      jump\t// in\n    tag_17:\n      mload(0x40)\n      dup1\n      swap2\n      sub\n      swap1\n      return\n        /* \"contracts/perpustakaan.sol\":955:1308  function TambahBuku(uint256 _ISBN, string memory _judul, uint256 _tahun, string memory _penulis) public hanyaAdmin {... */\n    tag_4:\n      tag_19\n      0x04\n      dup1\n      calldatasize\n      sub\n      dup2\n      add\n      swap1\n      tag_20\n      swap2\n      swap1\n      tag_21\n      jump\t// in\n    tag_20:\n      tag_22\n      jump\t// in\n    tag_19:\n      stop\n        /* \"contracts/perpustakaan.sol\":269:305  mapping(uint256 => Buku) public buku */\n    tag_5:\n      tag_23\n      0x04\n      dup1\n      calldatasize\n      sub\n      dup2\n      add\n      swap1\n      tag_24\n      swap2\n      swap1\n      tag_25\n      jump\t// in\n    tag_24:\n      tag_26\n      jump\t// in\n    tag_23:\n      mload(0x40)\n      tag_27\n      swap5\n      swap4\n      swap3\n      swap2\n      swap1\n      tag_28\n      jump\t// in\n    tag_27:\n      mload(0x40)\n      dup1\n      swap2\n      sub\n      swap1\n      return\n        /* \"contracts/perpustakaan.sol\":90:112  address public pemilik */\n    tag_6:\n      tag_29\n      tag_30\n      jump\t// in\n    tag_29:\n      mload(0x40)\n      tag_31\n      swap2\n      swap1\n      tag_32\n      jump\t// in\n    tag_31:\n      mload(0x40)\n      dup1\n      swap2\n      sub\n      swap1\n      return\n        /* \"contracts/perpustakaan.sol\":1661:1894  function HapusBuku(uint256 _ISBN) public hanyaAdmin {... */\n    tag_7:\n      tag_33\n      0x04\n      dup1\n      calldatasize\n      sub\n      dup2\n      add\n      swap1\n      tag_34\n      swap2\n      swap1\n      tag_25\n      jump\t// in\n    tag_34:\n      tag_35\n      jump\t// in\n    tag_33:\n      stop\n        /* \"contracts/perpustakaan.sol\":312:337  uint256 public jumlahBuku */\n    tag_8:\n      tag_36\n      tag_37\n      jump\t// in\n    tag_36:\n      mload(0x40)\n      tag_38\n      swap2\n      swap1\n      tag_39\n      jump\t// in\n    tag_38:\n      mload(0x40)\n      dup1\n      swap2\n      sub\n      swap1\n      return\n        /* \"contracts/perpustakaan.sol\":1316:1653  function PerbaruiBuku(uint256 _ISBN, string memory _judul, uint256 _tahun, string memory _penulis) public hanyaAdmin {... */\n    tag_9:\n      tag_40\n      0x04\n      dup1\n      calldatasize\n      sub\n      dup2\n      add\n      swap1\n      tag_41\n      swap2\n      swap1\n      tag_21\n      jump\t// in\n    tag_41:\n      tag_42\n      jump\t// in\n    tag_40:\n      stop\n        /* \"contracts/perpustakaan.sol\":1902:2371  function DapatkanBuku(uint256 _ISBN, address pemanggil) public view returns (uint256, string memory, uint256, string memory) {... */\n    tag_10:\n      tag_43\n      0x04\n      dup1\n      calldatasize\n      sub\n      dup2\n      add\n      swap1\n      tag_44\n      swap2\n      swap1\n      tag_45\n      jump\t// in\n    tag_44:\n      tag_46\n      jump\t// in\n    tag_43:\n      mload(0x40)\n      tag_47\n      swap5\n      swap4\n      swap3\n      swap2\n      swap1\n      tag_28\n      jump\t// in\n    tag_47:\n      mload(0x40)\n      dup1\n      swap2\n      sub\n      swap1\n      return\n        /* \"contracts/perpustakaan.sol\":119:139  address public admin */\n    tag_11:\n      tag_48\n      tag_49\n      jump\t// in\n    tag_48:\n      mload(0x40)\n      tag_50\n      swap2\n      swap1\n      tag_32\n      jump\t// in\n    tag_50:\n      mload(0x40)\n      dup1\n      swap2\n      sub\n      swap1\n      return\n        /* \"contracts/perpustakaan.sol\":2383:2488  function isAdmin(address _alamat) public view returns (bool) {... */\n    tag_16:\n        /* \"contracts/perpustakaan.sol\":2438:2442  bool */\n      0x00\n        /* \"contracts/perpustakaan.sol\":2474:2479  admin */\n      0x01\n      0x00\n      swap1\n      sload\n      swap1\n      0x0100\n      exp\n      swap1\n      div\n      0xffffffffffffffffffffffffffffffffffffffff\n      and\n        /* \"contracts/perpustakaan.sol\":2463:2479  _alamat == admin */\n      0xffffffffffffffffffffffffffffffffffffffff\n      and\n        /* \"contracts/perpustakaan.sol\":2463:2470  _alamat */\n      dup3\n        /* \"contracts/perpustakaan.sol\":2463:2479  _alamat == admin */\n      0xffffffffffffffffffffffffffffffffffffffff\n      and\n      eq\n        /* \"contracts/perpustakaan.sol\":2455:2480  return (_alamat == admin) */\n      swap1\n      pop\n        /* \"contracts/perpustakaan.sol\":2383:2488  function isAdmin(address _alamat) public view returns (bool) {... */\n      swap2\n      swap1\n      pop\n      jump\t// out\n        /* \"contracts/perpustakaan.sol\":955:1308  function TambahBuku(uint256 _ISBN, string memory _judul, uint256 _tahun, string memory _penulis) public hanyaAdmin {... */\n    tag_22:\n        /* \"contracts/perpustakaan.sol\":491:496  admin */\n      0x01\n      0x00\n      swap1\n      sload\n      swap1\n      0x0100\n      exp\n      swap1\n      div\n      0xffffffffffffffffffffffffffffffffffffffff\n      and\n        /* \"contracts/perpustakaan.sol\":477:496  msg.sender == admin */\n      0xffffffffffffffffffffffffffffffffffffffff\n      and\n        /* \"contracts/perpustakaan.sol\":477:487  msg.sender */\n      caller\n        /* \"contracts/perpustakaan.sol\":477:496  msg.sender == admin */\n      0xffffffffffffffffffffffffffffffffffffffff\n      and\n      eq\n        /* \"contracts/perpustakaan.sol\":469:546  require(msg.sender == admin, \"Hanya admin yang dapat melakukan tindakan ini\") */\n      tag_53\n      jumpi\n      mload(0x40)\n      0x08c379a000000000000000000000000000000000000000000000000000000000\n      dup2\n      mstore\n      0x04\n      add\n      tag_54\n      swap1\n      tag_55\n      jump\t// in\n    tag_54:\n      mload(0x40)\n      dup1\n      swap2\n      sub\n      swap1\n      revert\n    tag_53:\n        /* \"contracts/perpustakaan.sol\":1109:1110  0 */\n      0x00\n        /* \"contracts/perpustakaan.sol\":1089:1093  buku */\n      0x02\n        /* \"contracts/perpustakaan.sol\":1089:1100  buku[_ISBN] */\n      0x00\n        /* \"contracts/perpustakaan.sol\":1094:1099  _ISBN */\n      dup7\n        /* \"contracts/perpustakaan.sol\":1089:1100  buku[_ISBN] */\n      dup2\n      mstore\n      0x20\n      add\n      swap1\n      dup2\n      mstore\n      0x20\n      add\n      0x00\n      keccak256\n        /* \"contracts/perpustakaan.sol\":1089:1105  buku[_ISBN].ISBN */\n      0x00\n      add\n      sload\n        /* \"contracts/perpustakaan.sol\":1089:1110  buku[_ISBN].ISBN == 0 */\n      eq\n        /* \"contracts/perpustakaan.sol\":1081:1151  require(buku[_ISBN].ISBN == 0, \"Buku dengan ISBN yang sama sudah ada\") */\n      tag_57\n      jumpi\n      mload(0x40)\n      0x08c379a000000000000000000000000000000000000000000000000000000000\n      dup2\n      mstore\n      0x04\n      add\n      tag_58\n      swap1\n      tag_59\n      jump\t// in\n    tag_58:\n      mload(0x40)\n      dup1\n      swap2\n      sub\n      swap1\n      revert\n    tag_57:\n        /* \"contracts/perpustakaan.sol\":1176:1213  Buku(_ISBN, _judul, _tahun, _penulis) */\n      mload(0x40)\n      dup1\n      0x80\n      add\n      0x40\n      mstore\n      dup1\n        /* \"contracts/perpustakaan.sol\":1181:1186  _ISBN */\n      dup6\n        /* \"contracts/perpustakaan.sol\":1176:1213  Buku(_ISBN, _judul, _tahun, _penulis) */\n      dup2\n      mstore\n      0x20\n      add\n        /* \"contracts/perpustakaan.sol\":1188:1194  _judul */\n      dup5\n        /* \"contracts/perpustakaan.sol\":1176:1213  Buku(_ISBN, _judul, _tahun, _penulis) */\n      dup2\n      mstore\n      0x20\n      add\n        /* \"contracts/perpustakaan.sol\":1196:1202  _tahun */\n      dup4\n        /* \"contracts/perpustakaan.sol\":1176:1213  Buku(_ISBN, _judul, _tahun, _penulis) */\n      dup2\n      mstore\n      0x20\n      add\n        /* \"contracts/perpustakaan.sol\":1204:1212  _penulis */\n      dup3\n        /* \"contracts/perpustakaan.sol\":1176:1213  Buku(_ISBN, _judul, _tahun, _penulis) */\n      dup2\n      mstore\n      pop\n        /* \"contracts/perpustakaan.sol\":1162:1166  buku */\n      0x02\n        /* \"contracts/perpustakaan.sol\":1162:1173  buku[_ISBN] */\n      0x00\n        /* \"contracts/perpustakaan.sol\":1167:1172  _ISBN */\n      dup7\n        /* \"contracts/perpustakaan.sol\":1162:1173  buku[_ISBN] */\n      dup2\n      mstore\n      0x20\n      add\n      swap1\n      dup2\n      mstore\n      0x20\n      add\n      0x00\n      keccak256\n        /* \"contracts/perpustakaan.sol\":1162:1213  buku[_ISBN] = Buku(_ISBN, _judul, _tahun, _penulis) */\n      0x00\n      dup3\n      add\n      mload\n      dup2\n      0x00\n      add\n      sstore\n      0x20\n      dup3\n      add\n      mload\n      dup2\n      0x01\n      add\n      swap1\n      dup2\n      tag_60\n      swap2\n      swap1\n      tag_61\n      jump\t// in\n    tag_60:\n      pop\n      0x40\n      dup3\n      add\n      mload\n      dup2\n      0x02\n      add\n      sstore\n      0x60\n      dup3\n      add\n      mload\n      dup2\n      0x03\n      add\n      swap1\n      dup2\n      tag_62\n      swap2\n      swap1\n      tag_61\n      jump\t// in\n    tag_62:\n      pop\n      swap1\n      pop\n      pop\n        /* \"contracts/perpustakaan.sol\":1224:1234  jumlahBuku */\n      0x03\n      0x00\n        /* \"contracts/perpustakaan.sol\":1224:1236  jumlahBuku++ */\n      dup2\n      sload\n      dup1\n      swap3\n      swap2\n      swap1\n      tag_63\n      swap1\n      tag_64\n      jump\t// in\n    tag_63:\n      swap2\n      swap1\n      pop\n      sstore\n      pop\n        /* \"contracts/perpustakaan.sol\":1268:1273  _ISBN */\n      dup4\n        /* \"contracts/perpustakaan.sol\":1252:1300  BukuDitambahkan(_ISBN, _judul, _tahun, _penulis) */\n      0xd0d4cd8737018e52a6388a5921967e80bec857befd9ca6c10fa377129e0cba4b\n        /* \"contracts/perpustakaan.sol\":1275:1281  _judul */\n      dup5\n        /* \"contracts/perpustakaan.sol\":1283:1289  _tahun */\n      dup5\n        /* \"contracts/perpustakaan.sol\":1291:1299  _penulis */\n      dup5\n        /* \"contracts/perpustakaan.sol\":1252:1300  BukuDitambahkan(_ISBN, _judul, _tahun, _penulis) */\n      mload(0x40)\n      tag_65\n      swap4\n      swap3\n      swap2\n      swap1\n      tag_66\n      jump\t// in\n    tag_65:\n      mload(0x40)\n      dup1\n      swap2\n      sub\n      swap1\n      log2\n        /* \"contracts/perpustakaan.sol\":955:1308  function TambahBuku(uint256 _ISBN, string memory _judul, uint256 _tahun, string memory _penulis) public hanyaAdmin {... */\n      pop\n      pop\n      pop\n      pop\n      jump\t// out\n        /* \"contracts/perpustakaan.sol\":269:305  mapping(uint256 => Buku) public buku */\n    tag_26:\n      mstore(0x20, 0x02)\n      dup1\n      0x00\n      mstore\n      keccak256(0x00, 0x40)\n      0x00\n      swap2\n      pop\n      swap1\n      pop\n      dup1\n      0x00\n      add\n      sload\n      swap1\n      dup1\n      0x01\n      add\n      dup1\n      sload\n      tag_67\n      swap1\n      tag_68\n      jump\t// in\n    tag_67:\n      dup1\n      0x1f\n      add\n      0x20\n      dup1\n      swap2\n      div\n      mul\n      0x20\n      add\n      mload(0x40)\n      swap1\n      dup2\n      add\n      0x40\n      mstore\n      dup1\n      swap3\n      swap2\n      swap1\n      dup2\n      dup2\n      mstore\n      0x20\n      add\n      dup3\n      dup1\n      sload\n      tag_69\n      swap1\n      tag_68\n      jump\t// in\n    tag_69:\n      dup1\n      iszero\n      tag_70\n      jumpi\n      dup1\n      0x1f\n      lt\n      tag_71\n      jumpi\n      0x0100\n      dup1\n      dup4\n      sload\n      div\n      mul\n      dup4\n      mstore\n      swap2\n      0x20\n      add\n      swap2\n      jump(tag_70)\n    tag_71:\n      dup3\n      add\n      swap2\n      swap1\n      0x00\n      mstore\n      keccak256(0x00, 0x20)\n      swap1\n    tag_72:\n      dup2\n      sload\n      dup2\n      mstore\n      swap1\n      0x01\n      add\n      swap1\n      0x20\n      add\n      dup1\n      dup4\n      gt\n      tag_72\n      jumpi\n      dup3\n      swap1\n      sub\n      0x1f\n      and\n      dup3\n      add\n      swap2\n    tag_70:\n      pop\n      pop\n      pop\n      pop\n      pop\n      swap1\n      dup1\n      0x02\n      add\n      sload\n      swap1\n      dup1\n      0x03\n      add\n      dup1\n      sload\n      tag_73\n      swap1\n      tag_68\n      jump\t// in\n    tag_73:\n      dup1\n      0x1f\n      add\n      0x20\n      dup1\n      swap2\n      div\n      mul\n      0x20\n      add\n      mload(0x40)\n      swap1\n      dup2\n      add\n      0x40\n      mstore\n      dup1\n      swap3\n      swap2\n      swap1\n      dup2\n      dup2\n      mstore\n      0x20\n      add\n      dup3\n      dup1\n      sload\n      tag_74\n      swap1\n      tag_68\n      jump\t// in\n    tag_74:\n      dup1\n      iszero\n      tag_75\n      jumpi\n      dup1\n      0x1f\n      lt\n      tag_76\n      jumpi\n      0x0100\n      dup1\n      dup4\n      sload\n      div\n      mul\n      dup4\n      mstore\n      swap2\n      0x20\n      add\n      swap2\n      jump(tag_75)\n    tag_76:\n      dup3\n      add\n      swap2\n      swap1\n      0x00\n      mstore\n      keccak256(0x00, 0x20)\n      swap1\n    tag_77:\n      dup2\n      sload\n      dup2\n      mstore\n      swap1\n      0x01\n      add\n      swap1\n      0x20\n      add\n      dup1\n      dup4\n      gt\n      tag_77\n      jumpi\n      dup3\n      swap1\n      sub\n      0x1f\n      and\n      dup3\n      add\n      swap2\n    tag_75:\n      pop\n      pop\n      pop\n      pop\n      pop\n      swap1\n      pop\n      dup5\n      jump\t// out\n        /* \"contracts/perpustakaan.sol\":90:112  address public pemilik */\n    tag_30:\n      0x00\n      dup1\n      sload\n      swap1\n      0x0100\n      exp\n      swap1\n      div\n      0xffffffffffffffffffffffffffffffffffffffff\n      and\n      dup2\n      jump\t// out\n        /* \"contracts/perpustakaan.sol\":1661:1894  function HapusBuku(uint256 _ISBN) public hanyaAdmin {... */\n    tag_35:\n        /* \"contracts/perpustakaan.sol\":491:496  admin */\n      0x01\n      0x00\n      swap1\n      sload\n      swap1\n      0x0100\n      exp\n      swap1\n      div\n      0xffffffffffffffffffffffffffffffffffffffff\n      and\n        /* \"contracts/perpustakaan.sol\":477:496  msg.sender == admin */\n      0xffffffffffffffffffffffffffffffffffffffff\n      and\n        /* \"contracts/perpustakaan.sol\":477:487  msg.sender */\n      caller\n        /* \"contracts/perpustakaan.sol\":477:496  msg.sender == admin */\n      0xffffffffffffffffffffffffffffffffffffffff\n      and\n      eq\n        /* \"contracts/perpustakaan.sol\":469:546  require(msg.sender == admin, \"Hanya admin yang dapat melakukan tindakan ini\") */\n      tag_79\n      jumpi\n      mload(0x40)\n      0x08c379a000000000000000000000000000000000000000000000000000000000\n      dup2\n      mstore\n      0x04\n      add\n      tag_80\n      swap1\n      tag_55\n      jump\t// in\n    tag_80:\n      mload(0x40)\n      dup1\n      swap2\n      sub\n      swap1\n      revert\n    tag_79:\n        /* \"contracts/perpustakaan.sol\":1752:1753  0 */\n      0x00\n        /* \"contracts/perpustakaan.sol\":1732:1736  buku */\n      0x02\n        /* \"contracts/perpustakaan.sol\":1732:1743  buku[_ISBN] */\n      0x00\n        /* \"contracts/perpustakaan.sol\":1737:1742  _ISBN */\n      dup4\n        /* \"contracts/perpustakaan.sol\":1732:1743  buku[_ISBN] */\n      dup2\n      mstore\n      0x20\n      add\n      swap1\n      dup2\n      mstore\n      0x20\n      add\n      0x00\n      keccak256\n        /* \"contracts/perpustakaan.sol\":1732:1748  buku[_ISBN].ISBN */\n      0x00\n      add\n      sload\n        /* \"contracts/perpustakaan.sol\":1732:1753  buku[_ISBN].ISBN != 0 */\n      sub\n        /* \"contracts/perpustakaan.sol\":1724:1800  require(buku[_ISBN].ISBN != 0, \"Buku dengan ISBN yang ditentukan tidak ada\") */\n      tag_82\n      jumpi\n      mload(0x40)\n      0x08c379a000000000000000000000000000000000000000000000000000000000\n      dup2\n      mstore\n      0x04\n      add\n      tag_83\n      swap1\n      tag_84\n      jump\t// in\n    tag_83:\n      mload(0x40)\n      dup1\n      swap2\n      sub\n      swap1\n      revert\n    tag_82:\n        /* \"contracts/perpustakaan.sol\":1818:1822  buku */\n      0x02\n        /* \"contracts/perpustakaan.sol\":1818:1829  buku[_ISBN] */\n      0x00\n        /* \"contracts/perpustakaan.sol\":1823:1828  _ISBN */\n      dup3\n        /* \"contracts/perpustakaan.sol\":1818:1829  buku[_ISBN] */\n      dup2\n      mstore\n      0x20\n      add\n      swap1\n      dup2\n      mstore\n      0x20\n      add\n      0x00\n      keccak256\n      0x00\n        /* \"contracts/perpustakaan.sol\":1811:1829  delete buku[_ISBN] */\n      dup1\n      dup3\n      add\n      0x00\n      swap1\n      sstore\n      0x01\n      dup3\n      add\n      0x00\n      tag_85\n      swap2\n      swap1\n      tag_86\n      jump\t// in\n    tag_85:\n      0x02\n      dup3\n      add\n      0x00\n      swap1\n      sstore\n      0x03\n      dup3\n      add\n      0x00\n      tag_87\n      swap2\n      swap1\n      tag_86\n      jump\t// in\n    tag_87:\n      pop\n      pop\n        /* \"contracts/perpustakaan.sol\":1840:1850  jumlahBuku */\n      0x03\n      0x00\n        /* \"contracts/perpustakaan.sol\":1840:1852  jumlahBuku-- */\n      dup2\n      sload\n      dup1\n      swap3\n      swap2\n      swap1\n      tag_88\n      swap1\n      tag_89\n      jump\t// in\n    tag_88:\n      swap2\n      swap1\n      pop\n      sstore\n      pop\n        /* \"contracts/perpustakaan.sol\":1880:1885  _ISBN */\n      dup1\n        /* \"contracts/perpustakaan.sol\":1868:1886  BukuDihapus(_ISBN) */\n      0xc5ad12f4910935b5f48affb3de5b21a9f5b2c2a8825c8e996f9571563c80e5a5\n      mload(0x40)\n      mload(0x40)\n      dup1\n      swap2\n      sub\n      swap1\n      log2\n        /* \"contracts/perpustakaan.sol\":1661:1894  function HapusBuku(uint256 _ISBN) public hanyaAdmin {... */\n      pop\n      jump\t// out\n        /* \"contracts/perpustakaan.sol\":312:337  uint256 public jumlahBuku */\n    tag_37:\n      sload(0x03)\n      dup2\n      jump\t// out\n        /* \"contracts/perpustakaan.sol\":1316:1653  function PerbaruiBuku(uint256 _ISBN, string memory _judul, uint256 _tahun, string memory _penulis) public hanyaAdmin {... */\n    tag_42:\n        /* \"contracts/perpustakaan.sol\":491:496  admin */\n      0x01\n      0x00\n      swap1\n      sload\n      swap1\n      0x0100\n      exp\n      swap1\n      div\n      0xffffffffffffffffffffffffffffffffffffffff\n      and\n        /* \"contracts/perpustakaan.sol\":477:496  msg.sender == admin */\n      0xffffffffffffffffffffffffffffffffffffffff\n      and\n        /* \"contracts/perpustakaan.sol\":477:487  msg.sender */\n      caller\n        /* \"contracts/perpustakaan.sol\":477:496  msg.sender == admin */\n      0xffffffffffffffffffffffffffffffffffffffff\n      and\n      eq\n        /* \"contracts/perpustakaan.sol\":469:546  require(msg.sender == admin, \"Hanya admin yang dapat melakukan tindakan ini\") */\n      tag_91\n      jumpi\n      mload(0x40)\n      0x08c379a000000000000000000000000000000000000000000000000000000000\n      dup2\n      mstore\n      0x04\n      add\n      tag_92\n      swap1\n      tag_55\n      jump\t// in\n    tag_92:\n      mload(0x40)\n      dup1\n      swap2\n      sub\n      swap1\n      revert\n    tag_91:\n        /* \"contracts/perpustakaan.sol\":1472:1473  0 */\n      0x00\n        /* \"contracts/perpustakaan.sol\":1452:1456  buku */\n      0x02\n        /* \"contracts/perpustakaan.sol\":1452:1463  buku[_ISBN] */\n      0x00\n        /* \"contracts/perpustakaan.sol\":1457:1462  _ISBN */\n      dup7\n        /* \"contracts/perpustakaan.sol\":1452:1463  buku[_ISBN] */\n      dup2\n      mstore\n      0x20\n      add\n      swap1\n      dup2\n      mstore\n      0x20\n      add\n      0x00\n      keccak256\n        /* \"contracts/perpustakaan.sol\":1452:1468  buku[_ISBN].ISBN */\n      0x00\n      add\n      sload\n        /* \"contracts/perpustakaan.sol\":1452:1473  buku[_ISBN].ISBN != 0 */\n      sub\n        /* \"contracts/perpustakaan.sol\":1444:1520  require(buku[_ISBN].ISBN != 0, \"Buku dengan ISBN yang ditentukan tidak ada\") */\n      tag_94\n      jumpi\n      mload(0x40)\n      0x08c379a000000000000000000000000000000000000000000000000000000000\n      dup2\n      mstore\n      0x04\n      add\n      tag_95\n      swap1\n      tag_84\n      jump\t// in\n    tag_95:\n      mload(0x40)\n      dup1\n      swap2\n      sub\n      swap1\n      revert\n    tag_94:\n        /* \"contracts/perpustakaan.sol\":1545:1582  Buku(_ISBN, _judul, _tahun, _penulis) */\n      mload(0x40)\n      dup1\n      0x80\n      add\n      0x40\n      mstore\n      dup1\n        /* \"contracts/perpustakaan.sol\":1550:1555  _ISBN */\n      dup6\n        /* \"contracts/perpustakaan.sol\":1545:1582  Buku(_ISBN, _judul, _tahun, _penulis) */\n      dup2\n      mstore\n      0x20\n      add\n        /* \"contracts/perpustakaan.sol\":1557:1563  _judul */\n      dup5\n        /* \"contracts/perpustakaan.sol\":1545:1582  Buku(_ISBN, _judul, _tahun, _penulis) */\n      dup2\n      mstore\n      0x20\n      add\n        /* \"contracts/perpustakaan.sol\":1565:1571  _tahun */\n      dup4\n        /* \"contracts/perpustakaan.sol\":1545:1582  Buku(_ISBN, _judul, _tahun, _penulis) */\n      dup2\n      mstore\n      0x20\n      add\n        /* \"contracts/perpustakaan.sol\":1573:1581  _penulis */\n      dup3\n        /* \"contracts/perpustakaan.sol\":1545:1582  Buku(_ISBN, _judul, _tahun, _penulis) */\n      dup2\n      mstore\n      pop\n        /* \"contracts/perpustakaan.sol\":1531:1535  buku */\n      0x02\n        /* \"contracts/perpustakaan.sol\":1531:1542  buku[_ISBN] */\n      0x00\n        /* \"contracts/perpustakaan.sol\":1536:1541  _ISBN */\n      dup7\n        /* \"contracts/perpustakaan.sol\":1531:1542  buku[_ISBN] */\n      dup2\n      mstore\n      0x20\n      add\n      swap1\n      dup2\n      mstore\n      0x20\n      add\n      0x00\n      keccak256\n        /* \"contracts/perpustakaan.sol\":1531:1582  buku[_ISBN] = Buku(_ISBN, _judul, _tahun, _penulis) */\n      0x00\n      dup3\n      add\n      mload\n      dup2\n      0x00\n      add\n      sstore\n      0x20\n      dup3\n      add\n      mload\n      dup2\n      0x01\n      add\n      swap1\n      dup2\n      tag_96\n      swap2\n      swap1\n      tag_61\n      jump\t// in\n    tag_96:\n      pop\n      0x40\n      dup3\n      add\n      mload\n      dup2\n      0x02\n      add\n      sstore\n      0x60\n      dup3\n      add\n      mload\n      dup2\n      0x03\n      add\n      swap1\n      dup2\n      tag_97\n      swap2\n      swap1\n      tag_61\n      jump\t// in\n    tag_97:\n      pop\n      swap1\n      pop\n      pop\n        /* \"contracts/perpustakaan.sol\":1613:1618  _ISBN */\n      dup4\n        /* \"contracts/perpustakaan.sol\":1598:1645  BukuDiperbarui(_ISBN, _judul, _tahun, _penulis) */\n      0x31885bd69be5fd94381a4d4dc2b2f4868dd0e8d7f8fa4c667a0a4675f3abeeec\n        /* \"contracts/perpustakaan.sol\":1620:1626  _judul */\n      dup5\n        /* \"contracts/perpustakaan.sol\":1628:1634  _tahun */\n      dup5\n        /* \"contracts/perpustakaan.sol\":1636:1644  _penulis */\n      dup5\n        /* \"contracts/perpustakaan.sol\":1598:1645  BukuDiperbarui(_ISBN, _judul, _tahun, _penulis) */\n      mload(0x40)\n      tag_98\n      swap4\n      swap3\n      swap2\n      swap1\n      tag_66\n      jump\t// in\n    tag_98:\n      mload(0x40)\n      dup1\n      swap2\n      sub\n      swap1\n      log2\n        /* \"contracts/perpustakaan.sol\":1316:1653  function PerbaruiBuku(uint256 _ISBN, string memory _judul, uint256 _tahun, string memory _penulis) public hanyaAdmin {... */\n      pop\n      pop\n      pop\n      pop\n      jump\t// out\n        /* \"contracts/perpustakaan.sol\":1902:2371  function DapatkanBuku(uint256 _ISBN, address pemanggil) public view returns (uint256, string memory, uint256, string memory) {... */\n    tag_46:\n        /* \"contracts/perpustakaan.sol\":1979:1986  uint256 */\n      0x00\n        /* \"contracts/perpustakaan.sol\":1988:2001  string memory */\n      0x60\n        /* \"contracts/perpustakaan.sol\":2003:2010  uint256 */\n      0x00\n        /* \"contracts/perpustakaan.sol\":2012:2025  string memory */\n      0x60\n        /* \"contracts/perpustakaan.sol\":2066:2067  0 */\n      0x00\n        /* \"contracts/perpustakaan.sol\":2046:2050  buku */\n      0x02\n        /* \"contracts/perpustakaan.sol\":2046:2057  buku[_ISBN] */\n      0x00\n        /* \"contracts/perpustakaan.sol\":2051:2056  _ISBN */\n      dup9\n        /* \"contracts/perpustakaan.sol\":2046:2057  buku[_ISBN] */\n      dup2\n      mstore\n      0x20\n      add\n      swap1\n      dup2\n      mstore\n      0x20\n      add\n      0x00\n      keccak256\n        /* \"contracts/perpustakaan.sol\":2046:2062  buku[_ISBN].ISBN */\n      0x00\n      add\n      sload\n        /* \"contracts/perpustakaan.sol\":2046:2067  buku[_ISBN].ISBN != 0 */\n      sub\n        /* \"contracts/perpustakaan.sol\":2038:2114  require(buku[_ISBN].ISBN != 0, \"Buku dengan ISBN yang ditentukan tidak ada\") */\n      tag_100\n      jumpi\n      mload(0x40)\n      0x08c379a000000000000000000000000000000000000000000000000000000000\n      dup2\n      mstore\n      0x04\n      add\n      tag_101\n      swap1\n      tag_84\n      jump\t// in\n    tag_101:\n      mload(0x40)\n      dup1\n      swap2\n      sub\n      swap1\n      revert\n    tag_100:\n        /* \"contracts/perpustakaan.sol\":2146:2151  admin */\n      0x01\n      0x00\n      swap1\n      sload\n      swap1\n      0x0100\n      exp\n      swap1\n      div\n      0xffffffffffffffffffffffffffffffffffffffff\n      and\n        /* \"contracts/perpustakaan.sol\":2133:2151  pemanggil == admin */\n      0xffffffffffffffffffffffffffffffffffffffff\n      and\n        /* \"contracts/perpustakaan.sol\":2133:2142  pemanggil */\n      dup6\n        /* \"contracts/perpustakaan.sol\":2133:2151  pemanggil == admin */\n      0xffffffffffffffffffffffffffffffffffffffff\n      and\n      eq\n        /* \"contracts/perpustakaan.sol\":2133:2175  pemanggil == admin || pemanggil == pemilik */\n      dup1\n      tag_102\n      jumpi\n      pop\n        /* \"contracts/perpustakaan.sol\":2168:2175  pemilik */\n      0x00\n      dup1\n      sload\n      swap1\n      0x0100\n      exp\n      swap1\n      div\n      0xffffffffffffffffffffffffffffffffffffffff\n      and\n        /* \"contracts/perpustakaan.sol\":2155:2175  pemanggil == pemilik */\n      0xffffffffffffffffffffffffffffffffffffffff\n      and\n        /* \"contracts/perpustakaan.sol\":2155:2164  pemanggil */\n      dup6\n        /* \"contracts/perpustakaan.sol\":2155:2175  pemanggil == pemilik */\n      0xffffffffffffffffffffffffffffffffffffffff\n      and\n      eq\n        /* \"contracts/perpustakaan.sol\":2133:2175  pemanggil == admin || pemanggil == pemilik */\n    tag_102:\n        /* \"contracts/perpustakaan.sol\":2125:2235  require(pemanggil == admin || pemanggil == pemilik, \"Hanya admin dan pemilik yang dapat mengakses fungsi ini\") */\n      tag_103\n      jumpi\n      mload(0x40)\n      0x08c379a000000000000000000000000000000000000000000000000000000000\n      dup2\n      mstore\n      0x04\n      add\n      tag_104\n      swap1\n      tag_105\n      jump\t// in\n    tag_104:\n      mload(0x40)\n      dup1\n      swap2\n      sub\n      swap1\n      revert\n    tag_103:\n        /* \"contracts/perpustakaan.sol\":2246:2266  Buku memory bukuData */\n      0x00\n        /* \"contracts/perpustakaan.sol\":2269:2273  buku */\n      0x02\n        /* \"contracts/perpustakaan.sol\":2269:2280  buku[_ISBN] */\n      0x00\n        /* \"contracts/perpustakaan.sol\":2274:2279  _ISBN */\n      dup9\n        /* \"contracts/perpustakaan.sol\":2269:2280  buku[_ISBN] */\n      dup2\n      mstore\n      0x20\n      add\n      swap1\n      dup2\n      mstore\n      0x20\n      add\n      0x00\n      keccak256\n        /* \"contracts/perpustakaan.sol\":2246:2280  Buku memory bukuData = buku[_ISBN] */\n      mload(0x40)\n      dup1\n      0x80\n      add\n      0x40\n      mstore\n      swap1\n      dup2\n      0x00\n      dup3\n      add\n      sload\n      dup2\n      mstore\n      0x20\n      add\n      0x01\n      dup3\n      add\n      dup1\n      sload\n      tag_106\n      swap1\n      tag_68\n      jump\t// in\n    tag_106:\n      dup1\n      0x1f\n      add\n      0x20\n      dup1\n      swap2\n      div\n      mul\n      0x20\n      add\n      mload(0x40)\n      swap1\n      dup2\n      add\n      0x40\n      mstore\n      dup1\n      swap3\n      swap2\n      swap1\n      dup2\n      dup2\n      mstore\n      0x20\n      add\n      dup3\n      dup1\n      sload\n      tag_107\n      swap1\n      tag_68\n      jump\t// in\n    tag_107:\n      dup1\n      iszero\n      tag_108\n      jumpi\n      dup1\n      0x1f\n      lt\n      tag_109\n      jumpi\n      0x0100\n      dup1\n      dup4\n      sload\n      div\n      mul\n      dup4\n      mstore\n      swap2\n      0x20\n      add\n      swap2\n      jump(tag_108)\n    tag_109:\n      dup3\n      add\n      swap2\n      swap1\n      0x00\n      mstore\n      keccak256(0x00, 0x20)\n      swap1\n    tag_110:\n      dup2\n      sload\n      dup2\n      mstore\n      swap1\n      0x01\n      add\n      swap1\n      0x20\n      add\n      dup1\n      dup4\n      gt\n      tag_110\n      jumpi\n      dup3\n      swap1\n      sub\n      0x1f\n      and\n      dup3\n      add\n      swap2\n    tag_108:\n      pop\n      pop\n      pop\n      pop\n      pop\n      dup2\n      mstore\n      0x20\n      add\n      0x02\n      dup3\n      add\n      sload\n      dup2\n      mstore\n      0x20\n      add\n      0x03\n      dup3\n      add\n      dup1\n      sload\n      tag_111\n      swap1\n      tag_68\n      jump\t// in\n    tag_111:\n      dup1\n      0x1f\n      add\n      0x20\n      dup1\n      swap2\n      div\n      mul\n      0x20\n      add\n      mload(0x40)\n      swap1\n      dup2\n      add\n      0x40\n      mstore\n      dup1\n      swap3\n      swap2\n      swap1\n      dup2\n      dup2\n      mstore\n      0x20\n      add\n      dup3\n      dup1\n      sload\n      tag_112\n      swap1\n      tag_68\n      jump\t// in\n    tag_112:\n      dup1\n      iszero\n      tag_113\n      jumpi\n      dup1\n      0x1f\n      lt\n      tag_114\n      jumpi\n      0x0100\n      dup1\n      dup4\n      sload\n      div\n      mul\n      dup4\n      mstore\n      swap2\n      0x20\n      add\n      swap2\n      jump(tag_113)\n    tag_114:\n      dup3\n      add\n      swap2\n      swap1\n      0x00\n      mstore\n      keccak256(0x00, 0x20)\n      swap1\n    tag_115:\n      dup2\n      sload\n      dup2\n      mstore\n      swap1\n      0x01\n      add\n      swap1\n      0x20\n      add\n      dup1\n      dup4\n      gt\n      tag_115\n      jumpi\n      dup3\n      swap1\n      sub\n      0x1f\n      and\n      dup3\n      add\n      swap2\n    tag_113:\n      pop\n      pop\n      pop\n      pop\n      pop\n      dup2\n      mstore\n      pop\n      pop\n      swap1\n      pop\n        /* \"contracts/perpustakaan.sol\":2299:2307  bukuData */\n      dup1\n        /* \"contracts/perpustakaan.sol\":2299:2312  bukuData.ISBN */\n      0x00\n      add\n      mload\n        /* \"contracts/perpustakaan.sol\":2314:2322  bukuData */\n      dup2\n        /* \"contracts/perpustakaan.sol\":2314:2328  bukuData.judul */\n      0x20\n      add\n      mload\n        /* \"contracts/perpustakaan.sol\":2330:2338  bukuData */\n      dup3\n        /* \"contracts/perpustakaan.sol\":2330:2344  bukuData.tahun */\n      0x40\n      add\n      mload\n        /* \"contracts/perpustakaan.sol\":2346:2354  bukuData */\n      dup4\n        /* \"contracts/perpustakaan.sol\":2346:2362  bukuData.penulis */\n      0x60\n      add\n      mload\n        /* \"contracts/perpustakaan.sol\":2291:2363  return (bukuData.ISBN, bukuData.judul, bukuData.tahun, bukuData.penulis) */\n      swap5\n      pop\n      swap5\n      pop\n      swap5\n      pop\n      swap5\n      pop\n      pop\n        /* \"contracts/perpustakaan.sol\":1902:2371  function DapatkanBuku(uint256 _ISBN, address pemanggil) public view returns (uint256, string memory, uint256, string memory) {... */\n      swap3\n      swap6\n      swap2\n      swap5\n      pop\n      swap3\n      pop\n      jump\t// out\n        /* \"contracts/perpustakaan.sol\":119:139  address public admin */\n    tag_49:\n      0x01\n      0x00\n      swap1\n      sload\n      swap1\n      0x0100\n      exp\n      swap1\n      div\n      0xffffffffffffffffffffffffffffffffffffffff\n      and\n      dup2\n      jump\t// out\n    tag_86:\n      pop\n      dup1\n      sload\n      tag_116\n      swap1\n      tag_68\n      jump\t// in\n    tag_116:\n      0x00\n      dup3\n      sstore\n      dup1\n      0x1f\n      lt\n      tag_118\n      jumpi\n      pop\n      jump(tag_117)\n    tag_118:\n      0x1f\n      add\n      0x20\n      swap1\n      div\n      swap1\n      0x00\n      mstore\n      keccak256(0x00, 0x20)\n      swap1\n      dup2\n      add\n      swap1\n      tag_119\n      swap2\n      swap1\n      tag_120\n      jump\t// in\n    tag_119:\n    tag_117:\n      pop\n      jump\t// out\n    tag_120:\n    tag_121:\n      dup1\n      dup3\n      gt\n      iszero\n      tag_122\n      jumpi\n      0x00\n      dup2\n      0x00\n      swap1\n      sstore\n      pop\n      0x01\n      add\n      jump(tag_121)\n    tag_122:\n      pop\n      swap1\n      jump\t// out\n        /* \"#utility.yul\":7:82   */\n    tag_123:\n        /* \"#utility.yul\":40:46   */\n      0x00\n        /* \"#utility.yul\":73:75   */\n      0x40\n        /* \"#utility.yul\":67:76   */\n      mload\n        /* \"#utility.yul\":57:76   */\n      swap1\n      pop\n        /* \"#utility.yul\":7:82   */\n      swap1\n      jump\t// out\n        /* \"#utility.yul\":88:205   */\n    tag_124:\n        /* \"#utility.yul\":197:198   */\n      0x00\n        /* \"#utility.yul\":194:195   */\n      dup1\n        /* \"#utility.yul\":187:199   */\n      revert\n        /* \"#utility.yul\":211:328   */\n    tag_125:\n        /* \"#utility.yul\":320:321   */\n      0x00\n        /* \"#utility.yul\":317:318   */\n      dup1\n        /* \"#utility.yul\":310:322   */\n      revert\n        /* \"#utility.yul\":334:460   */\n    tag_126:\n        /* \"#utility.yul\":371:378   */\n      0x00\n        /* \"#utility.yul\":411:453   */\n      0xffffffffffffffffffffffffffffffffffffffff\n        /* \"#utility.yul\":404:409   */\n      dup3\n        /* \"#utility.yul\":400:454   */\n      and\n        /* \"#utility.yul\":389:454   */\n      swap1\n      pop\n        /* \"#utility.yul\":334:460   */\n      swap2\n      swap1\n      pop\n      jump\t// out\n        /* \"#utility.yul\":466:562   */\n    tag_127:\n        /* \"#utility.yul\":503:510   */\n      0x00\n        /* \"#utility.yul\":532:556   */\n      tag_182\n        /* \"#utility.yul\":550:555   */\n      dup3\n        /* \"#utility.yul\":532:556   */\n      tag_126\n      jump\t// in\n    tag_182:\n        /* \"#utility.yul\":521:556   */\n      swap1\n      pop\n        /* \"#utility.yul\":466:562   */\n      swap2\n      swap1\n      pop\n      jump\t// out\n        /* \"#utility.yul\":568:690   */\n    tag_128:\n        /* \"#utility.yul\":641:665   */\n      tag_184\n        /* \"#utility.yul\":659:664   */\n      dup2\n        /* \"#utility.yul\":641:665   */\n      tag_127\n      jump\t// in\n    tag_184:\n        /* \"#utility.yul\":634:639   */\n      dup2\n        /* \"#utility.yul\":631:666   */\n      eq\n        /* \"#utility.yul\":621:684   */\n      tag_185\n      jumpi\n        /* \"#utility.yul\":680:681   */\n      0x00\n        /* \"#utility.yul\":677:678   */\n      dup1\n        /* \"#utility.yul\":670:682   */\n      revert\n        /* \"#utility.yul\":621:684   */\n    tag_185:\n        /* \"#utility.yul\":568:690   */\n      pop\n      jump\t// out\n        /* \"#utility.yul\":696:835   */\n    tag_129:\n        /* \"#utility.yul\":742:747   */\n      0x00\n        /* \"#utility.yul\":780:786   */\n      dup2\n        /* \"#utility.yul\":767:787   */\n      calldataload\n        /* \"#utility.yul\":758:787   */\n      swap1\n      pop\n        /* \"#utility.yul\":796:829   */\n      tag_187\n        /* \"#utility.yul\":823:828   */\n      dup2\n        /* \"#utility.yul\":796:829   */\n      tag_128\n      jump\t// in\n    tag_187:\n        /* \"#utility.yul\":696:835   */\n      swap3\n      swap2\n      pop\n      pop\n      jump\t// out\n        /* \"#utility.yul\":841:1170   */\n    tag_15:\n        /* \"#utility.yul\":900:906   */\n      0x00\n        /* \"#utility.yul\":949:951   */\n      0x20\n        /* \"#utility.yul\":937:946   */\n      dup3\n        /* \"#utility.yul\":928:935   */\n      dup5\n        /* \"#utility.yul\":924:947   */\n      sub\n        /* \"#utility.yul\":920:952   */\n      slt\n        /* \"#utility.yul\":917:1036   */\n      iszero\n      tag_189\n      jumpi\n        /* \"#utility.yul\":955:1034   */\n      tag_190\n      tag_124\n      jump\t// in\n    tag_190:\n        /* \"#utility.yul\":917:1036   */\n    tag_189:\n        /* \"#utility.yul\":1075:1076   */\n      0x00\n        /* \"#utility.yul\":1100:1153   */\n      tag_191\n        /* \"#utility.yul\":1145:1152   */\n      dup5\n        /* \"#utility.yul\":1136:1142   */\n      dup3\n        /* \"#utility.yul\":1125:1134   */\n      dup6\n        /* \"#utility.yul\":1121:1143   */\n      add\n        /* \"#utility.yul\":1100:1153   */\n      tag_129\n      jump\t// in\n    tag_191:\n        /* \"#utility.yul\":1090:1153   */\n      swap2\n      pop\n        /* \"#utility.yul\":1046:1163   */\n      pop\n        /* \"#utility.yul\":841:1170   */\n      swap3\n      swap2\n      pop\n      pop\n      jump\t// out\n        /* \"#utility.yul\":1176:1266   */\n    tag_130:\n        /* \"#utility.yul\":1210:1217   */\n      0x00\n        /* \"#utility.yul\":1253:1258   */\n      dup2\n        /* \"#utility.yul\":1246:1259   */\n      iszero\n        /* \"#utility.yul\":1239:1260   */\n      iszero\n        /* \"#utility.yul\":1228:1260   */\n      swap1\n      pop\n        /* \"#utility.yul\":1176:1266   */\n      swap2\n      swap1\n      pop\n      jump\t// out\n        /* \"#utility.yul\":1272:1381   */\n    tag_131:\n        /* \"#utility.yul\":1353:1374   */\n      tag_194\n        /* \"#utility.yul\":1368:1373   */\n      dup2\n        /* \"#utility.yul\":1353:1374   */\n      tag_130\n      jump\t// in\n    tag_194:\n        /* \"#utility.yul\":1348:1351   */\n      dup3\n        /* \"#utility.yul\":1341:1375   */\n      mstore\n        /* \"#utility.yul\":1272:1381   */\n      pop\n      pop\n      jump\t// out\n        /* \"#utility.yul\":1387:1597   */\n    tag_18:\n        /* \"#utility.yul\":1474:1478   */\n      0x00\n        /* \"#utility.yul\":1512:1514   */\n      0x20\n        /* \"#utility.yul\":1501:1510   */\n      dup3\n        /* \"#utility.yul\":1497:1515   */\n      add\n        /* \"#utility.yul\":1489:1515   */\n      swap1\n      pop\n        /* \"#utility.yul\":1525:1590   */\n      tag_196\n        /* \"#utility.yul\":1587:1588   */\n      0x00\n        /* \"#utility.yul\":1576:1585   */\n      dup4\n        /* \"#utility.yul\":1572:1589   */\n      add\n        /* \"#utility.yul\":1563:1569   */\n      dup5\n        /* \"#utility.yul\":1525:1590   */\n      tag_131\n      jump\t// in\n    tag_196:\n        /* \"#utility.yul\":1387:1597   */\n      swap3\n      swap2\n      pop\n      pop\n      jump\t// out\n        /* \"#utility.yul\":1603:1680   */\n    tag_132:\n        /* \"#utility.yul\":1640:1647   */\n      0x00\n        /* \"#utility.yul\":1669:1674   */\n      dup2\n        /* \"#utility.yul\":1658:1674   */\n      swap1\n      pop\n        /* \"#utility.yul\":1603:1680   */\n      swap2\n      swap1\n      pop\n      jump\t// out\n        /* \"#utility.yul\":1686:1808   */\n    tag_133:\n        /* \"#utility.yul\":1759:1783   */\n      tag_199\n        /* \"#utility.yul\":1777:1782   */\n      dup2\n        /* \"#utility.yul\":1759:1783   */\n      tag_132\n      jump\t// in\n    tag_199:\n        /* \"#utility.yul\":1752:1757   */\n      dup2\n        /* \"#utility.yul\":1749:1784   */\n      eq\n        /* \"#utility.yul\":1739:1802   */\n      tag_200\n      jumpi\n        /* \"#utility.yul\":1798:1799   */\n      0x00\n        /* \"#utility.yul\":1795:1796   */\n      dup1\n        /* \"#utility.yul\":1788:1800   */\n      revert\n        /* \"#utility.yul\":1739:1802   */\n    tag_200:\n        /* \"#utility.yul\":1686:1808   */\n      pop\n      jump\t// out\n        /* \"#utility.yul\":1814:1953   */\n    tag_134:\n        /* \"#utility.yul\":1860:1865   */\n      0x00\n        /* \"#utility.yul\":1898:1904   */\n      dup2\n        /* \"#utility.yul\":1885:1905   */\n      calldataload\n        /* \"#utility.yul\":1876:1905   */\n      swap1\n      pop\n        /* \"#utility.yul\":1914:1947   */\n      tag_202\n        /* \"#utility.yul\":1941:1946   */\n      dup2\n        /* \"#utility.yul\":1914:1947   */\n      tag_133\n      jump\t// in\n    tag_202:\n        /* \"#utility.yul\":1814:1953   */\n      swap3\n      swap2\n      pop\n      pop\n      jump\t// out\n        /* \"#utility.yul\":1959:2076   */\n    tag_135:\n        /* \"#utility.yul\":2068:2069   */\n      0x00\n        /* \"#utility.yul\":2065:2066   */\n      dup1\n        /* \"#utility.yul\":2058:2070   */\n      revert\n        /* \"#utility.yul\":2082:2199   */\n    tag_136:\n        /* \"#utility.yul\":2191:2192   */\n      0x00\n        /* \"#utility.yul\":2188:2189   */\n      dup1\n        /* \"#utility.yul\":2181:2193   */\n      revert\n        /* \"#utility.yul\":2205:2307   */\n    tag_137:\n        /* \"#utility.yul\":2246:2252   */\n      0x00\n        /* \"#utility.yul\":2297:2299   */\n      0x1f\n        /* \"#utility.yul\":2293:2300   */\n      not\n        /* \"#utility.yul\":2288:2290   */\n      0x1f\n        /* \"#utility.yul\":2281:2286   */\n      dup4\n        /* \"#utility.yul\":2277:2291   */\n      add\n        /* \"#utility.yul\":2273:2301   */\n      and\n        /* \"#utility.yul\":2263:2301   */\n      swap1\n      pop\n        /* \"#utility.yul\":2205:2307   */\n      swap2\n      swap1\n      pop\n      jump\t// out\n        /* \"#utility.yul\":2313:2493   */\n    tag_138:\n        /* \"#utility.yul\":2361:2438   */\n      0x4e487b7100000000000000000000000000000000000000000000000000000000\n        /* \"#utility.yul\":2358:2359   */\n      0x00\n        /* \"#utility.yul\":2351:2439   */\n      mstore\n        /* \"#utility.yul\":2458:2462   */\n      0x41\n        /* \"#utility.yul\":2455:2456   */\n      0x04\n        /* \"#utility.yul\":2448:2463   */\n      mstore\n        /* \"#utility.yul\":2482:2486   */\n      0x24\n        /* \"#utility.yul\":2479:2480   */\n      0x00\n        /* \"#utility.yul\":2472:2487   */\n      revert\n        /* \"#utility.yul\":2499:2780   */\n    tag_139:\n        /* \"#utility.yul\":2582:2609   */\n      tag_208\n        /* \"#utility.yul\":2604:2608   */\n      dup3\n        /* \"#utility.yul\":2582:2609   */\n      tag_137\n      jump\t// in\n    tag_208:\n        /* \"#utility.yul\":2574:2580   */\n      dup2\n        /* \"#utility.yul\":2570:2610   */\n      add\n        /* \"#utility.yul\":2712:2718   */\n      dup2\n        /* \"#utility.yul\":2700:2710   */\n      dup2\n        /* \"#utility.yul\":2697:2719   */\n      lt\n        /* \"#utility.yul\":2676:2694   */\n      0xffffffffffffffff\n        /* \"#utility.yul\":2664:2674   */\n      dup3\n        /* \"#utility.yul\":2661:2695   */\n      gt\n        /* \"#utility.yul\":2658:2720   */\n      or\n        /* \"#utility.yul\":2655:2743   */\n      iszero\n      tag_209\n      jumpi\n        /* \"#utility.yul\":2723:2741   */\n      tag_210\n      tag_138\n      jump\t// in\n    tag_210:\n        /* \"#utility.yul\":2655:2743   */\n    tag_209:\n        /* \"#utility.yul\":2763:2773   */\n      dup1\n        /* \"#utility.yul\":2759:2761   */\n      0x40\n        /* \"#utility.yul\":2752:2774   */\n      mstore\n        /* \"#utility.yul\":2542:2780   */\n      pop\n        /* \"#utility.yul\":2499:2780   */\n      pop\n      pop\n      jump\t// out\n        /* \"#utility.yul\":2786:2915   */\n    tag_140:\n        /* \"#utility.yul\":2820:2826   */\n      0x00\n        /* \"#utility.yul\":2847:2867   */\n      tag_212\n      tag_123\n      jump\t// in\n    tag_212:\n        /* \"#utility.yul\":2837:2867   */\n      swap1\n      pop\n        /* \"#utility.yul\":2876:2909   */\n      tag_213\n        /* \"#utility.yul\":2904:2908   */\n      dup3\n        /* \"#utility.yul\":2896:2902   */\n      dup3\n        /* \"#utility.yul\":2876:2909   */\n      tag_139\n      jump\t// in\n    tag_213:\n        /* \"#utility.yul\":2786:2915   */\n      swap2\n      swap1\n      pop\n      jump\t// out\n        /* \"#utility.yul\":2921:3229   */\n    tag_141:\n        /* \"#utility.yul\":2983:2987   */\n      0x00\n        /* \"#utility.yul\":3073:3091   */\n      0xffffffffffffffff\n        /* \"#utility.yul\":3065:3071   */\n      dup3\n        /* \"#utility.yul\":3062:3092   */\n      gt\n        /* \"#utility.yul\":3059:3115   */\n      iszero\n      tag_215\n      jumpi\n        /* \"#utility.yul\":3095:3113   */\n      tag_216\n      tag_138\n      jump\t// in\n    tag_216:\n        /* \"#utility.yul\":3059:3115   */\n    tag_215:\n        /* \"#utility.yul\":3133:3162   */\n      tag_217\n        /* \"#utility.yul\":3155:3161   */\n      dup3\n        /* \"#utility.yul\":3133:3162   */\n      tag_137\n      jump\t// in\n    tag_217:\n        /* \"#utility.yul\":3125:3162   */\n      swap1\n      pop\n        /* \"#utility.yul\":3217:3221   */\n      0x20\n        /* \"#utility.yul\":3211:3215   */\n      dup2\n        /* \"#utility.yul\":3207:3222   */\n      add\n        /* \"#utility.yul\":3199:3222   */\n      swap1\n      pop\n        /* \"#utility.yul\":2921:3229   */\n      swap2\n      swap1\n      pop\n      jump\t// out\n        /* \"#utility.yul\":3235:3381   */\n    tag_142:\n        /* \"#utility.yul\":3332:3338   */\n      dup3\n        /* \"#utility.yul\":3327:3330   */\n      dup2\n        /* \"#utility.yul\":3322:3325   */\n      dup4\n        /* \"#utility.yul\":3309:3339   */\n      calldatacopy\n        /* \"#utility.yul\":3373:3374   */\n      0x00\n        /* \"#utility.yul\":3364:3370   */\n      dup4\n        /* \"#utility.yul\":3359:3362   */\n      dup4\n        /* \"#utility.yul\":3355:3371   */\n      add\n        /* \"#utility.yul\":3348:3375   */\n      mstore\n        /* \"#utility.yul\":3235:3381   */\n      pop\n      pop\n      pop\n      jump\t// out\n        /* \"#utility.yul\":3387:3812   */\n    tag_143:\n        /* \"#utility.yul\":3465:3470   */\n      0x00\n        /* \"#utility.yul\":3490:3556   */\n      tag_220\n        /* \"#utility.yul\":3506:3555   */\n      tag_221\n        /* \"#utility.yul\":3548:3554   */\n      dup5\n        /* \"#utility.yul\":3506:3555   */\n      tag_141\n      jump\t// in\n    tag_221:\n        /* \"#utility.yul\":3490:3556   */\n      tag_140\n      jump\t// in\n    tag_220:\n        /* \"#utility.yul\":3481:3556   */\n      swap1\n      pop\n        /* \"#utility.yul\":3579:3585   */\n      dup3\n        /* \"#utility.yul\":3572:3577   */\n      dup2\n        /* \"#utility.yul\":3565:3586   */\n      mstore\n        /* \"#utility.yul\":3617:3621   */\n      0x20\n        /* \"#utility.yul\":3610:3615   */\n      dup2\n        /* \"#utility.yul\":3606:3622   */\n      add\n        /* \"#utility.yul\":3655:3658   */\n      dup5\n        /* \"#utility.yul\":3646:3652   */\n      dup5\n        /* \"#utility.yul\":3641:3644   */\n      dup5\n        /* \"#utility.yul\":3637:3653   */\n      add\n        /* \"#utility.yul\":3634:3659   */\n      gt\n        /* \"#utility.yul\":3631:3743   */\n      iszero\n      tag_222\n      jumpi\n        /* \"#utility.yul\":3662:3741   */\n      tag_223\n      tag_136\n      jump\t// in\n    tag_223:\n        /* \"#utility.yul\":3631:3743   */\n    tag_222:\n        /* \"#utility.yul\":3752:3806   */\n      tag_224\n        /* \"#utility.yul\":3799:3805   */\n      dup5\n        /* \"#utility.yul\":3794:3797   */\n      dup3\n        /* \"#utility.yul\":3789:3792   */\n      dup6\n        /* \"#utility.yul\":3752:3806   */\n      tag_142\n      jump\t// in\n    tag_224:\n        /* \"#utility.yul\":3471:3812   */\n      pop\n        /* \"#utility.yul\":3387:3812   */\n      swap4\n      swap3\n      pop\n      pop\n      pop\n      jump\t// out\n        /* \"#utility.yul\":3832:4172   */\n    tag_144:\n        /* \"#utility.yul\":3888:3893   */\n      0x00\n        /* \"#utility.yul\":3937:3940   */\n      dup3\n        /* \"#utility.yul\":3930:3934   */\n      0x1f\n        /* \"#utility.yul\":3922:3928   */\n      dup4\n        /* \"#utility.yul\":3918:3935   */\n      add\n        /* \"#utility.yul\":3914:3941   */\n      slt\n        /* \"#utility.yul\":3904:4026   */\n      tag_226\n      jumpi\n        /* \"#utility.yul\":3945:4024   */\n      tag_227\n      tag_135\n      jump\t// in\n    tag_227:\n        /* \"#utility.yul\":3904:4026   */\n    tag_226:\n        /* \"#utility.yul\":4062:4068   */\n      dup2\n        /* \"#utility.yul\":4049:4069   */\n      calldataload\n        /* \"#utility.yul\":4087:4166   */\n      tag_228\n        /* \"#utility.yul\":4162:4165   */\n      dup5\n        /* \"#utility.yul\":4154:4160   */\n      dup3\n        /* \"#utility.yul\":4147:4151   */\n      0x20\n        /* \"#utility.yul\":4139:4145   */\n      dup7\n        /* \"#utility.yul\":4135:4152   */\n      add\n        /* \"#utility.yul\":4087:4166   */\n      tag_143\n      jump\t// in\n    tag_228:\n        /* \"#utility.yul\":4078:4166   */\n      swap2\n      pop\n        /* \"#utility.yul\":3894:4172   */\n      pop\n        /* \"#utility.yul\":3832:4172   */\n      swap3\n      swap2\n      pop\n      pop\n      jump\t// out\n        /* \"#utility.yul\":4178:5303   */\n    tag_21:\n        /* \"#utility.yul\":4284:4290   */\n      0x00\n        /* \"#utility.yul\":4292:4298   */\n      dup1\n        /* \"#utility.yul\":4300:4306   */\n      0x00\n        /* \"#utility.yul\":4308:4314   */\n      dup1\n        /* \"#utility.yul\":4357:4360   */\n      0x80\n        /* \"#utility.yul\":4345:4354   */\n      dup6\n        /* \"#utility.yul\":4336:4343   */\n      dup8\n        /* \"#utility.yul\":4332:4355   */\n      sub\n        /* \"#utility.yul\":4328:4361   */\n      slt\n        /* \"#utility.yul\":4325:4445   */\n      iszero\n      tag_230\n      jumpi\n        /* \"#utility.yul\":4364:4443   */\n      tag_231\n      tag_124\n      jump\t// in\n    tag_231:\n        /* \"#utility.yul\":4325:4445   */\n    tag_230:\n        /* \"#utility.yul\":4484:4485   */\n      0x00\n        /* \"#utility.yul\":4509:4562   */\n      tag_232\n        /* \"#utility.yul\":4554:4561   */\n      dup8\n        /* \"#utility.yul\":4545:4551   */\n      dup3\n        /* \"#utility.yul\":4534:4543   */\n      dup9\n        /* \"#utility.yul\":4530:4552   */\n      add\n        /* \"#utility.yul\":4509:4562   */\n      tag_134\n      jump\t// in\n    tag_232:\n        /* \"#utility.yul\":4499:4562   */\n      swap5\n      pop\n        /* \"#utility.yul\":4455:4572   */\n      pop\n        /* \"#utility.yul\":4639:4641   */\n      0x20\n        /* \"#utility.yul\":4628:4637   */\n      dup6\n        /* \"#utility.yul\":4624:4642   */\n      add\n        /* \"#utility.yul\":4611:4643   */\n      calldataload\n        /* \"#utility.yul\":4670:4688   */\n      0xffffffffffffffff\n        /* \"#utility.yul\":4662:4668   */\n      dup2\n        /* \"#utility.yul\":4659:4689   */\n      gt\n        /* \"#utility.yul\":4656:4773   */\n      iszero\n      tag_233\n      jumpi\n        /* \"#utility.yul\":4692:4771   */\n      tag_234\n      tag_125\n      jump\t// in\n    tag_234:\n        /* \"#utility.yul\":4656:4773   */\n    tag_233:\n        /* \"#utility.yul\":4797:4860   */\n      tag_235\n        /* \"#utility.yul\":4852:4859   */\n      dup8\n        /* \"#utility.yul\":4843:4849   */\n      dup3\n        /* \"#utility.yul\":4832:4841   */\n      dup9\n        /* \"#utility.yul\":4828:4850   */\n      add\n        /* \"#utility.yul\":4797:4860   */\n      tag_144\n      jump\t// in\n    tag_235:\n        /* \"#utility.yul\":4787:4860   */\n      swap4\n      pop\n        /* \"#utility.yul\":4582:4870   */\n      pop\n        /* \"#utility.yul\":4909:4911   */\n      0x40\n        /* \"#utility.yul\":4935:4988   */\n      tag_236\n        /* \"#utility.yul\":4980:4987   */\n      dup8\n        /* \"#utility.yul\":4971:4977   */\n      dup3\n        /* \"#utility.yul\":4960:4969   */\n      dup9\n        /* \"#utility.yul\":4956:4978   */\n      add\n        /* \"#utility.yul\":4935:4988   */\n      tag_134\n      jump\t// in\n    tag_236:\n        /* \"#utility.yul\":4925:4988   */\n      swap3\n      pop\n        /* \"#utility.yul\":4880:4998   */\n      pop\n        /* \"#utility.yul\":5065:5067   */\n      0x60\n        /* \"#utility.yul\":5054:5063   */\n      dup6\n        /* \"#utility.yul\":5050:5068   */\n      add\n        /* \"#utility.yul\":5037:5069   */\n      calldataload\n        /* \"#utility.yul\":5096:5114   */\n      0xffffffffffffffff\n        /* \"#utility.yul\":5088:5094   */\n      dup2\n        /* \"#utility.yul\":5085:5115   */\n      gt\n        /* \"#utility.yul\":5082:5199   */\n      iszero\n      tag_237\n      jumpi\n        /* \"#utility.yul\":5118:5197   */\n      tag_238\n      tag_125\n      jump\t// in\n    tag_238:\n        /* \"#utility.yul\":5082:5199   */\n    tag_237:\n        /* \"#utility.yul\":5223:5286   */\n      tag_239\n        /* \"#utility.yul\":5278:5285   */\n      dup8\n        /* \"#utility.yul\":5269:5275   */\n      dup3\n        /* \"#utility.yul\":5258:5267   */\n      dup9\n        /* \"#utility.yul\":5254:5276   */\n      add\n        /* \"#utility.yul\":5223:5286   */\n      tag_144\n      jump\t// in\n    tag_239:\n        /* \"#utility.yul\":5213:5286   */\n      swap2\n      pop\n        /* \"#utility.yul\":5008:5296   */\n      pop\n        /* \"#utility.yul\":4178:5303   */\n      swap3\n      swap6\n      swap2\n      swap5\n      pop\n      swap3\n      pop\n      jump\t// out\n        /* \"#utility.yul\":5309:5638   */\n    tag_25:\n        /* \"#utility.yul\":5368:5374   */\n      0x00\n        /* \"#utility.yul\":5417:5419   */\n      0x20\n        /* \"#utility.yul\":5405:5414   */\n      dup3\n        /* \"#utility.yul\":5396:5403   */\n      dup5\n        /* \"#utility.yul\":5392:5415   */\n      sub\n        /* \"#utility.yul\":5388:5420   */\n      slt\n        /* \"#utility.yul\":5385:5504   */\n      iszero\n      tag_241\n      jumpi\n        /* \"#utility.yul\":5423:5502   */\n      tag_242\n      tag_124\n      jump\t// in\n    tag_242:\n        /* \"#utility.yul\":5385:5504   */\n    tag_241:\n        /* \"#utility.yul\":5543:5544   */\n      0x00\n        /* \"#utility.yul\":5568:5621   */\n      tag_243\n        /* \"#utility.yul\":5613:5620   */\n      dup5\n        /* \"#utility.yul\":5604:5610   */\n      dup3\n        /* \"#utility.yul\":5593:5602   */\n      dup6\n        /* \"#utility.yul\":5589:5611   */\n      add\n        /* \"#utility.yul\":5568:5621   */\n      tag_134\n      jump\t// in\n    tag_243:\n        /* \"#utility.yul\":5558:5621   */\n      swap2\n      pop\n        /* \"#utility.yul\":5514:5631   */\n      pop\n        /* \"#utility.yul\":5309:5638   */\n      swap3\n      swap2\n      pop\n      pop\n      jump\t// out\n        /* \"#utility.yul\":5644:5762   */\n    tag_145:\n        /* \"#utility.yul\":5731:5755   */\n      tag_245\n        /* \"#utility.yul\":5749:5754   */\n      dup2\n        /* \"#utility.yul\":5731:5755   */\n      tag_132\n      jump\t// in\n    tag_245:\n        /* \"#utility.yul\":5726:5729   */\n      dup3\n        /* \"#utility.yul\":5719:5756   */\n      mstore\n        /* \"#utility.yul\":5644:5762   */\n      pop\n      pop\n      jump\t// out\n        /* \"#utility.yul\":5768:5867   */\n    tag_146:\n        /* \"#utility.yul\":5820:5826   */\n      0x00\n        /* \"#utility.yul\":5854:5859   */\n      dup2\n        /* \"#utility.yul\":5848:5860   */\n      mload\n        /* \"#utility.yul\":5838:5860   */\n      swap1\n      pop\n        /* \"#utility.yul\":5768:5867   */\n      swap2\n      swap1\n      pop\n      jump\t// out\n        /* \"#utility.yul\":5873:6042   */\n    tag_147:\n        /* \"#utility.yul\":5957:5968   */\n      0x00\n        /* \"#utility.yul\":5991:5997   */\n      dup3\n        /* \"#utility.yul\":5986:5989   */\n      dup3\n        /* \"#utility.yul\":5979:5998   */\n      mstore\n        /* \"#utility.yul\":6031:6035   */\n      0x20\n        /* \"#utility.yul\":6026:6029   */\n      dup3\n        /* \"#utility.yul\":6022:6036   */\n      add\n        /* \"#utility.yul\":6007:6036   */\n      swap1\n      pop\n        /* \"#utility.yul\":5873:6042   */\n      swap3\n      swap2\n      pop\n      pop\n      jump\t// out\n        /* \"#utility.yul\":6048:6294   */\n    tag_148:\n        /* \"#utility.yul\":6129:6130   */\n      0x00\n        /* \"#utility.yul\":6139:6252   */\n    tag_249:\n        /* \"#utility.yul\":6153:6159   */\n      dup4\n        /* \"#utility.yul\":6150:6151   */\n      dup2\n        /* \"#utility.yul\":6147:6160   */\n      lt\n        /* \"#utility.yul\":6139:6252   */\n      iszero\n      tag_251\n      jumpi\n        /* \"#utility.yul\":6238:6239   */\n      dup1\n        /* \"#utility.yul\":6233:6236   */\n      dup3\n        /* \"#utility.yul\":6229:6240   */\n      add\n        /* \"#utility.yul\":6223:6241   */\n      mload\n        /* \"#utility.yul\":6219:6220   */\n      dup2\n        /* \"#utility.yul\":6214:6217   */\n      dup5\n        /* \"#utility.yul\":6210:6221   */\n      add\n        /* \"#utility.yul\":6203:6242   */\n      mstore\n        /* \"#utility.yul\":6175:6177   */\n      0x20\n        /* \"#utility.yul\":6172:6173   */\n      dup2\n        /* \"#utility.yul\":6168:6178   */\n      add\n        /* \"#utility.yul\":6163:6178   */\n      swap1\n      pop\n        /* \"#utility.yul\":6139:6252   */\n      jump(tag_249)\n    tag_251:\n        /* \"#utility.yul\":6286:6287   */\n      0x00\n        /* \"#utility.yul\":6277:6283   */\n      dup5\n        /* \"#utility.yul\":6272:6275   */\n      dup5\n        /* \"#utility.yul\":6268:6284   */\n      add\n        /* \"#utility.yul\":6261:6288   */\n      mstore\n        /* \"#utility.yul\":6110:6294   */\n      pop\n        /* \"#utility.yul\":6048:6294   */\n      pop\n      pop\n      pop\n      jump\t// out\n        /* \"#utility.yul\":6300:6677   */\n    tag_149:\n        /* \"#utility.yul\":6388:6391   */\n      0x00\n        /* \"#utility.yul\":6416:6455   */\n      tag_253\n        /* \"#utility.yul\":6449:6454   */\n      dup3\n        /* \"#utility.yul\":6416:6455   */\n      tag_146\n      jump\t// in\n    tag_253:\n        /* \"#utility.yul\":6471:6542   */\n      tag_254\n        /* \"#utility.yul\":6535:6541   */\n      dup2\n        /* \"#utility.yul\":6530:6533   */\n      dup6\n        /* \"#utility.yul\":6471:6542   */\n      tag_147\n      jump\t// in\n    tag_254:\n        /* \"#utility.yul\":6464:6542   */\n      swap4\n      pop\n        /* \"#utility.yul\":6551:6616   */\n      tag_255\n        /* \"#utility.yul\":6609:6615   */\n      dup2\n        /* \"#utility.yul\":6604:6607   */\n      dup6\n        /* \"#utility.yul\":6597:6601   */\n      0x20\n        /* \"#utility.yul\":6590:6595   */\n      dup7\n        /* \"#utility.yul\":6586:6602   */\n      add\n        /* \"#utility.yul\":6551:6616   */\n      tag_148\n      jump\t// in\n    tag_255:\n        /* \"#utility.yul\":6641:6670   */\n      tag_256\n        /* \"#utility.yul\":6663:6669   */\n      dup2\n        /* \"#utility.yul\":6641:6670   */\n      tag_137\n      jump\t// in\n    tag_256:\n        /* \"#utility.yul\":6636:6639   */\n      dup5\n        /* \"#utility.yul\":6632:6671   */\n      add\n        /* \"#utility.yul\":6625:6671   */\n      swap2\n      pop\n        /* \"#utility.yul\":6392:6677   */\n      pop\n        /* \"#utility.yul\":6300:6677   */\n      swap3\n      swap2\n      pop\n      pop\n      jump\t// out\n        /* \"#utility.yul\":6683:7418   */\n    tag_28:\n        /* \"#utility.yul\":6900:6904   */\n      0x00\n        /* \"#utility.yul\":6938:6941   */\n      0x80\n        /* \"#utility.yul\":6927:6936   */\n      dup3\n        /* \"#utility.yul\":6923:6942   */\n      add\n        /* \"#utility.yul\":6915:6942   */\n      swap1\n      pop\n        /* \"#utility.yul\":6952:7023   */\n      tag_258\n        /* \"#utility.yul\":7020:7021   */\n      0x00\n        /* \"#utility.yul\":7009:7018   */\n      dup4\n        /* \"#utility.yul\":7005:7022   */\n      add\n        /* \"#utility.yul\":6996:7002   */\n      dup8\n        /* \"#utility.yul\":6952:7023   */\n      tag_145\n      jump\t// in\n    tag_258:\n        /* \"#utility.yul\":7070:7079   */\n      dup2\n        /* \"#utility.yul\":7064:7068   */\n      dup2\n        /* \"#utility.yul\":7060:7080   */\n      sub\n        /* \"#utility.yul\":7055:7057   */\n      0x20\n        /* \"#utility.yul\":7044:7053   */\n      dup4\n        /* \"#utility.yul\":7040:7058   */\n      add\n        /* \"#utility.yul\":7033:7081   */\n      mstore\n        /* \"#utility.yul\":7098:7176   */\n      tag_259\n        /* \"#utility.yul\":7171:7175   */\n      dup2\n        /* \"#utility.yul\":7162:7168   */\n      dup7\n        /* \"#utility.yul\":7098:7176   */\n      tag_149\n      jump\t// in\n    tag_259:\n        /* \"#utility.yul\":7090:7176   */\n      swap1\n      pop\n        /* \"#utility.yul\":7186:7258   */\n      tag_260\n        /* \"#utility.yul\":7254:7256   */\n      0x40\n        /* \"#utility.yul\":7243:7252   */\n      dup4\n        /* \"#utility.yul\":7239:7257   */\n      add\n        /* \"#utility.yul\":7230:7236   */\n      dup6\n        /* \"#utility.yul\":7186:7258   */\n      tag_145\n      jump\t// in\n    tag_260:\n        /* \"#utility.yul\":7305:7314   */\n      dup2\n        /* \"#utility.yul\":7299:7303   */\n      dup2\n        /* \"#utility.yul\":7295:7315   */\n      sub\n        /* \"#utility.yul\":7290:7292   */\n      0x60\n        /* \"#utility.yul\":7279:7288   */\n      dup4\n        /* \"#utility.yul\":7275:7293   */\n      add\n        /* \"#utility.yul\":7268:7316   */\n      mstore\n        /* \"#utility.yul\":7333:7411   */\n      tag_261\n        /* \"#utility.yul\":7406:7410   */\n      dup2\n        /* \"#utility.yul\":7397:7403   */\n      dup5\n        /* \"#utility.yul\":7333:7411   */\n      tag_149\n      jump\t// in\n    tag_261:\n        /* \"#utility.yul\":7325:7411   */\n      swap1\n      pop\n        /* \"#utility.yul\":6683:7418   */\n      swap6\n      swap5\n      pop\n      pop\n      pop\n      pop\n      pop\n      jump\t// out\n        /* \"#utility.yul\":7424:7542   */\n    tag_150:\n        /* \"#utility.yul\":7511:7535   */\n      tag_263\n        /* \"#utility.yul\":7529:7534   */\n      dup2\n        /* \"#utility.yul\":7511:7535   */\n      tag_127\n      jump\t// in\n    tag_263:\n        /* \"#utility.yul\":7506:7509   */\n      dup3\n        /* \"#utility.yul\":7499:7536   */\n      mstore\n        /* \"#utility.yul\":7424:7542   */\n      pop\n      pop\n      jump\t// out\n        /* \"#utility.yul\":7548:7770   */\n    tag_32:\n        /* \"#utility.yul\":7641:7645   */\n      0x00\n        /* \"#utility.yul\":7679:7681   */\n      0x20\n        /* \"#utility.yul\":7668:7677   */\n      dup3\n        /* \"#utility.yul\":7664:7682   */\n      add\n        /* \"#utility.yul\":7656:7682   */\n      swap1\n      pop\n        /* \"#utility.yul\":7692:7763   */\n      tag_265\n        /* \"#utility.yul\":7760:7761   */\n      0x00\n        /* \"#utility.yul\":7749:7758   */\n      dup4\n        /* \"#utility.yul\":7745:7762   */\n      add\n        /* \"#utility.yul\":7736:7742   */\n      dup5\n        /* \"#utility.yul\":7692:7763   */\n      tag_150\n      jump\t// in\n    tag_265:\n        /* \"#utility.yul\":7548:7770   */\n      swap3\n      swap2\n      pop\n      pop\n      jump\t// out\n        /* \"#utility.yul\":7776:7998   */\n    tag_39:\n        /* \"#utility.yul\":7869:7873   */\n      0x00\n        /* \"#utility.yul\":7907:7909   */\n      0x20\n        /* \"#utility.yul\":7896:7905   */\n      dup3\n        /* \"#utility.yul\":7892:7910   */\n      add\n        /* \"#utility.yul\":7884:7910   */\n      swap1\n      pop\n        /* \"#utility.yul\":7920:7991   */\n      tag_267\n        /* \"#utility.yul\":7988:7989   */\n      0x00\n        /* \"#utility.yul\":7977:7986   */\n      dup4\n        /* \"#utility.yul\":7973:7990   */\n      add\n        /* \"#utility.yul\":7964:7970   */\n      dup5\n        /* \"#utility.yul\":7920:7991   */\n      tag_145\n      jump\t// in\n    tag_267:\n        /* \"#utility.yul\":7776:7998   */\n      swap3\n      swap2\n      pop\n      pop\n      jump\t// out\n        /* \"#utility.yul\":8004:8478   */\n    tag_45:\n        /* \"#utility.yul\":8072:8078   */\n      0x00\n        /* \"#utility.yul\":8080:8086   */\n      dup1\n        /* \"#utility.yul\":8129:8131   */\n      0x40\n        /* \"#utility.yul\":8117:8126   */\n      dup4\n        /* \"#utility.yul\":8108:8115   */\n      dup6\n        /* \"#utility.yul\":8104:8127   */\n      sub\n        /* \"#utility.yul\":8100:8132   */\n      slt\n        /* \"#utility.yul\":8097:8216   */\n      iszero\n      tag_269\n      jumpi\n        /* \"#utility.yul\":8135:8214   */\n      tag_270\n      tag_124\n      jump\t// in\n    tag_270:\n        /* \"#utility.yul\":8097:8216   */\n    tag_269:\n        /* \"#utility.yul\":8255:8256   */\n      0x00\n        /* \"#utility.yul\":8280:8333   */\n      tag_271\n        /* \"#utility.yul\":8325:8332   */\n      dup6\n        /* \"#utility.yul\":8316:8322   */\n      dup3\n        /* \"#utility.yul\":8305:8314   */\n      dup7\n        /* \"#utility.yul\":8301:8323   */\n      add\n        /* \"#utility.yul\":8280:8333   */\n      tag_134\n      jump\t// in\n    tag_271:\n        /* \"#utility.yul\":8270:8333   */\n      swap3\n      pop\n        /* \"#utility.yul\":8226:8343   */\n      pop\n        /* \"#utility.yul\":8382:8384   */\n      0x20\n        /* \"#utility.yul\":8408:8461   */\n      tag_272\n        /* \"#utility.yul\":8453:8460   */\n      dup6\n        /* \"#utility.yul\":8444:8450   */\n      dup3\n        /* \"#utility.yul\":8433:8442   */\n      dup7\n        /* \"#utility.yul\":8429:8451   */\n      add\n        /* \"#utility.yul\":8408:8461   */\n      tag_129\n      jump\t// in\n    tag_272:\n        /* \"#utility.yul\":8398:8461   */\n      swap2\n      pop\n        /* \"#utility.yul\":8353:8471   */\n      pop\n        /* \"#utility.yul\":8004:8478   */\n      swap3\n      pop\n      swap3\n      swap1\n      pop\n      jump\t// out\n        /* \"#utility.yul\":8484:8716   */\n    tag_151:\n        /* \"#utility.yul\":8624:8658   */\n      0x48616e79612061646d696e2079616e67206461706174206d656c616b756b616e\n        /* \"#utility.yul\":8620:8621   */\n      0x00\n        /* \"#utility.yul\":8612:8618   */\n      dup3\n        /* \"#utility.yul\":8608:8622   */\n      add\n        /* \"#utility.yul\":8601:8659   */\n      mstore\n        /* \"#utility.yul\":8693:8708   */\n      0x2074696e64616b616e20696e6900000000000000000000000000000000000000\n        /* \"#utility.yul\":8688:8690   */\n      0x20\n        /* \"#utility.yul\":8680:8686   */\n      dup3\n        /* \"#utility.yul\":8676:8691   */\n      add\n        /* \"#utility.yul\":8669:8709   */\n      mstore\n        /* \"#utility.yul\":8484:8716   */\n      pop\n      jump\t// out\n        /* \"#utility.yul\":8722:9088   */\n    tag_152:\n        /* \"#utility.yul\":8864:8867   */\n      0x00\n        /* \"#utility.yul\":8885:8952   */\n      tag_275\n        /* \"#utility.yul\":8949:8951   */\n      0x2d\n        /* \"#utility.yul\":8944:8947   */\n      dup4\n        /* \"#utility.yul\":8885:8952   */\n      tag_147\n      jump\t// in\n    tag_275:\n        /* \"#utility.yul\":8878:8952   */\n      swap2\n      pop\n        /* \"#utility.yul\":8961:9054   */\n      tag_276\n        /* \"#utility.yul\":9050:9053   */\n      dup3\n        /* \"#utility.yul\":8961:9054   */\n      tag_151\n      jump\t// in\n    tag_276:\n        /* \"#utility.yul\":9079:9081   */\n      0x40\n        /* \"#utility.yul\":9074:9077   */\n      dup3\n        /* \"#utility.yul\":9070:9082   */\n      add\n        /* \"#utility.yul\":9063:9082   */\n      swap1\n      pop\n        /* \"#utility.yul\":8722:9088   */\n      swap2\n      swap1\n      pop\n      jump\t// out\n        /* \"#utility.yul\":9094:9513   */\n    tag_55:\n        /* \"#utility.yul\":9260:9264   */\n      0x00\n        /* \"#utility.yul\":9298:9300   */\n      0x20\n        /* \"#utility.yul\":9287:9296   */\n      dup3\n        /* \"#utility.yul\":9283:9301   */\n      add\n        /* \"#utility.yul\":9275:9301   */\n      swap1\n      pop\n        /* \"#utility.yul\":9347:9356   */\n      dup2\n        /* \"#utility.yul\":9341:9345   */\n      dup2\n        /* \"#utility.yul\":9337:9357   */\n      sub\n        /* \"#utility.yul\":9333:9334   */\n      0x00\n        /* \"#utility.yul\":9322:9331   */\n      dup4\n        /* \"#utility.yul\":9318:9335   */\n      add\n        /* \"#utility.yul\":9311:9358   */\n      mstore\n        /* \"#utility.yul\":9375:9506   */\n      tag_278\n        /* \"#utility.yul\":9501:9505   */\n      dup2\n        /* \"#utility.yul\":9375:9506   */\n      tag_152\n      jump\t// in\n    tag_278:\n        /* \"#utility.yul\":9367:9506   */\n      swap1\n      pop\n        /* \"#utility.yul\":9094:9513   */\n      swap2\n      swap1\n      pop\n      jump\t// out\n        /* \"#utility.yul\":9519:9742   */\n    tag_153:\n        /* \"#utility.yul\":9659:9693   */\n      0x42756b752064656e67616e204953424e2079616e672073616d61207375646168\n        /* \"#utility.yul\":9655:9656   */\n      0x00\n        /* \"#utility.yul\":9647:9653   */\n      dup3\n        /* \"#utility.yul\":9643:9657   */\n      add\n        /* \"#utility.yul\":9636:9694   */\n      mstore\n        /* \"#utility.yul\":9728:9734   */\n      0x2061646100000000000000000000000000000000000000000000000000000000\n        /* \"#utility.yul\":9723:9725   */\n      0x20\n        /* \"#utility.yul\":9715:9721   */\n      dup3\n        /* \"#utility.yul\":9711:9726   */\n      add\n        /* \"#utility.yul\":9704:9735   */\n      mstore\n        /* \"#utility.yul\":9519:9742   */\n      pop\n      jump\t// out\n        /* \"#utility.yul\":9748:10114   */\n    tag_154:\n        /* \"#utility.yul\":9890:9893   */\n      0x00\n        /* \"#utility.yul\":9911:9978   */\n      tag_281\n        /* \"#utility.yul\":9975:9977   */\n      0x24\n        /* \"#utility.yul\":9970:9973   */\n      dup4\n        /* \"#utility.yul\":9911:9978   */\n      tag_147\n      jump\t// in\n    tag_281:\n        /* \"#utility.yul\":9904:9978   */\n      swap2\n      pop\n        /* \"#utility.yul\":9987:10080   */\n      tag_282\n        /* \"#utility.yul\":10076:10079   */\n      dup3\n        /* \"#utility.yul\":9987:10080   */\n      tag_153\n      jump\t// in\n    tag_282:\n        /* \"#utility.yul\":10105:10107   */\n      0x40\n        /* \"#utility.yul\":10100:10103   */\n      dup3\n        /* \"#utility.yul\":10096:10108   */\n      add\n        /* \"#utility.yul\":10089:10108   */\n      swap1\n      pop\n        /* \"#utility.yul\":9748:10114   */\n      swap2\n      swap1\n      pop\n      jump\t// out\n        /* \"#utility.yul\":10120:10539   */\n    tag_59:\n        /* \"#utility.yul\":10286:10290   */\n      0x00\n        /* \"#utility.yul\":10324:10326   */\n      0x20\n        /* \"#utility.yul\":10313:10322   */\n      dup3\n        /* \"#utility.yul\":10309:10327   */\n      add\n        /* \"#utility.yul\":10301:10327   */\n      swap1\n      pop\n        /* \"#utility.yul\":10373:10382   */\n      dup2\n        /* \"#utility.yul\":10367:10371   */\n      dup2\n        /* \"#utility.yul\":10363:10383   */\n      sub\n        /* \"#utility.yul\":10359:10360   */\n      0x00\n        /* \"#utility.yul\":10348:10357   */\n      dup4\n        /* \"#utility.yul\":10344:10361   */\n      add\n        /* \"#utility.yul\":10337:10384   */\n      mstore\n        /* \"#utility.yul\":10401:10532   */\n      tag_284\n        /* \"#utility.yul\":10527:10531   */\n      dup2\n        /* \"#utility.yul\":10401:10532   */\n      tag_154\n      jump\t// in\n    tag_284:\n        /* \"#utility.yul\":10393:10532   */\n      swap1\n      pop\n        /* \"#utility.yul\":10120:10539   */\n      swap2\n      swap1\n      pop\n      jump\t// out\n        /* \"#utility.yul\":10545:10725   */\n    tag_155:\n        /* \"#utility.yul\":10593:10670   */\n      0x4e487b7100000000000000000000000000000000000000000000000000000000\n        /* \"#utility.yul\":10590:10591   */\n      0x00\n        /* \"#utility.yul\":10583:10671   */\n      mstore\n        /* \"#utility.yul\":10690:10694   */\n      0x22\n        /* \"#utility.yul\":10687:10688   */\n      0x04\n        /* \"#utility.yul\":10680:10695   */\n      mstore\n        /* \"#utility.yul\":10714:10718   */\n      0x24\n        /* \"#utility.yul\":10711:10712   */\n      0x00\n        /* \"#utility.yul\":10704:10719   */\n      revert\n        /* \"#utility.yul\":10731:11051   */\n    tag_68:\n        /* \"#utility.yul\":10775:10781   */\n      0x00\n        /* \"#utility.yul\":10812:10813   */\n      0x02\n        /* \"#utility.yul\":10806:10810   */\n      dup3\n        /* \"#utility.yul\":10802:10814   */\n      div\n        /* \"#utility.yul\":10792:10814   */\n      swap1\n      pop\n        /* \"#utility.yul\":10859:10860   */\n      0x01\n        /* \"#utility.yul\":10853:10857   */\n      dup3\n        /* \"#utility.yul\":10849:10861   */\n      and\n        /* \"#utility.yul\":10880:10898   */\n      dup1\n        /* \"#utility.yul\":10870:10951   */\n      tag_287\n      jumpi\n        /* \"#utility.yul\":10936:10940   */\n      0x7f\n        /* \"#utility.yul\":10928:10934   */\n      dup3\n        /* \"#utility.yul\":10924:10941   */\n      and\n        /* \"#utility.yul\":10914:10941   */\n      swap2\n      pop\n        /* \"#utility.yul\":10870:10951   */\n    tag_287:\n        /* \"#utility.yul\":10998:11000   */\n      0x20\n        /* \"#utility.yul\":10990:10996   */\n      dup3\n        /* \"#utility.yul\":10987:11001   */\n      lt\n        /* \"#utility.yul\":10967:10985   */\n      dup2\n        /* \"#utility.yul\":10964:11002   */\n      sub\n        /* \"#utility.yul\":10961:11045   */\n      tag_288\n      jumpi\n        /* \"#utility.yul\":11017:11035   */\n      tag_289\n      tag_155\n      jump\t// in\n    tag_289:\n        /* \"#utility.yul\":10961:11045   */\n    tag_288:\n        /* \"#utility.yul\":10782:11051   */\n      pop\n        /* \"#utility.yul\":10731:11051   */\n      swap2\n      swap1\n      pop\n      jump\t// out\n        /* \"#utility.yul\":11057:11198   */\n    tag_156:\n        /* \"#utility.yul\":11106:11110   */\n      0x00\n        /* \"#utility.yul\":11129:11132   */\n      dup2\n        /* \"#utility.yul\":11121:11132   */\n      swap1\n      pop\n        /* \"#utility.yul\":11152:11155   */\n      dup2\n        /* \"#utility.yul\":11149:11150   */\n      0x00\n        /* \"#utility.yul\":11142:11156   */\n      mstore\n        /* \"#utility.yul\":11186:11190   */\n      0x20\n        /* \"#utility.yul\":11183:11184   */\n      0x00\n        /* \"#utility.yul\":11173:11191   */\n      keccak256\n        /* \"#utility.yul\":11165:11191   */\n      swap1\n      pop\n        /* \"#utility.yul\":11057:11198   */\n      swap2\n      swap1\n      pop\n      jump\t// out\n        /* \"#utility.yul\":11204:11297   */\n    tag_157:\n        /* \"#utility.yul\":11241:11247   */\n      0x00\n        /* \"#utility.yul\":11288:11290   */\n      0x20\n        /* \"#utility.yul\":11283:11285   */\n      0x1f\n        /* \"#utility.yul\":11276:11281   */\n      dup4\n        /* \"#utility.yul\":11272:11286   */\n      add\n        /* \"#utility.yul\":11268:11291   */\n      div\n        /* \"#utility.yul\":11258:11291   */\n      swap1\n      pop\n        /* \"#utility.yul\":11204:11297   */\n      swap2\n      swap1\n      pop\n      jump\t// out\n        /* \"#utility.yul\":11303:11410   */\n    tag_158:\n        /* \"#utility.yul\":11347:11355   */\n      0x00\n        /* \"#utility.yul\":11397:11402   */\n      dup3\n        /* \"#utility.yul\":11391:11395   */\n      dup3\n        /* \"#utility.yul\":11387:11403   */\n      shl\n        /* \"#utility.yul\":11366:11403   */\n      swap1\n      pop\n        /* \"#utility.yul\":11303:11410   */\n      swap3\n      swap2\n      pop\n      pop\n      jump\t// out\n        /* \"#utility.yul\":11416:11809   */\n    tag_159:\n        /* \"#utility.yul\":11485:11491   */\n      0x00\n        /* \"#utility.yul\":11535:11536   */\n      0x08\n        /* \"#utility.yul\":11523:11533   */\n      dup4\n        /* \"#utility.yul\":11519:11537   */\n      mul\n        /* \"#utility.yul\":11558:11655   */\n      tag_294\n        /* \"#utility.yul\":11588:11654   */\n      0xffffffffffffffffffffffffffffffffffffffffffffffffffffffffffffffff\n        /* \"#utility.yul\":11577:11586   */\n      dup3\n        /* \"#utility.yul\":11558:11655   */\n      tag_158\n      jump\t// in\n    tag_294:\n        /* \"#utility.yul\":11676:11715   */\n      tag_295\n        /* \"#utility.yul\":11706:11714   */\n      dup7\n        /* \"#utility.yul\":11695:11704   */\n      dup4\n        /* \"#utility.yul\":11676:11715   */\n      tag_158\n      jump\t// in\n    tag_295:\n        /* \"#utility.yul\":11664:11715   */\n      swap6\n      pop\n        /* \"#utility.yul\":11748:11752   */\n      dup1\n        /* \"#utility.yul\":11744:11753   */\n      not\n        /* \"#utility.yul\":11737:11742   */\n      dup5\n        /* \"#utility.yul\":11733:11754   */\n      and\n        /* \"#utility.yul\":11724:11754   */\n      swap4\n      pop\n        /* \"#utility.yul\":11797:11801   */\n      dup1\n        /* \"#utility.yul\":11787:11795   */\n      dup7\n        /* \"#utility.yul\":11783:11802   */\n      and\n        /* \"#utility.yul\":11776:11781   */\n      dup5\n        /* \"#utility.yul\":11773:11803   */\n      or\n        /* \"#utility.yul\":11763:11803   */\n      swap3\n      pop\n        /* \"#utility.yul\":11492:11809   */\n      pop\n      pop\n        /* \"#utility.yul\":11416:11809   */\n      swap4\n      swap3\n      pop\n      pop\n      pop\n      jump\t// out\n        /* \"#utility.yul\":11815:11875   */\n    tag_160:\n        /* \"#utility.yul\":11843:11846   */\n      0x00\n        /* \"#utility.yul\":11864:11869   */\n      dup2\n        /* \"#utility.yul\":11857:11869   */\n      swap1\n      pop\n        /* \"#utility.yul\":11815:11875   */\n      swap2\n      swap1\n      pop\n      jump\t// out\n        /* \"#utility.yul\":11881:12023   */\n    tag_161:\n        /* \"#utility.yul\":11931:11940   */\n      0x00\n        /* \"#utility.yul\":11964:12017   */\n      tag_298\n        /* \"#utility.yul\":11982:12016   */\n      tag_299\n        /* \"#utility.yul\":11991:12015   */\n      tag_300\n        /* \"#utility.yul\":12009:12014   */\n      dup5\n        /* \"#utility.yul\":11991:12015   */\n      tag_132\n      jump\t// in\n    tag_300:\n        /* \"#utility.yul\":11982:12016   */\n      tag_160\n      jump\t// in\n    tag_299:\n        /* \"#utility.yul\":11964:12017   */\n      tag_132\n      jump\t// in\n    tag_298:\n        /* \"#utility.yul\":11951:12017   */\n      swap1\n      pop\n        /* \"#utility.yul\":11881:12023   */\n      swap2\n      swap1\n      pop\n      jump\t// out\n        /* \"#utility.yul\":12029:12104   */\n    tag_162:\n        /* \"#utility.yul\":12072:12075   */\n      0x00\n        /* \"#utility.yul\":12093:12098   */\n      dup2\n        /* \"#utility.yul\":12086:12098   */\n      swap1\n      pop\n        /* \"#utility.yul\":12029:12104   */\n      swap2\n      swap1\n      pop\n      jump\t// out\n        /* \"#utility.yul\":12110:12379   */\n    tag_163:\n        /* \"#utility.yul\":12220:12259   */\n      tag_303\n        /* \"#utility.yul\":12251:12258   */\n      dup4\n        /* \"#utility.yul\":12220:12259   */\n      tag_161\n      jump\t// in\n    tag_303:\n        /* \"#utility.yul\":12281:12372   */\n      tag_304\n        /* \"#utility.yul\":12330:12371   */\n      tag_305\n        /* \"#utility.yul\":12354:12370   */\n      dup3\n        /* \"#utility.yul\":12330:12371   */\n      tag_162\n      jump\t// in\n    tag_305:\n        /* \"#utility.yul\":12322:12328   */\n      dup5\n        /* \"#utility.yul\":12315:12319   */\n      dup5\n        /* \"#utility.yul\":12309:12320   */\n      sload\n        /* \"#utility.yul\":12281:12372   */\n      tag_159\n      jump\t// in\n    tag_304:\n        /* \"#utility.yul\":12275:12279   */\n      dup3\n        /* \"#utility.yul\":12268:12373   */\n      sstore\n        /* \"#utility.yul\":12186:12379   */\n      pop\n        /* \"#utility.yul\":12110:12379   */\n      pop\n      pop\n      pop\n      jump\t// out\n        /* \"#utility.yul\":12385:12458   */\n    tag_164:\n        /* \"#utility.yul\":12430:12433   */\n      0x00\n        /* \"#utility.yul\":12385:12458   */\n      swap1\n      jump\t// out\n        /* \"#utility.yul\":12464:12653   */\n    tag_165:\n        /* \"#utility.yul\":12541:12573   */\n      tag_308\n      tag_164\n      jump\t// in\n    tag_308:\n        /* \"#utility.yul\":12582:12647   */\n      tag_309\n        /* \"#utility.yul\":12640:12646   */\n      dup2\n        /* \"#utility.yul\":12632:12638   */\n      dup5\n        /* \"#utility.yul\":12626:12630   */\n      dup5\n        /* \"#utility.yul\":12582:12647   */\n      tag_163\n      jump\t// in\n    tag_309:\n        /* \"#utility.yul\":12517:12653   */\n      pop\n        /* \"#utility.yul\":12464:12653   */\n      pop\n      pop\n      jump\t// out\n        /* \"#utility.yul\":12659:12845   */\n    tag_166:\n        /* \"#utility.yul\":12719:12839   */\n    tag_311:\n        /* \"#utility.yul\":12736:12739   */\n      dup2\n        /* \"#utility.yul\":12729:12734   */\n      dup2\n        /* \"#utility.yul\":12726:12740   */\n      lt\n        /* \"#utility.yul\":12719:12839   */\n      iszero\n      tag_313\n      jumpi\n        /* \"#utility.yul\":12790:12829   */\n      tag_314\n        /* \"#utility.yul\":12827:12828   */\n      0x00\n        /* \"#utility.yul\":12820:12825   */\n      dup3\n        /* \"#utility.yul\":12790:12829   */\n      tag_165\n      jump\t// in\n    tag_314:\n        /* \"#utility.yul\":12763:12764   */\n      0x01\n        /* \"#utility.yul\":12756:12761   */\n      dup2\n        /* \"#utility.yul\":12752:12765   */\n      add\n        /* \"#utility.yul\":12743:12765   */\n      swap1\n      pop\n        /* \"#utility.yul\":12719:12839   */\n      jump(tag_311)\n    tag_313:\n        /* \"#utility.yul\":12659:12845   */\n      pop\n      pop\n      jump\t// out\n        /* \"#utility.yul\":12851:13394   */\n    tag_167:\n        /* \"#utility.yul\":12952:12954   */\n      0x1f\n        /* \"#utility.yul\":12947:12950   */\n      dup3\n        /* \"#utility.yul\":12944:12955   */\n      gt\n        /* \"#utility.yul\":12941:13387   */\n      iszero\n      tag_316\n      jumpi\n        /* \"#utility.yul\":12986:13024   */\n      tag_317\n        /* \"#utility.yul\":13018:13023   */\n      dup2\n        /* \"#utility.yul\":12986:13024   */\n      tag_156\n      jump\t// in\n    tag_317:\n        /* \"#utility.yul\":13070:13099   */\n      tag_318\n        /* \"#utility.yul\":13088:13098   */\n      dup5\n        /* \"#utility.yul\":13070:13099   */\n      tag_157\n      jump\t// in\n    tag_318:\n        /* \"#utility.yul\":13060:13068   */\n      dup2\n        /* \"#utility.yul\":13056:13100   */\n      add\n        /* \"#utility.yul\":13253:13255   */\n      0x20\n        /* \"#utility.yul\":13241:13251   */\n      dup6\n        /* \"#utility.yul\":13238:13256   */\n      lt\n        /* \"#utility.yul\":13235:13284   */\n      iszero\n      tag_319\n      jumpi\n        /* \"#utility.yul\":13274:13282   */\n      dup2\n        /* \"#utility.yul\":13259:13282   */\n      swap1\n      pop\n        /* \"#utility.yul\":13235:13284   */\n    tag_319:\n        /* \"#utility.yul\":13297:13377   */\n      tag_320\n        /* \"#utility.yul\":13353:13375   */\n      tag_321\n        /* \"#utility.yul\":13371:13374   */\n      dup6\n        /* \"#utility.yul\":13353:13375   */\n      tag_157\n      jump\t// in\n    tag_321:\n        /* \"#utility.yul\":13343:13351   */\n      dup4\n        /* \"#utility.yul\":13339:13376   */\n      add\n        /* \"#utility.yul\":13326:13337   */\n      dup3\n        /* \"#utility.yul\":13297:13377   */\n      tag_166\n      jump\t// in\n    tag_320:\n        /* \"#utility.yul\":12956:13387   */\n      pop\n      pop\n        /* \"#utility.yul\":12941:13387   */\n    tag_316:\n        /* \"#utility.yul\":12851:13394   */\n      pop\n      pop\n      pop\n      jump\t// out\n        /* \"#utility.yul\":13400:13517   */\n    tag_168:\n        /* \"#utility.yul\":13454:13462   */\n      0x00\n        /* \"#utility.yul\":13504:13509   */\n      dup3\n        /* \"#utility.yul\":13498:13502   */\n      dup3\n        /* \"#utility.yul\":13494:13510   */\n      shr\n        /* \"#utility.yul\":13473:13510   */\n      swap1\n      pop\n        /* \"#utility.yul\":13400:13517   */\n      swap3\n      swap2\n      pop\n      pop\n      jump\t// out\n        /* \"#utility.yul\":13523:13692   */\n    tag_169:\n        /* \"#utility.yul\":13567:13573   */\n      0x00\n        /* \"#utility.yul\":13600:13651   */\n      tag_324\n        /* \"#utility.yul\":13648:13649   */\n      0x00\n        /* \"#utility.yul\":13644:13650   */\n      not\n        /* \"#utility.yul\":13636:13641   */\n      dup5\n        /* \"#utility.yul\":13633:13634   */\n      0x08\n        /* \"#utility.yul\":13629:13642   */\n      mul\n        /* \"#utility.yul\":13600:13651   */\n      tag_168\n      jump\t// in\n    tag_324:\n        /* \"#utility.yul\":13596:13652   */\n      not\n        /* \"#utility.yul\":13681:13685   */\n      dup1\n        /* \"#utility.yul\":13675:13679   */\n      dup4\n        /* \"#utility.yul\":13671:13686   */\n      and\n        /* \"#utility.yul\":13661:13686   */\n      swap2\n      pop\n        /* \"#utility.yul\":13574:13692   */\n      pop\n        /* \"#utility.yul\":13523:13692   */\n      swap3\n      swap2\n      pop\n      pop\n      jump\t// out\n        /* \"#utility.yul\":13697:13992   */\n    tag_170:\n        /* \"#utility.yul\":13773:13777   */\n      0x00\n        /* \"#utility.yul\":13919:13948   */\n      tag_326\n        /* \"#utility.yul\":13944:13947   */\n      dup4\n        /* \"#utility.yul\":13938:13942   */\n      dup4\n        /* \"#utility.yul\":13919:13948   */\n      tag_169\n      jump\t// in\n    tag_326:\n        /* \"#utility.yul\":13911:13948   */\n      swap2\n      pop\n        /* \"#utility.yul\":13981:13984   */\n      dup3\n        /* \"#utility.yul\":13978:13979   */\n      0x02\n        /* \"#utility.yul\":13974:13985   */\n      mul\n        /* \"#utility.yul\":13968:13972   */\n      dup3\n        /* \"#utility.yul\":13965:13986   */\n      or\n        /* \"#utility.yul\":13957:13986   */\n      swap1\n      pop\n        /* \"#utility.yul\":13697:13992   */\n      swap3\n      swap2\n      pop\n      pop\n      jump\t// out\n        /* \"#utility.yul\":13997:15392   */\n    tag_61:\n        /* \"#utility.yul\":14114:14151   */\n      tag_328\n        /* \"#utility.yul\":14147:14150   */\n      dup3\n        /* \"#utility.yul\":14114:14151   */\n      tag_146\n      jump\t// in\n    tag_328:\n        /* \"#utility.yul\":14216:14234   */\n      0xffffffffffffffff\n        /* \"#utility.yul\":14208:14214   */\n      dup2\n        /* \"#utility.yul\":14205:14235   */\n      gt\n        /* \"#utility.yul\":14202:14258   */\n      iszero\n      tag_329\n      jumpi\n        /* \"#utility.yul\":14238:14256   */\n      tag_330\n      tag_138\n      jump\t// in\n    tag_330:\n        /* \"#utility.yul\":14202:14258   */\n    tag_329:\n        /* \"#utility.yul\":14282:14320   */\n      tag_331\n        /* \"#utility.yul\":14314:14318   */\n      dup3\n        /* \"#utility.yul\":14308:14319   */\n      sload\n        /* \"#utility.yul\":14282:14320   */\n      tag_68\n      jump\t// in\n    tag_331:\n        /* \"#utility.yul\":14367:14434   */\n      tag_332\n        /* \"#utility.yul\":14427:14433   */\n      dup3\n        /* \"#utility.yul\":14419:14425   */\n      dup3\n        /* \"#utility.yul\":14413:14417   */\n      dup6\n        /* \"#utility.yul\":14367:14434   */\n      tag_167\n      jump\t// in\n    tag_332:\n        /* \"#utility.yul\":14461:14462   */\n      0x00\n        /* \"#utility.yul\":14485:14489   */\n      0x20\n        /* \"#utility.yul\":14472:14489   */\n      swap1\n      pop\n        /* \"#utility.yul\":14517:14519   */\n      0x1f\n        /* \"#utility.yul\":14509:14515   */\n      dup4\n        /* \"#utility.yul\":14506:14520   */\n      gt\n        /* \"#utility.yul\":14534:14535   */\n      0x01\n        /* \"#utility.yul\":14529:15147   */\n      dup2\n      eq\n      tag_334\n      jumpi\n        /* \"#utility.yul\":15191:15192   */\n      0x00\n        /* \"#utility.yul\":15208:15214   */\n      dup5\n        /* \"#utility.yul\":15205:15282   */\n      iszero\n      tag_335\n      jumpi\n        /* \"#utility.yul\":15257:15266   */\n      dup3\n        /* \"#utility.yul\":15252:15255   */\n      dup8\n        /* \"#utility.yul\":15248:15267   */\n      add\n        /* \"#utility.yul\":15242:15268   */\n      mload\n        /* \"#utility.yul\":15233:15268   */\n      swap1\n      pop\n        /* \"#utility.yul\":15205:15282   */\n    tag_335:\n        /* \"#utility.yul\":15308:15375   */\n      tag_336\n        /* \"#utility.yul\":15368:15374   */\n      dup6\n        /* \"#utility.yul\":15361:15366   */\n      dup3\n        /* \"#utility.yul\":15308:15375   */\n      tag_170\n      jump\t// in\n    tag_336:\n        /* \"#utility.yul\":15302:15306   */\n      dup7\n        /* \"#utility.yul\":15295:15376   */\n      sstore\n        /* \"#utility.yul\":15164:15386   */\n      pop\n        /* \"#utility.yul\":14499:15386   */\n      jump(tag_333)\n        /* \"#utility.yul\":14529:15147   */\n    tag_334:\n        /* \"#utility.yul\":14581:14585   */\n      0x1f\n        /* \"#utility.yul\":14577:14586   */\n      not\n        /* \"#utility.yul\":14569:14575   */\n      dup5\n        /* \"#utility.yul\":14565:14587   */\n      and\n        /* \"#utility.yul\":14615:14652   */\n      tag_337\n        /* \"#utility.yul\":14647:14651   */\n      dup7\n        /* \"#utility.yul\":14615:14652   */\n      tag_156\n      jump\t// in\n    tag_337:\n        /* \"#utility.yul\":14674:14675   */\n      0x00\n        /* \"#utility.yul\":14688:14896   */\n    tag_338:\n        /* \"#utility.yul\":14702:14709   */\n      dup3\n        /* \"#utility.yul\":14699:14700   */\n      dup2\n        /* \"#utility.yul\":14696:14710   */\n      lt\n        /* \"#utility.yul\":14688:14896   */\n      iszero\n      tag_340\n      jumpi\n        /* \"#utility.yul\":14781:14790   */\n      dup5\n        /* \"#utility.yul\":14776:14779   */\n      dup10\n        /* \"#utility.yul\":14772:14791   */\n      add\n        /* \"#utility.yul\":14766:14792   */\n      mload\n        /* \"#utility.yul\":14758:14764   */\n      dup3\n        /* \"#utility.yul\":14751:14793   */\n      sstore\n        /* \"#utility.yul\":14832:14833   */\n      0x01\n        /* \"#utility.yul\":14824:14830   */\n      dup3\n        /* \"#utility.yul\":14820:14834   */\n      add\n        /* \"#utility.yul\":14810:14834   */\n      swap2\n      pop\n        /* \"#utility.yul\":14879:14881   */\n      0x20\n        /* \"#utility.yul\":14868:14877   */\n      dup6\n        /* \"#utility.yul\":14864:14882   */\n      add\n        /* \"#utility.yul\":14851:14882   */\n      swap5\n      pop\n        /* \"#utility.yul\":14725:14729   */\n      0x20\n        /* \"#utility.yul\":14722:14723   */\n      dup2\n        /* \"#utility.yul\":14718:14730   */\n      add\n        /* \"#utility.yul\":14713:14730   */\n      swap1\n      pop\n        /* \"#utility.yul\":14688:14896   */\n      jump(tag_338)\n    tag_340:\n        /* \"#utility.yul\":14924:14930   */\n      dup7\n        /* \"#utility.yul\":14915:14922   */\n      dup4\n        /* \"#utility.yul\":14912:14931   */\n      lt\n        /* \"#utility.yul\":14909:15088   */\n      iszero\n      tag_341\n      jumpi\n        /* \"#utility.yul\":14982:14991   */\n      dup5\n        /* \"#utility.yul\":14977:14980   */\n      dup10\n        /* \"#utility.yul\":14973:14992   */\n      add\n        /* \"#utility.yul\":14967:14993   */\n      mload\n        /* \"#utility.yul\":15025:15073   */\n      tag_342\n        /* \"#utility.yul\":15067:15071   */\n      0x1f\n        /* \"#utility.yul\":15059:15065   */\n      dup10\n        /* \"#utility.yul\":15055:15072   */\n      and\n        /* \"#utility.yul\":15044:15053   */\n      dup3\n        /* \"#utility.yul\":15025:15073   */\n      tag_169\n      jump\t// in\n    tag_342:\n        /* \"#utility.yul\":15017:15023   */\n      dup4\n        /* \"#utility.yul\":15010:15074   */\n      sstore\n        /* \"#utility.yul\":14932:15088   */\n      pop\n        /* \"#utility.yul\":14909:15088   */\n    tag_341:\n        /* \"#utility.yul\":15134:15135   */\n      0x01\n        /* \"#utility.yul\":15130:15131   */\n      0x02\n        /* \"#utility.yul\":15122:15128   */\n      dup9\n        /* \"#utility.yul\":15118:15132   */\n      mul\n        /* \"#utility.yul\":15114:15136   */\n      add\n        /* \"#utility.yul\":15108:15112   */\n      dup9\n        /* \"#utility.yul\":15101:15137   */\n      sstore\n        /* \"#utility.yul\":14536:15147   */\n      pop\n      pop\n      pop\n        /* \"#utility.yul\":14499:15386   */\n    tag_333:\n      pop\n        /* \"#utility.yul\":14089:15392   */\n      pop\n      pop\n      pop\n        /* \"#utility.yul\":13997:15392   */\n      pop\n      pop\n      jump\t// out\n        /* \"#utility.yul\":15398:15578   */\n    tag_171:\n        /* \"#utility.yul\":15446:15523   */\n      0x4e487b7100000000000000000000000000000000000000000000000000000000\n        /* \"#utility.yul\":15443:15444   */\n      0x00\n        /* \"#utility.yul\":15436:15524   */\n      mstore\n        /* \"#utility.yul\":15543:15547   */\n      0x11\n        /* \"#utility.yul\":15540:15541   */\n      0x04\n        /* \"#utility.yul\":15533:15548   */\n      mstore\n        /* \"#utility.yul\":15567:15571   */\n      0x24\n        /* \"#utility.yul\":15564:15565   */\n      0x00\n        /* \"#utility.yul\":15557:15572   */\n      revert\n        /* \"#utility.yul\":15584:15817   */\n    tag_64:\n        /* \"#utility.yul\":15623:15626   */\n      0x00\n        /* \"#utility.yul\":15646:15670   */\n      tag_345\n        /* \"#utility.yul\":15664:15669   */\n      dup3\n        /* \"#utility.yul\":15646:15670   */\n      tag_132\n      jump\t// in\n    tag_345:\n        /* \"#utility.yul\":15637:15670   */\n      swap2\n      pop\n        /* \"#utility.yul\":15692:15758   */\n      0xffffffffffffffffffffffffffffffffffffffffffffffffffffffffffffffff\n        /* \"#utility.yul\":15685:15690   */\n      dup3\n        /* \"#utility.yul\":15682:15759   */\n      sub\n        /* \"#utility.yul\":15679:15782   */\n      tag_346\n      jumpi\n        /* \"#utility.yul\":15762:15780   */\n      tag_347\n      tag_171\n      jump\t// in\n    tag_347:\n        /* \"#utility.yul\":15679:15782   */\n    tag_346:\n        /* \"#utility.yul\":15809:15810   */\n      0x01\n        /* \"#utility.yul\":15802:15807   */\n      dup3\n        /* \"#utility.yul\":15798:15811   */\n      add\n        /* \"#utility.yul\":15791:15811   */\n      swap1\n      pop\n        /* \"#utility.yul\":15584:15817   */\n      swap2\n      swap1\n      pop\n      jump\t// out\n        /* \"#utility.yul\":15823:16447   */\n    tag_66:\n        /* \"#utility.yul\":16012:16016   */\n      0x00\n        /* \"#utility.yul\":16050:16052   */\n      0x60\n        /* \"#utility.yul\":16039:16048   */\n      dup3\n        /* \"#utility.yul\":16035:16053   */\n      add\n        /* \"#utility.yul\":16027:16053   */\n      swap1\n      pop\n        /* \"#utility.yul\":16099:16108   */\n      dup2\n        /* \"#utility.yul\":16093:16097   */\n      dup2\n        /* \"#utility.yul\":16089:16109   */\n      sub\n        /* \"#utility.yul\":16085:16086   */\n      0x00\n        /* \"#utility.yul\":16074:16083   */\n      dup4\n        /* \"#utility.yul\":16070:16087   */\n      add\n        /* \"#utility.yul\":16063:16110   */\n      mstore\n        /* \"#utility.yul\":16127:16205   */\n      tag_349\n        /* \"#utility.yul\":16200:16204   */\n      dup2\n        /* \"#utility.yul\":16191:16197   */\n      dup7\n        /* \"#utility.yul\":16127:16205   */\n      tag_149\n      jump\t// in\n    tag_349:\n        /* \"#utility.yul\":16119:16205   */\n      swap1\n      pop\n        /* \"#utility.yul\":16215:16287   */\n      tag_350\n        /* \"#utility.yul\":16283:16285   */\n      0x20\n        /* \"#utility.yul\":16272:16281   */\n      dup4\n        /* \"#utility.yul\":16268:16286   */\n      add\n        /* \"#utility.yul\":16259:16265   */\n      dup6\n        /* \"#utility.yul\":16215:16287   */\n      tag_145\n      jump\t// in\n    tag_350:\n        /* \"#utility.yul\":16334:16343   */\n      dup2\n        /* \"#utility.yul\":16328:16332   */\n      dup2\n        /* \"#utility.yul\":16324:16344   */\n      sub\n        /* \"#utility.yul\":16319:16321   */\n      0x40\n        /* \"#utility.yul\":16308:16317   */\n      dup4\n        /* \"#utility.yul\":16304:16322   */\n      add\n        /* \"#utility.yul\":16297:16345   */\n      mstore\n        /* \"#utility.yul\":16362:16440   */\n      tag_351\n        /* \"#utility.yul\":16435:16439   */\n      dup2\n        /* \"#utility.yul\":16426:16432   */\n      dup5\n        /* \"#utility.yul\":16362:16440   */\n      tag_149\n      jump\t// in\n    tag_351:\n        /* \"#utility.yul\":16354:16440   */\n      swap1\n      pop\n        /* \"#utility.yul\":15823:16447   */\n      swap5\n      swap4\n      pop\n      pop\n      pop\n      pop\n      jump\t// out\n        /* \"#utility.yul\":16453:16682   */\n    tag_172:\n        /* \"#utility.yul\":16593:16627   */\n      0x42756b752064656e67616e204953424e2079616e6720646974656e74756b616e\n        /* \"#utility.yul\":16589:16590   */\n      0x00\n        /* \"#utility.yul\":16581:16587   */\n      dup3\n        /* \"#utility.yul\":16577:16591   */\n      add\n        /* \"#utility.yul\":16570:16628   */\n      mstore\n        /* \"#utility.yul\":16662:16674   */\n      0x20746964616b2061646100000000000000000000000000000000000000000000\n        /* \"#utility.yul\":16657:16659   */\n      0x20\n        /* \"#utility.yul\":16649:16655   */\n      dup3\n        /* \"#utility.yul\":16645:16660   */\n      add\n        /* \"#utility.yul\":16638:16675   */\n      mstore\n        /* \"#utility.yul\":16453:16682   */\n      pop\n      jump\t// out\n        /* \"#utility.yul\":16688:17054   */\n    tag_173:\n        /* \"#utility.yul\":16830:16833   */\n      0x00\n        /* \"#utility.yul\":16851:16918   */\n      tag_354\n        /* \"#utility.yul\":16915:16917   */\n      0x2a\n        /* \"#utility.yul\":16910:16913   */\n      dup4\n        /* \"#utility.yul\":16851:16918   */\n      tag_147\n      jump\t// in\n    tag_354:\n        /* \"#utility.yul\":16844:16918   */\n      swap2\n      pop\n        /* \"#utility.yul\":16927:17020   */\n      tag_355\n        /* \"#utility.yul\":17016:17019   */\n      dup3\n        /* \"#utility.yul\":16927:17020   */\n      tag_172\n      jump\t// in\n    tag_355:\n        /* \"#utility.yul\":17045:17047   */\n      0x40\n        /* \"#utility.yul\":17040:17043   */\n      dup3\n        /* \"#utility.yul\":17036:17048   */\n      add\n        /* \"#utility.yul\":17029:17048   */\n      swap1\n      pop\n        /* \"#utility.yul\":16688:17054   */\n      swap2\n      swap1\n      pop\n      jump\t// out\n        /* \"#utility.yul\":17060:17479   */\n    tag_84:\n        /* \"#utility.yul\":17226:17230   */\n      0x00\n        /* \"#utility.yul\":17264:17266   */\n      0x20\n        /* \"#utility.yul\":17253:17262   */\n      dup3\n        /* \"#utility.yul\":17249:17267   */\n      add\n        /* \"#utility.yul\":17241:17267   */\n      swap1\n      pop\n        /* \"#utility.yul\":17313:17322   */\n      dup2\n        /* \"#utility.yul\":17307:17311   */\n      dup2\n        /* \"#utility.yul\":17303:17323   */\n      sub\n        /* \"#utility.yul\":17299:17300   */\n      0x00\n        /* \"#utility.yul\":17288:17297   */\n      dup4\n        /* \"#utility.yul\":17284:17301   */\n      add\n        /* \"#utility.yul\":17277:17324   */\n      mstore\n        /* \"#utility.yul\":17341:17472   */\n      tag_357\n        /* \"#utility.yul\":17467:17471   */\n      dup2\n        /* \"#utility.yul\":17341:17472   */\n      tag_173\n      jump\t// in\n    tag_357:\n        /* \"#utility.yul\":17333:17472   */\n      swap1\n      pop\n        /* \"#utility.yul\":17060:17479   */\n      swap2\n      swap1\n      pop\n      jump\t// out\n        /* \"#utility.yul\":17485:17656   */\n    tag_89:\n        /* \"#utility.yul\":17524:17527   */\n      0x00\n        /* \"#utility.yul\":17547:17571   */\n      tag_359\n        /* \"#utility.yul\":17565:17570   */\n      dup3\n        /* \"#utility.yul\":17547:17571   */\n      tag_132\n      jump\t// in\n    tag_359:\n        /* \"#utility.yul\":17538:17571   */\n      swap2\n      pop\n        /* \"#utility.yul\":17593:17597   */\n      0x00\n        /* \"#utility.yul\":17586:17591   */\n      dup3\n        /* \"#utility.yul\":17583:17598   */\n      sub\n        /* \"#utility.yul\":17580:17621   */\n      tag_360\n      jumpi\n        /* \"#utility.yul\":17601:17619   */\n      tag_361\n      tag_171\n      jump\t// in\n    tag_361:\n        /* \"#utility.yul\":17580:17621   */\n    tag_360:\n        /* \"#utility.yul\":17648:17649   */\n      0x01\n        /* \"#utility.yul\":17641:17646   */\n      dup3\n        /* \"#utility.yul\":17637:17650   */\n      sub\n        /* \"#utility.yul\":17630:17650   */\n      swap1\n      pop\n        /* \"#utility.yul\":17485:17656   */\n      swap2\n      swap1\n      pop\n      jump\t// out\n        /* \"#utility.yul\":17662:17904   */\n    tag_174:\n        /* \"#utility.yul\":17802:17836   */\n      0x48616e79612061646d696e2064616e2070656d696c696b2079616e6720646170\n        /* \"#utility.yul\":17798:17799   */\n      0x00\n        /* \"#utility.yul\":17790:17796   */\n      dup3\n        /* \"#utility.yul\":17786:17800   */\n      add\n        /* \"#utility.yul\":17779:17837   */\n      mstore\n        /* \"#utility.yul\":17871:17896   */\n      0x6174206d656e67616b7365732066756e67736920696e69000000000000000000\n        /* \"#utility.yul\":17866:17868   */\n      0x20\n        /* \"#utility.yul\":17858:17864   */\n      dup3\n        /* \"#utility.yul\":17854:17869   */\n      add\n        /* \"#utility.yul\":17847:17897   */\n      mstore\n        /* \"#utility.yul\":17662:17904   */\n      pop\n      jump\t// out\n        /* \"#utility.yul\":17910:18276   */\n    tag_175:\n        /* \"#utility.yul\":18052:18055   */\n      0x00\n        /* \"#utility.yul\":18073:18140   */\n      tag_364\n        /* \"#utility.yul\":18137:18139   */\n      0x37\n        /* \"#utility.yul\":18132:18135   */\n      dup4\n        /* \"#utility.yul\":18073:18140   */\n      tag_147\n      jump\t// in\n    tag_364:\n        /* \"#utility.yul\":18066:18140   */\n      swap2\n      pop\n        /* \"#utility.yul\":18149:18242   */\n      tag_365\n        /* \"#utility.yul\":18238:18241   */\n      dup3\n        /* \"#utility.yul\":18149:18242   */\n      tag_174\n      jump\t// in\n    tag_365:\n        /* \"#utility.yul\":18267:18269   */\n      0x40\n        /* \"#utility.yul\":18262:18265   */\n      dup3\n        /* \"#utility.yul\":18258:18270   */\n      add\n        /* \"#utility.yul\":18251:18270   */\n      swap1\n      pop\n        /* \"#utility.yul\":17910:18276   */\n      swap2\n      swap1\n      pop\n      jump\t// out\n        /* \"#utility.yul\":18282:18701   */\n    tag_105:\n        /* \"#utility.yul\":18448:18452   */\n      0x00\n        /* \"#utility.yul\":18486:18488   */\n      0x20\n        /* \"#utility.yul\":18475:18484   */\n      dup3\n        /* \"#utility.yul\":18471:18489   */\n      add\n        /* \"#utility.yul\":18463:18489   */\n      swap1\n      pop\n        /* \"#utility.yul\":18535:18544   */\n      dup2\n        /* \"#utility.yul\":18529:18533   */\n      dup2\n        /* \"#utility.yul\":18525:18545   */\n      sub\n        /* \"#utility.yul\":18521:18522   */\n      0x00\n        /* \"#utility.yul\":18510:18519   */\n      dup4\n        /* \"#utility.yul\":18506:18523   */\n      add\n        /* \"#utility.yul\":18499:18546   */\n      mstore\n        /* \"#utility.yul\":18563:18694   */\n      tag_367\n        /* \"#utility.yul\":18689:18693   */\n      dup2\n        /* \"#utility.yul\":18563:18694   */\n      tag_175\n      jump\t// in\n    tag_367:\n        /* \"#utility.yul\":18555:18694   */\n      swap1\n      pop\n        /* \"#utility.yul\":18282:18701   */\n      swap2\n      swap1\n      pop\n      jump\t// out\n\n    auxdata: 0xa264697066735822122024544bb713d713d770f2e75c7220ddf34976e55c5f4ef6d79834e9dbbeb5828664736f6c63430008120033\n}\n",
				"bytecode": {
					"linkReferences": {},
					"object": "608060405234801561001057600080fd5b50336000806101000a81548173ffffffffffffffffffffffffffffffffffffffff021916908373ffffffffffffffffffffffffffffffffffffffff16021790555033600160006101000a81548173ffffffffffffffffffffffffffffffffffffffff021916908373ffffffffffffffffffffffffffffffffffffffff160217905550611681806100a16000396000f3fe608060405234801561001057600080fd5b50600436106100935760003560e01c806379302e751161006657806379302e75146101355780637d1a111114610151578063c6f250711461016f578063e4854e651461018b578063f851a440146101be57610093565b806324d7806c146100985780634b9d4169146100c85780634c30b541146100e45780636ebcd2c214610117575b600080fd5b6100b260048036038101906100ad9190610c2f565b6101dc565b6040516100bf9190610c77565b60405180910390f35b6100e260048036038101906100dd9190610e0e565b610236565b005b6100fe60048036038101906100f99190610ead565b6103f0565b60405161010e9493929190610f68565b60405180910390f35b61011f610530565b60405161012c9190610fca565b60405180910390f35b61014f600480360381019061014a9190610ead565b610554565b005b6101596106cb565b6040516101669190610fe5565b60405180910390f35b61018960048036038101906101849190610e0e565b6106d1565b005b6101a560048036038101906101a09190611000565b610873565b6040516101b59493929190610f68565b60405180910390f35b6101c6610b3a565b6040516101d39190610fca565b60405180910390f35b6000600160009054906101000a900473ffffffffffffffffffffffffffffffffffffffff1673ffffffffffffffffffffffffffffffffffffffff168273ffffffffffffffffffffffffffffffffffffffff16149050919050565b600160009054906101000a900473ffffffffffffffffffffffffffffffffffffffff1673ffffffffffffffffffffffffffffffffffffffff163373ffffffffffffffffffffffffffffffffffffffff16146102c6576040517f08c379a00000000000000000000000000000000000000000000000000000000081526004016102bd906110b2565b60405180910390fd5b600060026000868152602001908152602001600020600001541461031f576040517f08c379a000000000000000000000000000000000000000000000000000000000815260040161031690611144565b60405180910390fd5b604051806080016040528085815260200184815260200183815260200182815250600260008681526020019081526020016000206000820151816000015560208201518160010190816103729190611370565b506040820151816002015560608201518160030190816103929190611370565b50905050600360008154809291906103a990611471565b9190505550837fd0d4cd8737018e52a6388a5921967e80bec857befd9ca6c10fa377129e0cba4b8484846040516103e2939291906114b9565b60405180910390a250505050565b600260205280600052604060002060009150905080600001549080600101805461041990611193565b80601f016020809104026020016040519081016040528092919081815260200182805461044590611193565b80156104925780601f1061046757610100808354040283529160200191610492565b820191906000526020600020905b81548152906001019060200180831161047557829003601f168201915b5050505050908060020154908060030180546104ad90611193565b80601f01602080910402602001604051908101604052809291908181526020018280546104d990611193565b80156105265780601f106104fb57610100808354040283529160200191610526565b820191906000526020600020905b81548152906001019060200180831161050957829003601f168201915b5050505050905084565b60008054906101000a900473ffffffffffffffffffffffffffffffffffffffff1681565b600160009054906101000a900473ffffffffffffffffffffffffffffffffffffffff1673ffffffffffffffffffffffffffffffffffffffff163373ffffffffffffffffffffffffffffffffffffffff16146105e4576040517f08c379a00000000000000000000000000000000000000000000000000000000081526004016105db906110b2565b60405180910390fd5b600060026000838152602001908152602001600020600001540361063d576040517f08c379a000000000000000000000000000000000000000000000000000000000815260040161063490611570565b60405180910390fd5b600260008281526020019081526020016000206000808201600090556001820160006106699190610b60565b60028201600090556003820160006106819190610b60565b50506003600081548092919061069690611590565b9190505550807fc5ad12f4910935b5f48affb3de5b21a9f5b2c2a8825c8e996f9571563c80e5a560405160405180910390a250565b60035481565b600160009054906101000a900473ffffffffffffffffffffffffffffffffffffffff1673ffffffffffffffffffffffffffffffffffffffff163373ffffffffffffffffffffffffffffffffffffffff1614610761576040517f08c379a0000000000000000000000000000000000000000000000000000000008152600401610758906110b2565b60405180910390fd5b60006002600086815260200190815260200160002060000154036107ba576040517f08c379a00000000000000000000000000000000000000000000000000000000081526004016107b190611570565b60405180910390fd5b6040518060800160405280858152602001848152602001838152602001828152506002600086815260200190815260200160002060008201518160000155602082015181600101908161080d9190611370565b5060408201518160020155606082015181600301908161082d9190611370565b50905050837f31885bd69be5fd94381a4d4dc2b2f4868dd0e8d7f8fa4c667a0a4675f3abeeec848484604051610865939291906114b9565b60405180910390a250505050565b600060606000606060006002600088815260200190815260200160002060000154036108d4576040517f08c379a00000000000000000000000000000000000000000000000000000000081526004016108cb90611570565b60405180910390fd5b600160009054906101000a900473ffffffffffffffffffffffffffffffffffffffff1673ffffffffffffffffffffffffffffffffffffffff168573ffffffffffffffffffffffffffffffffffffffff16148061097b575060008054906101000a900473ffffffffffffffffffffffffffffffffffffffff1673ffffffffffffffffffffffffffffffffffffffff168573ffffffffffffffffffffffffffffffffffffffff16145b6109ba576040517f08c379a00000000000000000000000000000000000000000000000000000000081526004016109b19061162b565b60405180910390fd5b600060026000888152602001908152602001600020604051806080016040529081600082015481526020016001820180546109f490611193565b80601f0160208091040260200160405190810160405280929190818152602001828054610a2090611193565b8015610a6d5780601f10610a4257610100808354040283529160200191610a6d565b820191906000526020600020905b815481529060010190602001808311610a5057829003601f168201915b5050505050815260200160028201548152602001600382018054610a9090611193565b80601f0160208091040260200160405190810160405280929190818152602001828054610abc90611193565b8015610b095780601f10610ade57610100808354040283529160200191610b09565b820191906000526020600020905b815481529060010190602001808311610aec57829003601f168201915b5050505050815250509050806000015181602001518260400151836060015194509450945094505092959194509250565b600160009054906101000a900473ffffffffffffffffffffffffffffffffffffffff1681565b508054610b6c90611193565b6000825580601f10610b7e5750610b9d565b601f016020900490600052602060002090810190610b9c9190610ba0565b5b50565b5b80821115610bb9576000816000905550600101610ba1565b5090565b6000604051905090565b600080fd5b600080fd5b600073ffffffffffffffffffffffffffffffffffffffff82169050919050565b6000610bfc82610bd1565b9050919050565b610c0c81610bf1565b8114610c1757600080fd5b50565b600081359050610c2981610c03565b92915050565b600060208284031215610c4557610c44610bc7565b5b6000610c5384828501610c1a565b91505092915050565b60008115159050919050565b610c7181610c5c565b82525050565b6000602082019050610c8c6000830184610c68565b92915050565b6000819050919050565b610ca581610c92565b8114610cb057600080fd5b50565b600081359050610cc281610c9c565b92915050565b600080fd5b600080fd5b6000601f19601f8301169050919050565b7f4e487b7100000000000000000000000000000000000000000000000000000000600052604160045260246000fd5b610d1b82610cd2565b810181811067ffffffffffffffff82111715610d3a57610d39610ce3565b5b80604052505050565b6000610d4d610bbd565b9050610d598282610d12565b919050565b600067ffffffffffffffff821115610d7957610d78610ce3565b5b610d8282610cd2565b9050602081019050919050565b82818337600083830152505050565b6000610db1610dac84610d5e565b610d43565b905082815260208101848484011115610dcd57610dcc610ccd565b5b610dd8848285610d8f565b509392505050565b600082601f830112610df557610df4610cc8565b5b8135610e05848260208601610d9e565b91505092915050565b60008060008060808587031215610e2857610e27610bc7565b5b6000610e3687828801610cb3565b945050602085013567ffffffffffffffff811115610e5757610e56610bcc565b5b610e6387828801610de0565b9350506040610e7487828801610cb3565b925050606085013567ffffffffffffffff811115610e9557610e94610bcc565b5b610ea187828801610de0565b91505092959194509250565b600060208284031215610ec357610ec2610bc7565b5b6000610ed184828501610cb3565b91505092915050565b610ee381610c92565b82525050565b600081519050919050565b600082825260208201905092915050565b60005b83811015610f23578082015181840152602081019050610f08565b60008484015250505050565b6000610f3a82610ee9565b610f448185610ef4565b9350610f54818560208601610f05565b610f5d81610cd2565b840191505092915050565b6000608082019050610f7d6000830187610eda565b8181036020830152610f8f8186610f2f565b9050610f9e6040830185610eda565b8181036060830152610fb08184610f2f565b905095945050505050565b610fc481610bf1565b82525050565b6000602082019050610fdf6000830184610fbb565b92915050565b6000602082019050610ffa6000830184610eda565b92915050565b6000806040838503121561101757611016610bc7565b5b600061102585828601610cb3565b925050602061103685828601610c1a565b9150509250929050565b7f48616e79612061646d696e2079616e67206461706174206d656c616b756b616e60008201527f2074696e64616b616e20696e6900000000000000000000000000000000000000602082015250565b600061109c602d83610ef4565b91506110a782611040565b604082019050919050565b600060208201905081810360008301526110cb8161108f565b9050919050565b7f42756b752064656e67616e204953424e2079616e672073616d6120737564616860008201527f2061646100000000000000000000000000000000000000000000000000000000602082015250565b600061112e602483610ef4565b9150611139826110d2565b604082019050919050565b6000602082019050818103600083015261115d81611121565b9050919050565b7f4e487b7100000000000000000000000000000000000000000000000000000000600052602260045260246000fd5b600060028204905060018216806111ab57607f821691505b6020821081036111be576111bd611164565b5b50919050565b60008190508160005260206000209050919050565b60006020601f8301049050919050565b600082821b905092915050565b6000600883026112267fffffffffffffffffffffffffffffffffffffffffffffffffffffffffffffffff826111e9565b61123086836111e9565b95508019841693508086168417925050509392505050565b6000819050919050565b600061126d61126861126384610c92565b611248565b610c92565b9050919050565b6000819050919050565b61128783611252565b61129b61129382611274565b8484546111f6565b825550505050565b600090565b6112b06112a3565b6112bb81848461127e565b505050565b5b818110156112df576112d46000826112a8565b6001810190506112c1565b5050565b601f821115611324576112f5816111c4565b6112fe846111d9565b8101602085101561130d578190505b611321611319856111d9565b8301826112c0565b50505b505050565b600082821c905092915050565b600061134760001984600802611329565b1980831691505092915050565b60006113608383611336565b9150826002028217905092915050565b61137982610ee9565b67ffffffffffffffff81111561139257611391610ce3565b5b61139c8254611193565b6113a78282856112e3565b600060209050601f8311600181146113da57600084156113c8578287015190505b6113d28582611354565b86555061143a565b601f1984166113e8866111c4565b60005b82811015611410578489015182556001820191506020850194506020810190506113eb565b8683101561142d5784890151611429601f891682611336565b8355505b6001600288020188555050505b505050505050565b7f4e487b7100000000000000000000000000000000000000000000000000000000600052601160045260246000fd5b600061147c82610c92565b91507fffffffffffffffffffffffffffffffffffffffffffffffffffffffffffffffff82036114ae576114ad611442565b5b600182019050919050565b600060608201905081810360008301526114d38186610f2f565b90506114e26020830185610eda565b81810360408301526114f48184610f2f565b9050949350505050565b7f42756b752064656e67616e204953424e2079616e6720646974656e74756b616e60008201527f20746964616b2061646100000000000000000000000000000000000000000000602082015250565b600061155a602a83610ef4565b9150611565826114fe565b604082019050919050565b600060208201905081810360008301526115898161154d565b9050919050565b600061159b82610c92565b9150600082036115ae576115ad611442565b5b600182039050919050565b7f48616e79612061646d696e2064616e2070656d696c696b2079616e672064617060008201527f6174206d656e67616b7365732066756e67736920696e69000000000000000000602082015250565b6000611615603783610ef4565b9150611620826115b9565b604082019050919050565b6000602082019050818103600083015261164481611608565b905091905056fea264697066735822122024544bb713d713d770f2e75c7220ddf34976e55c5f4ef6d79834e9dbbeb5828664736f6c63430008120033",
					"opcodes": "PUSH1 0x80 PUSH1 0x40 MSTORE CALLVALUE DUP1 ISZERO PUSH2 0x10 JUMPI PUSH1 0x0 DUP1 REVERT JUMPDEST POP CALLER PUSH1 0x0 DUP1 PUSH2 0x100 EXP DUP2 SLOAD DUP2 PUSH20 0xFFFFFFFFFFFFFFFFFFFFFFFFFFFFFFFFFFFFFFFF MUL NOT AND SWAP1 DUP4 PUSH20 0xFFFFFFFFFFFFFFFFFFFFFFFFFFFFFFFFFFFFFFFF AND MUL OR SWAP1 SSTORE POP CALLER PUSH1 0x1 PUSH1 0x0 PUSH2 0x100 EXP DUP2 SLOAD DUP2 PUSH20 0xFFFFFFFFFFFFFFFFFFFFFFFFFFFFFFFFFFFFFFFF MUL NOT AND SWAP1 DUP4 PUSH20 0xFFFFFFFFFFFFFFFFFFFFFFFFFFFFFFFFFFFFFFFF AND MUL OR SWAP1 SSTORE POP PUSH2 0x1681 DUP1 PUSH2 0xA1 PUSH1 0x0 CODECOPY PUSH1 0x0 RETURN INVALID PUSH1 0x80 PUSH1 0x40 MSTORE CALLVALUE DUP1 ISZERO PUSH2 0x10 JUMPI PUSH1 0x0 DUP1 REVERT JUMPDEST POP PUSH1 0x4 CALLDATASIZE LT PUSH2 0x93 JUMPI PUSH1 0x0 CALLDATALOAD PUSH1 0xE0 SHR DUP1 PUSH4 0x79302E75 GT PUSH2 0x66 JUMPI DUP1 PUSH4 0x79302E75 EQ PUSH2 0x135 JUMPI DUP1 PUSH4 0x7D1A1111 EQ PUSH2 0x151 JUMPI DUP1 PUSH4 0xC6F25071 EQ PUSH2 0x16F JUMPI DUP1 PUSH4 0xE4854E65 EQ PUSH2 0x18B JUMPI DUP1 PUSH4 0xF851A440 EQ PUSH2 0x1BE JUMPI PUSH2 0x93 JUMP JUMPDEST DUP1 PUSH4 0x24D7806C EQ PUSH2 0x98 JUMPI DUP1 PUSH4 0x4B9D4169 EQ PUSH2 0xC8 JUMPI DUP1 PUSH4 0x4C30B541 EQ PUSH2 0xE4 JUMPI DUP1 PUSH4 0x6EBCD2C2 EQ PUSH2 0x117 JUMPI JUMPDEST PUSH1 0x0 DUP1 REVERT JUMPDEST PUSH2 0xB2 PUSH1 0x4 DUP1 CALLDATASIZE SUB DUP2 ADD SWAP1 PUSH2 0xAD SWAP2 SWAP1 PUSH2 0xC2F JUMP JUMPDEST PUSH2 0x1DC JUMP JUMPDEST PUSH1 0x40 MLOAD PUSH2 0xBF SWAP2 SWAP1 PUSH2 0xC77 JUMP JUMPDEST PUSH1 0x40 MLOAD DUP1 SWAP2 SUB SWAP1 RETURN JUMPDEST PUSH2 0xE2 PUSH1 0x4 DUP1 CALLDATASIZE SUB DUP2 ADD SWAP1 PUSH2 0xDD SWAP2 SWAP1 PUSH2 0xE0E JUMP JUMPDEST PUSH2 0x236 JUMP JUMPDEST STOP JUMPDEST PUSH2 0xFE PUSH1 0x4 DUP1 CALLDATASIZE SUB DUP2 ADD SWAP1 PUSH2 0xF9 SWAP2 SWAP1 PUSH2 0xEAD JUMP JUMPDEST PUSH2 0x3F0 JUMP JUMPDEST PUSH1 0x40 MLOAD PUSH2 0x10E SWAP5 SWAP4 SWAP3 SWAP2 SWAP1 PUSH2 0xF68 JUMP JUMPDEST PUSH1 0x40 MLOAD DUP1 SWAP2 SUB SWAP1 RETURN JUMPDEST PUSH2 0x11F PUSH2 0x530 JUMP JUMPDEST PUSH1 0x40 MLOAD PUSH2 0x12C SWAP2 SWAP1 PUSH2 0xFCA JUMP JUMPDEST PUSH1 0x40 MLOAD DUP1 SWAP2 SUB SWAP1 RETURN JUMPDEST PUSH2 0x14F PUSH1 0x4 DUP1 CALLDATASIZE SUB DUP2 ADD SWAP1 PUSH2 0x14A SWAP2 SWAP1 PUSH2 0xEAD JUMP JUMPDEST PUSH2 0x554 JUMP JUMPDEST STOP JUMPDEST PUSH2 0x159 PUSH2 0x6CB JUMP JUMPDEST PUSH1 0x40 MLOAD PUSH2 0x166 SWAP2 SWAP1 PUSH2 0xFE5 JUMP JUMPDEST PUSH1 0x40 MLOAD DUP1 SWAP2 SUB SWAP1 RETURN JUMPDEST PUSH2 0x189 PUSH1 0x4 DUP1 CALLDATASIZE SUB DUP2 ADD SWAP1 PUSH2 0x184 SWAP2 SWAP1 PUSH2 0xE0E JUMP JUMPDEST PUSH2 0x6D1 JUMP JUMPDEST STOP JUMPDEST PUSH2 0x1A5 PUSH1 0x4 DUP1 CALLDATASIZE SUB DUP2 ADD SWAP1 PUSH2 0x1A0 SWAP2 SWAP1 PUSH2 0x1000 JUMP JUMPDEST PUSH2 0x873 JUMP JUMPDEST PUSH1 0x40 MLOAD PUSH2 0x1B5 SWAP5 SWAP4 SWAP3 SWAP2 SWAP1 PUSH2 0xF68 JUMP JUMPDEST PUSH1 0x40 MLOAD DUP1 SWAP2 SUB SWAP1 RETURN JUMPDEST PUSH2 0x1C6 PUSH2 0xB3A JUMP JUMPDEST PUSH1 0x40 MLOAD PUSH2 0x1D3 SWAP2 SWAP1 PUSH2 0xFCA JUMP JUMPDEST PUSH1 0x40 MLOAD DUP1 SWAP2 SUB SWAP1 RETURN JUMPDEST PUSH1 0x0 PUSH1 0x1 PUSH1 0x0 SWAP1 SLOAD SWAP1 PUSH2 0x100 EXP SWAP1 DIV PUSH20 0xFFFFFFFFFFFFFFFFFFFFFFFFFFFFFFFFFFFFFFFF AND PUSH20 0xFFFFFFFFFFFFFFFFFFFFFFFFFFFFFFFFFFFFFFFF AND DUP3 PUSH20 0xFFFFFFFFFFFFFFFFFFFFFFFFFFFFFFFFFFFFFFFF AND EQ SWAP1 POP SWAP2 SWAP1 POP JUMP JUMPDEST PUSH1 0x1 PUSH1 0x0 SWAP1 SLOAD SWAP1 PUSH2 0x100 EXP SWAP1 DIV PUSH20 0xFFFFFFFFFFFFFFFFFFFFFFFFFFFFFFFFFFFFFFFF AND PUSH20 0xFFFFFFFFFFFFFFFFFFFFFFFFFFFFFFFFFFFFFFFF AND CALLER PUSH20 0xFFFFFFFFFFFFFFFFFFFFFFFFFFFFFFFFFFFFFFFF AND EQ PUSH2 0x2C6 JUMPI PUSH1 0x40 MLOAD PUSH32 0x8C379A000000000000000000000000000000000000000000000000000000000 DUP2 MSTORE PUSH1 0x4 ADD PUSH2 0x2BD SWAP1 PUSH2 0x10B2 JUMP JUMPDEST PUSH1 0x40 MLOAD DUP1 SWAP2 SUB SWAP1 REVERT JUMPDEST PUSH1 0x0 PUSH1 0x2 PUSH1 0x0 DUP7 DUP2 MSTORE PUSH1 0x20 ADD SWAP1 DUP2 MSTORE PUSH1 0x20 ADD PUSH1 0x0 KECCAK256 PUSH1 0x0 ADD SLOAD EQ PUSH2 0x31F JUMPI PUSH1 0x40 MLOAD PUSH32 0x8C379A000000000000000000000000000000000000000000000000000000000 DUP2 MSTORE PUSH1 0x4 ADD PUSH2 0x316 SWAP1 PUSH2 0x1144 JUMP JUMPDEST PUSH1 0x40 MLOAD DUP1 SWAP2 SUB SWAP1 REVERT JUMPDEST PUSH1 0x40 MLOAD DUP1 PUSH1 0x80 ADD PUSH1 0x40 MSTORE DUP1 DUP6 DUP2 MSTORE PUSH1 0x20 ADD DUP5 DUP2 MSTORE PUSH1 0x20 ADD DUP4 DUP2 MSTORE PUSH1 0x20 ADD DUP3 DUP2 MSTORE POP PUSH1 0x2 PUSH1 0x0 DUP7 DUP2 MSTORE PUSH1 0x20 ADD SWAP1 DUP2 MSTORE PUSH1 0x20 ADD PUSH1 0x0 KECCAK256 PUSH1 0x0 DUP3 ADD MLOAD DUP2 PUSH1 0x0 ADD SSTORE PUSH1 0x20 DUP3 ADD MLOAD DUP2 PUSH1 0x1 ADD SWAP1 DUP2 PUSH2 0x372 SWAP2 SWAP1 PUSH2 0x1370 JUMP JUMPDEST POP PUSH1 0x40 DUP3 ADD MLOAD DUP2 PUSH1 0x2 ADD SSTORE PUSH1 0x60 DUP3 ADD MLOAD DUP2 PUSH1 0x3 ADD SWAP1 DUP2 PUSH2 0x392 SWAP2 SWAP1 PUSH2 0x1370 JUMP JUMPDEST POP SWAP1 POP POP PUSH1 0x3 PUSH1 0x0 DUP2 SLOAD DUP1 SWAP3 SWAP2 SWAP1 PUSH2 0x3A9 SWAP1 PUSH2 0x1471 JUMP JUMPDEST SWAP2 SWAP1 POP SSTORE POP DUP4 PUSH32 0xD0D4CD8737018E52A6388A5921967E80BEC857BEFD9CA6C10FA377129E0CBA4B DUP5 DUP5 DUP5 PUSH1 0x40 MLOAD PUSH2 0x3E2 SWAP4 SWAP3 SWAP2 SWAP1 PUSH2 0x14B9 JUMP JUMPDEST PUSH1 0x40 MLOAD DUP1 SWAP2 SUB SWAP1 LOG2 POP POP POP POP JUMP JUMPDEST PUSH1 0x2 PUSH1 0x20 MSTORE DUP1 PUSH1 0x0 MSTORE PUSH1 0x40 PUSH1 0x0 KECCAK256 PUSH1 0x0 SWAP2 POP SWAP1 POP DUP1 PUSH1 0x0 ADD SLOAD SWAP1 DUP1 PUSH1 0x1 ADD DUP1 SLOAD PUSH2 0x419 SWAP1 PUSH2 0x1193 JUMP JUMPDEST DUP1 PUSH1 0x1F ADD PUSH1 0x20 DUP1 SWAP2 DIV MUL PUSH1 0x20 ADD PUSH1 0x40 MLOAD SWAP1 DUP2 ADD PUSH1 0x40 MSTORE DUP1 SWAP3 SWAP2 SWAP1 DUP2 DUP2 MSTORE PUSH1 0x20 ADD DUP3 DUP1 SLOAD PUSH2 0x445 SWAP1 PUSH2 0x1193 JUMP JUMPDEST DUP1 ISZERO PUSH2 0x492 JUMPI DUP1 PUSH1 0x1F LT PUSH2 0x467 JUMPI PUSH2 0x100 DUP1 DUP4 SLOAD DIV MUL DUP4 MSTORE SWAP2 PUSH1 0x20 ADD SWAP2 PUSH2 0x492 JUMP JUMPDEST DUP3 ADD SWAP2 SWAP1 PUSH1 0x0 MSTORE PUSH1 0x20 PUSH1 0x0 KECCAK256 SWAP1 JUMPDEST DUP2 SLOAD DUP2 MSTORE SWAP1 PUSH1 0x1 ADD SWAP1 PUSH1 0x20 ADD DUP1 DUP4 GT PUSH2 0x475 JUMPI DUP3 SWAP1 SUB PUSH1 0x1F AND DUP3 ADD SWAP2 JUMPDEST POP POP POP POP POP SWAP1 DUP1 PUSH1 0x2 ADD SLOAD SWAP1 DUP1 PUSH1 0x3 ADD DUP1 SLOAD PUSH2 0x4AD SWAP1 PUSH2 0x1193 JUMP JUMPDEST DUP1 PUSH1 0x1F ADD PUSH1 0x20 DUP1 SWAP2 DIV MUL PUSH1 0x20 ADD PUSH1 0x40 MLOAD SWAP1 DUP2 ADD PUSH1 0x40 MSTORE DUP1 SWAP3 SWAP2 SWAP1 DUP2 DUP2 MSTORE PUSH1 0x20 ADD DUP3 DUP1 SLOAD PUSH2 0x4D9 SWAP1 PUSH2 0x1193 JUMP JUMPDEST DUP1 ISZERO PUSH2 0x526 JUMPI DUP1 PUSH1 0x1F LT PUSH2 0x4FB JUMPI PUSH2 0x100 DUP1 DUP4 SLOAD DIV MUL DUP4 MSTORE SWAP2 PUSH1 0x20 ADD SWAP2 PUSH2 0x526 JUMP JUMPDEST DUP3 ADD SWAP2 SWAP1 PUSH1 0x0 MSTORE PUSH1 0x20 PUSH1 0x0 KECCAK256 SWAP1 JUMPDEST DUP2 SLOAD DUP2 MSTORE SWAP1 PUSH1 0x1 ADD SWAP1 PUSH1 0x20 ADD DUP1 DUP4 GT PUSH2 0x509 JUMPI DUP3 SWAP1 SUB PUSH1 0x1F AND DUP3 ADD SWAP2 JUMPDEST POP POP POP POP POP SWAP1 POP DUP5 JUMP JUMPDEST PUSH1 0x0 DUP1 SLOAD SWAP1 PUSH2 0x100 EXP SWAP1 DIV PUSH20 0xFFFFFFFFFFFFFFFFFFFFFFFFFFFFFFFFFFFFFFFF AND DUP2 JUMP JUMPDEST PUSH1 0x1 PUSH1 0x0 SWAP1 SLOAD SWAP1 PUSH2 0x100 EXP SWAP1 DIV PUSH20 0xFFFFFFFFFFFFFFFFFFFFFFFFFFFFFFFFFFFFFFFF AND PUSH20 0xFFFFFFFFFFFFFFFFFFFFFFFFFFFFFFFFFFFFFFFF AND CALLER PUSH20 0xFFFFFFFFFFFFFFFFFFFFFFFFFFFFFFFFFFFFFFFF AND EQ PUSH2 0x5E4 JUMPI PUSH1 0x40 MLOAD PUSH32 0x8C379A000000000000000000000000000000000000000000000000000000000 DUP2 MSTORE PUSH1 0x4 ADD PUSH2 0x5DB SWAP1 PUSH2 0x10B2 JUMP JUMPDEST PUSH1 0x40 MLOAD DUP1 SWAP2 SUB SWAP1 REVERT JUMPDEST PUSH1 0x0 PUSH1 0x2 PUSH1 0x0 DUP4 DUP2 MSTORE PUSH1 0x20 ADD SWAP1 DUP2 MSTORE PUSH1 0x20 ADD PUSH1 0x0 KECCAK256 PUSH1 0x0 ADD SLOAD SUB PUSH2 0x63D JUMPI PUSH1 0x40 MLOAD PUSH32 0x8C379A000000000000000000000000000000000000000000000000000000000 DUP2 MSTORE PUSH1 0x4 ADD PUSH2 0x634 SWAP1 PUSH2 0x1570 JUMP JUMPDEST PUSH1 0x40 MLOAD DUP1 SWAP2 SUB SWAP1 REVERT JUMPDEST PUSH1 0x2 PUSH1 0x0 DUP3 DUP2 MSTORE PUSH1 0x20 ADD SWAP1 DUP2 MSTORE PUSH1 0x20 ADD PUSH1 0x0 KECCAK256 PUSH1 0x0 DUP1 DUP3 ADD PUSH1 0x0 SWAP1 SSTORE PUSH1 0x1 DUP3 ADD PUSH1 0x0 PUSH2 0x669 SWAP2 SWAP1 PUSH2 0xB60 JUMP JUMPDEST PUSH1 0x2 DUP3 ADD PUSH1 0x0 SWAP1 SSTORE PUSH1 0x3 DUP3 ADD PUSH1 0x0 PUSH2 0x681 SWAP2 SWAP1 PUSH2 0xB60 JUMP JUMPDEST POP POP PUSH1 0x3 PUSH1 0x0 DUP2 SLOAD DUP1 SWAP3 SWAP2 SWAP1 PUSH2 0x696 SWAP1 PUSH2 0x1590 JUMP JUMPDEST SWAP2 SWAP1 POP SSTORE POP DUP1 PUSH32 0xC5AD12F4910935B5F48AFFB3DE5B21A9F5B2C2A8825C8E996F9571563C80E5A5 PUSH1 0x40 MLOAD PUSH1 0x40 MLOAD DUP1 SWAP2 SUB SWAP1 LOG2 POP JUMP JUMPDEST PUSH1 0x3 SLOAD DUP2 JUMP JUMPDEST PUSH1 0x1 PUSH1 0x0 SWAP1 SLOAD SWAP1 PUSH2 0x100 EXP SWAP1 DIV PUSH20 0xFFFFFFFFFFFFFFFFFFFFFFFFFFFFFFFFFFFFFFFF AND PUSH20 0xFFFFFFFFFFFFFFFFFFFFFFFFFFFFFFFFFFFFFFFF AND CALLER PUSH20 0xFFFFFFFFFFFFFFFFFFFFFFFFFFFFFFFFFFFFFFFF AND EQ PUSH2 0x761 JUMPI PUSH1 0x40 MLOAD PUSH32 0x8C379A000000000000000000000000000000000000000000000000000000000 DUP2 MSTORE PUSH1 0x4 ADD PUSH2 0x758 SWAP1 PUSH2 0x10B2 JUMP JUMPDEST PUSH1 0x40 MLOAD DUP1 SWAP2 SUB SWAP1 REVERT JUMPDEST PUSH1 0x0 PUSH1 0x2 PUSH1 0x0 DUP7 DUP2 MSTORE PUSH1 0x20 ADD SWAP1 DUP2 MSTORE PUSH1 0x20 ADD PUSH1 0x0 KECCAK256 PUSH1 0x0 ADD SLOAD SUB PUSH2 0x7BA JUMPI PUSH1 0x40 MLOAD PUSH32 0x8C379A000000000000000000000000000000000000000000000000000000000 DUP2 MSTORE PUSH1 0x4 ADD PUSH2 0x7B1 SWAP1 PUSH2 0x1570 JUMP JUMPDEST PUSH1 0x40 MLOAD DUP1 SWAP2 SUB SWAP1 REVERT JUMPDEST PUSH1 0x40 MLOAD DUP1 PUSH1 0x80 ADD PUSH1 0x40 MSTORE DUP1 DUP6 DUP2 MSTORE PUSH1 0x20 ADD DUP5 DUP2 MSTORE PUSH1 0x20 ADD DUP4 DUP2 MSTORE PUSH1 0x20 ADD DUP3 DUP2 MSTORE POP PUSH1 0x2 PUSH1 0x0 DUP7 DUP2 MSTORE PUSH1 0x20 ADD SWAP1 DUP2 MSTORE PUSH1 0x20 ADD PUSH1 0x0 KECCAK256 PUSH1 0x0 DUP3 ADD MLOAD DUP2 PUSH1 0x0 ADD SSTORE PUSH1 0x20 DUP3 ADD MLOAD DUP2 PUSH1 0x1 ADD SWAP1 DUP2 PUSH2 0x80D SWAP2 SWAP1 PUSH2 0x1370 JUMP JUMPDEST POP PUSH1 0x40 DUP3 ADD MLOAD DUP2 PUSH1 0x2 ADD SSTORE PUSH1 0x60 DUP3 ADD MLOAD DUP2 PUSH1 0x3 ADD SWAP1 DUP2 PUSH2 0x82D SWAP2 SWAP1 PUSH2 0x1370 JUMP JUMPDEST POP SWAP1 POP POP DUP4 PUSH32 0x31885BD69BE5FD94381A4D4DC2B2F4868DD0E8D7F8FA4C667A0A4675F3ABEEEC DUP5 DUP5 DUP5 PUSH1 0x40 MLOAD PUSH2 0x865 SWAP4 SWAP3 SWAP2 SWAP1 PUSH2 0x14B9 JUMP JUMPDEST PUSH1 0x40 MLOAD DUP1 SWAP2 SUB SWAP1 LOG2 POP POP POP POP JUMP JUMPDEST PUSH1 0x0 PUSH1 0x60 PUSH1 0x0 PUSH1 0x60 PUSH1 0x0 PUSH1 0x2 PUSH1 0x0 DUP9 DUP2 MSTORE PUSH1 0x20 ADD SWAP1 DUP2 MSTORE PUSH1 0x20 ADD PUSH1 0x0 KECCAK256 PUSH1 0x0 ADD SLOAD SUB PUSH2 0x8D4 JUMPI PUSH1 0x40 MLOAD PUSH32 0x8C379A000000000000000000000000000000000000000000000000000000000 DUP2 MSTORE PUSH1 0x4 ADD PUSH2 0x8CB SWAP1 PUSH2 0x1570 JUMP JUMPDEST PUSH1 0x40 MLOAD DUP1 SWAP2 SUB SWAP1 REVERT JUMPDEST PUSH1 0x1 PUSH1 0x0 SWAP1 SLOAD SWAP1 PUSH2 0x100 EXP SWAP1 DIV PUSH20 0xFFFFFFFFFFFFFFFFFFFFFFFFFFFFFFFFFFFFFFFF AND PUSH20 0xFFFFFFFFFFFFFFFFFFFFFFFFFFFFFFFFFFFFFFFF AND DUP6 PUSH20 0xFFFFFFFFFFFFFFFFFFFFFFFFFFFFFFFFFFFFFFFF AND EQ DUP1 PUSH2 0x97B JUMPI POP PUSH1 0x0 DUP1 SLOAD SWAP1 PUSH2 0x100 EXP SWAP1 DIV PUSH20 0xFFFFFFFFFFFFFFFFFFFFFFFFFFFFFFFFFFFFFFFF AND PUSH20 0xFFFFFFFFFFFFFFFFFFFFFFFFFFFFFFFFFFFFFFFF AND DUP6 PUSH20 0xFFFFFFFFFFFFFFFFFFFFFFFFFFFFFFFFFFFFFFFF AND EQ JUMPDEST PUSH2 0x9BA JUMPI PUSH1 0x40 MLOAD PUSH32 0x8C379A000000000000000000000000000000000000000000000000000000000 DUP2 MSTORE PUSH1 0x4 ADD PUSH2 0x9B1 SWAP1 PUSH2 0x162B JUMP JUMPDEST PUSH1 0x40 MLOAD DUP1 SWAP2 SUB SWAP1 REVERT JUMPDEST PUSH1 0x0 PUSH1 0x2 PUSH1 0x0 DUP9 DUP2 MSTORE PUSH1 0x20 ADD SWAP1 DUP2 MSTORE PUSH1 0x20 ADD PUSH1 0x0 KECCAK256 PUSH1 0x40 MLOAD DUP1 PUSH1 0x80 ADD PUSH1 0x40 MSTORE SWAP1 DUP2 PUSH1 0x0 DUP3 ADD SLOAD DUP2 MSTORE PUSH1 0x20 ADD PUSH1 0x1 DUP3 ADD DUP1 SLOAD PUSH2 0x9F4 SWAP1 PUSH2 0x1193 JUMP JUMPDEST DUP1 PUSH1 0x1F ADD PUSH1 0x20 DUP1 SWAP2 DIV MUL PUSH1 0x20 ADD PUSH1 0x40 MLOAD SWAP1 DUP2 ADD PUSH1 0x40 MSTORE DUP1 SWAP3 SWAP2 SWAP1 DUP2 DUP2 MSTORE PUSH1 0x20 ADD DUP3 DUP1 SLOAD PUSH2 0xA20 SWAP1 PUSH2 0x1193 JUMP JUMPDEST DUP1 ISZERO PUSH2 0xA6D JUMPI DUP1 PUSH1 0x1F LT PUSH2 0xA42 JUMPI PUSH2 0x100 DUP1 DUP4 SLOAD DIV MUL DUP4 MSTORE SWAP2 PUSH1 0x20 ADD SWAP2 PUSH2 0xA6D JUMP JUMPDEST DUP3 ADD SWAP2 SWAP1 PUSH1 0x0 MSTORE PUSH1 0x20 PUSH1 0x0 KECCAK256 SWAP1 JUMPDEST DUP2 SLOAD DUP2 MSTORE SWAP1 PUSH1 0x1 ADD SWAP1 PUSH1 0x20 ADD DUP1 DUP4 GT PUSH2 0xA50 JUMPI DUP3 SWAP1 SUB PUSH1 0x1F AND DUP3 ADD SWAP2 JUMPDEST POP POP POP POP POP DUP2 MSTORE PUSH1 0x20 ADD PUSH1 0x2 DUP3 ADD SLOAD DUP2 MSTORE PUSH1 0x20 ADD PUSH1 0x3 DUP3 ADD DUP1 SLOAD PUSH2 0xA90 SWAP1 PUSH2 0x1193 JUMP JUMPDEST DUP1 PUSH1 0x1F ADD PUSH1 0x20 DUP1 SWAP2 DIV MUL PUSH1 0x20 ADD PUSH1 0x40 MLOAD SWAP1 DUP2 ADD PUSH1 0x40 MSTORE DUP1 SWAP3 SWAP2 SWAP1 DUP2 DUP2 MSTORE PUSH1 0x20 ADD DUP3 DUP1 SLOAD PUSH2 0xABC SWAP1 PUSH2 0x1193 JUMP JUMPDEST DUP1 ISZERO PUSH2 0xB09 JUMPI DUP1 PUSH1 0x1F LT PUSH2 0xADE JUMPI PUSH2 0x100 DUP1 DUP4 SLOAD DIV MUL DUP4 MSTORE SWAP2 PUSH1 0x20 ADD SWAP2 PUSH2 0xB09 JUMP JUMPDEST DUP3 ADD SWAP2 SWAP1 PUSH1 0x0 MSTORE PUSH1 0x20 PUSH1 0x0 KECCAK256 SWAP1 JUMPDEST DUP2 SLOAD DUP2 MSTORE SWAP1 PUSH1 0x1 ADD SWAP1 PUSH1 0x20 ADD DUP1 DUP4 GT PUSH2 0xAEC JUMPI DUP3 SWAP1 SUB PUSH1 0x1F AND DUP3 ADD SWAP2 JUMPDEST POP POP POP POP POP DUP2 MSTORE POP POP SWAP1 POP DUP1 PUSH1 0x0 ADD MLOAD DUP2 PUSH1 0x20 ADD MLOAD DUP3 PUSH1 0x40 ADD MLOAD DUP4 PUSH1 0x60 ADD MLOAD SWAP5 POP SWAP5 POP SWAP5 POP SWAP5 POP POP SWAP3 SWAP6 SWAP2 SWAP5 POP SWAP3 POP JUMP JUMPDEST PUSH1 0x1 PUSH1 0x0 SWAP1 SLOAD SWAP1 PUSH2 0x100 EXP SWAP1 DIV PUSH20 0xFFFFFFFFFFFFFFFFFFFFFFFFFFFFFFFFFFFFFFFF AND DUP2 JUMP JUMPDEST POP DUP1 SLOAD PUSH2 0xB6C SWAP1 PUSH2 0x1193 JUMP JUMPDEST PUSH1 0x0 DUP3 SSTORE DUP1 PUSH1 0x1F LT PUSH2 0xB7E JUMPI POP PUSH2 0xB9D JUMP JUMPDEST PUSH1 0x1F ADD PUSH1 0x20 SWAP1 DIV SWAP1 PUSH1 0x0 MSTORE PUSH1 0x20 PUSH1 0x0 KECCAK256 SWAP1 DUP2 ADD SWAP1 PUSH2 0xB9C SWAP2 SWAP1 PUSH2 0xBA0 JUMP JUMPDEST JUMPDEST POP JUMP JUMPDEST JUMPDEST DUP1 DUP3 GT ISZERO PUSH2 0xBB9 JUMPI PUSH1 0x0 DUP2 PUSH1 0x0 SWAP1 SSTORE POP PUSH1 0x1 ADD PUSH2 0xBA1 JUMP JUMPDEST POP SWAP1 JUMP JUMPDEST PUSH1 0x0 PUSH1 0x40 MLOAD SWAP1 POP SWAP1 JUMP JUMPDEST PUSH1 0x0 DUP1 REVERT JUMPDEST PUSH1 0x0 DUP1 REVERT JUMPDEST PUSH1 0x0 PUSH20 0xFFFFFFFFFFFFFFFFFFFFFFFFFFFFFFFFFFFFFFFF DUP3 AND SWAP1 POP SWAP2 SWAP1 POP JUMP JUMPDEST PUSH1 0x0 PUSH2 0xBFC DUP3 PUSH2 0xBD1 JUMP JUMPDEST SWAP1 POP SWAP2 SWAP1 POP JUMP JUMPDEST PUSH2 0xC0C DUP2 PUSH2 0xBF1 JUMP JUMPDEST DUP2 EQ PUSH2 0xC17 JUMPI PUSH1 0x0 DUP1 REVERT JUMPDEST POP JUMP JUMPDEST PUSH1 0x0 DUP2 CALLDATALOAD SWAP1 POP PUSH2 0xC29 DUP2 PUSH2 0xC03 JUMP JUMPDEST SWAP3 SWAP2 POP POP JUMP JUMPDEST PUSH1 0x0 PUSH1 0x20 DUP3 DUP5 SUB SLT ISZERO PUSH2 0xC45 JUMPI PUSH2 0xC44 PUSH2 0xBC7 JUMP JUMPDEST JUMPDEST PUSH1 0x0 PUSH2 0xC53 DUP5 DUP3 DUP6 ADD PUSH2 0xC1A JUMP JUMPDEST SWAP2 POP POP SWAP3 SWAP2 POP POP JUMP JUMPDEST PUSH1 0x0 DUP2 ISZERO ISZERO SWAP1 POP SWAP2 SWAP1 POP JUMP JUMPDEST PUSH2 0xC71 DUP2 PUSH2 0xC5C JUMP JUMPDEST DUP3 MSTORE POP POP JUMP JUMPDEST PUSH1 0x0 PUSH1 0x20 DUP3 ADD SWAP1 POP PUSH2 0xC8C PUSH1 0x0 DUP4 ADD DUP5 PUSH2 0xC68 JUMP JUMPDEST SWAP3 SWAP2 POP POP JUMP JUMPDEST PUSH1 0x0 DUP2 SWAP1 POP SWAP2 SWAP1 POP JUMP JUMPDEST PUSH2 0xCA5 DUP2 PUSH2 0xC92 JUMP JUMPDEST DUP2 EQ PUSH2 0xCB0 JUMPI PUSH1 0x0 DUP1 REVERT JUMPDEST POP JUMP JUMPDEST PUSH1 0x0 DUP2 CALLDATALOAD SWAP1 POP PUSH2 0xCC2 DUP2 PUSH2 0xC9C JUMP JUMPDEST SWAP3 SWAP2 POP POP JUMP JUMPDEST PUSH1 0x0 DUP1 REVERT JUMPDEST PUSH1 0x0 DUP1 REVERT JUMPDEST PUSH1 0x0 PUSH1 0x1F NOT PUSH1 0x1F DUP4 ADD AND SWAP1 POP SWAP2 SWAP1 POP JUMP JUMPDEST PUSH32 0x4E487B7100000000000000000000000000000000000000000000000000000000 PUSH1 0x0 MSTORE PUSH1 0x41 PUSH1 0x4 MSTORE PUSH1 0x24 PUSH1 0x0 REVERT JUMPDEST PUSH2 0xD1B DUP3 PUSH2 0xCD2 JUMP JUMPDEST DUP2 ADD DUP2 DUP2 LT PUSH8 0xFFFFFFFFFFFFFFFF DUP3 GT OR ISZERO PUSH2 0xD3A JUMPI PUSH2 0xD39 PUSH2 0xCE3 JUMP JUMPDEST JUMPDEST DUP1 PUSH1 0x40 MSTORE POP POP POP JUMP JUMPDEST PUSH1 0x0 PUSH2 0xD4D PUSH2 0xBBD JUMP JUMPDEST SWAP1 POP PUSH2 0xD59 DUP3 DUP3 PUSH2 0xD12 JUMP JUMPDEST SWAP2 SWAP1 POP JUMP JUMPDEST PUSH1 0x0 PUSH8 0xFFFFFFFFFFFFFFFF DUP3 GT ISZERO PUSH2 0xD79 JUMPI PUSH2 0xD78 PUSH2 0xCE3 JUMP JUMPDEST JUMPDEST PUSH2 0xD82 DUP3 PUSH2 0xCD2 JUMP JUMPDEST SWAP1 POP PUSH1 0x20 DUP2 ADD SWAP1 POP SWAP2 SWAP1 POP JUMP JUMPDEST DUP3 DUP2 DUP4 CALLDATACOPY PUSH1 0x0 DUP4 DUP4 ADD MSTORE POP POP POP JUMP JUMPDEST PUSH1 0x0 PUSH2 0xDB1 PUSH2 0xDAC DUP5 PUSH2 0xD5E JUMP JUMPDEST PUSH2 0xD43 JUMP JUMPDEST SWAP1 POP DUP3 DUP2 MSTORE PUSH1 0x20 DUP2 ADD DUP5 DUP5 DUP5 ADD GT ISZERO PUSH2 0xDCD JUMPI PUSH2 0xDCC PUSH2 0xCCD JUMP JUMPDEST JUMPDEST PUSH2 0xDD8 DUP5 DUP3 DUP6 PUSH2 0xD8F JUMP JUMPDEST POP SWAP4 SWAP3 POP POP POP JUMP JUMPDEST PUSH1 0x0 DUP3 PUSH1 0x1F DUP4 ADD SLT PUSH2 0xDF5 JUMPI PUSH2 0xDF4 PUSH2 0xCC8 JUMP JUMPDEST JUMPDEST DUP2 CALLDATALOAD PUSH2 0xE05 DUP5 DUP3 PUSH1 0x20 DUP7 ADD PUSH2 0xD9E JUMP JUMPDEST SWAP2 POP POP SWAP3 SWAP2 POP POP JUMP JUMPDEST PUSH1 0x0 DUP1 PUSH1 0x0 DUP1 PUSH1 0x80 DUP6 DUP8 SUB SLT ISZERO PUSH2 0xE28 JUMPI PUSH2 0xE27 PUSH2 0xBC7 JUMP JUMPDEST JUMPDEST PUSH1 0x0 PUSH2 0xE36 DUP8 DUP3 DUP9 ADD PUSH2 0xCB3 JUMP JUMPDEST SWAP5 POP POP PUSH1 0x20 DUP6 ADD CALLDATALOAD PUSH8 0xFFFFFFFFFFFFFFFF DUP2 GT ISZERO PUSH2 0xE57 JUMPI PUSH2 0xE56 PUSH2 0xBCC JUMP JUMPDEST JUMPDEST PUSH2 0xE63 DUP8 DUP3 DUP9 ADD PUSH2 0xDE0 JUMP JUMPDEST SWAP4 POP POP PUSH1 0x40 PUSH2 0xE74 DUP8 DUP3 DUP9 ADD PUSH2 0xCB3 JUMP JUMPDEST SWAP3 POP POP PUSH1 0x60 DUP6 ADD CALLDATALOAD PUSH8 0xFFFFFFFFFFFFFFFF DUP2 GT ISZERO PUSH2 0xE95 JUMPI PUSH2 0xE94 PUSH2 0xBCC JUMP JUMPDEST JUMPDEST PUSH2 0xEA1 DUP8 DUP3 DUP9 ADD PUSH2 0xDE0 JUMP JUMPDEST SWAP2 POP POP SWAP3 SWAP6 SWAP2 SWAP5 POP SWAP3 POP JUMP JUMPDEST PUSH1 0x0 PUSH1 0x20 DUP3 DUP5 SUB SLT ISZERO PUSH2 0xEC3 JUMPI PUSH2 0xEC2 PUSH2 0xBC7 JUMP JUMPDEST JUMPDEST PUSH1 0x0 PUSH2 0xED1 DUP5 DUP3 DUP6 ADD PUSH2 0xCB3 JUMP JUMPDEST SWAP2 POP POP SWAP3 SWAP2 POP POP JUMP JUMPDEST PUSH2 0xEE3 DUP2 PUSH2 0xC92 JUMP JUMPDEST DUP3 MSTORE POP POP JUMP JUMPDEST PUSH1 0x0 DUP2 MLOAD SWAP1 POP SWAP2 SWAP1 POP JUMP JUMPDEST PUSH1 0x0 DUP3 DUP3 MSTORE PUSH1 0x20 DUP3 ADD SWAP1 POP SWAP3 SWAP2 POP POP JUMP JUMPDEST PUSH1 0x0 JUMPDEST DUP4 DUP2 LT ISZERO PUSH2 0xF23 JUMPI DUP1 DUP3 ADD MLOAD DUP2 DUP5 ADD MSTORE PUSH1 0x20 DUP2 ADD SWAP1 POP PUSH2 0xF08 JUMP JUMPDEST PUSH1 0x0 DUP5 DUP5 ADD MSTORE POP POP POP POP JUMP JUMPDEST PUSH1 0x0 PUSH2 0xF3A DUP3 PUSH2 0xEE9 JUMP JUMPDEST PUSH2 0xF44 DUP2 DUP6 PUSH2 0xEF4 JUMP JUMPDEST SWAP4 POP PUSH2 0xF54 DUP2 DUP6 PUSH1 0x20 DUP7 ADD PUSH2 0xF05 JUMP JUMPDEST PUSH2 0xF5D DUP2 PUSH2 0xCD2 JUMP JUMPDEST DUP5 ADD SWAP2 POP POP SWAP3 SWAP2 POP POP JUMP JUMPDEST PUSH1 0x0 PUSH1 0x80 DUP3 ADD SWAP1 POP PUSH2 0xF7D PUSH1 0x0 DUP4 ADD DUP8 PUSH2 0xEDA JUMP JUMPDEST DUP2 DUP2 SUB PUSH1 0x20 DUP4 ADD MSTORE PUSH2 0xF8F DUP2 DUP7 PUSH2 0xF2F JUMP JUMPDEST SWAP1 POP PUSH2 0xF9E PUSH1 0x40 DUP4 ADD DUP6 PUSH2 0xEDA JUMP JUMPDEST DUP2 DUP2 SUB PUSH1 0x60 DUP4 ADD MSTORE PUSH2 0xFB0 DUP2 DUP5 PUSH2 0xF2F JUMP JUMPDEST SWAP1 POP SWAP6 SWAP5 POP POP POP POP POP JUMP JUMPDEST PUSH2 0xFC4 DUP2 PUSH2 0xBF1 JUMP JUMPDEST DUP3 MSTORE POP POP JUMP JUMPDEST PUSH1 0x0 PUSH1 0x20 DUP3 ADD SWAP1 POP PUSH2 0xFDF PUSH1 0x0 DUP4 ADD DUP5 PUSH2 0xFBB JUMP JUMPDEST SWAP3 SWAP2 POP POP JUMP JUMPDEST PUSH1 0x0 PUSH1 0x20 DUP3 ADD SWAP1 POP PUSH2 0xFFA PUSH1 0x0 DUP4 ADD DUP5 PUSH2 0xEDA JUMP JUMPDEST SWAP3 SWAP2 POP POP JUMP JUMPDEST PUSH1 0x0 DUP1 PUSH1 0x40 DUP4 DUP6 SUB SLT ISZERO PUSH2 0x1017 JUMPI PUSH2 0x1016 PUSH2 0xBC7 JUMP JUMPDEST JUMPDEST PUSH1 0x0 PUSH2 0x1025 DUP6 DUP3 DUP7 ADD PUSH2 0xCB3 JUMP JUMPDEST SWAP3 POP POP PUSH1 0x20 PUSH2 0x1036 DUP6 DUP3 DUP7 ADD PUSH2 0xC1A JUMP JUMPDEST SWAP2 POP POP SWAP3 POP SWAP3 SWAP1 POP JUMP JUMPDEST PUSH32 0x48616E79612061646D696E2079616E67206461706174206D656C616B756B616E PUSH1 0x0 DUP3 ADD MSTORE PUSH32 0x2074696E64616B616E20696E6900000000000000000000000000000000000000 PUSH1 0x20 DUP3 ADD MSTORE POP JUMP JUMPDEST PUSH1 0x0 PUSH2 0x109C PUSH1 0x2D DUP4 PUSH2 0xEF4 JUMP JUMPDEST SWAP2 POP PUSH2 0x10A7 DUP3 PUSH2 0x1040 JUMP JUMPDEST PUSH1 0x40 DUP3 ADD SWAP1 POP SWAP2 SWAP1 POP JUMP JUMPDEST PUSH1 0x0 PUSH1 0x20 DUP3 ADD SWAP1 POP DUP2 DUP2 SUB PUSH1 0x0 DUP4 ADD MSTORE PUSH2 0x10CB DUP2 PUSH2 0x108F JUMP JUMPDEST SWAP1 POP SWAP2 SWAP1 POP JUMP JUMPDEST PUSH32 0x42756B752064656E67616E204953424E2079616E672073616D61207375646168 PUSH1 0x0 DUP3 ADD MSTORE PUSH32 0x2061646100000000000000000000000000000000000000000000000000000000 PUSH1 0x20 DUP3 ADD MSTORE POP JUMP JUMPDEST PUSH1 0x0 PUSH2 0x112E PUSH1 0x24 DUP4 PUSH2 0xEF4 JUMP JUMPDEST SWAP2 POP PUSH2 0x1139 DUP3 PUSH2 0x10D2 JUMP JUMPDEST PUSH1 0x40 DUP3 ADD SWAP1 POP SWAP2 SWAP1 POP JUMP JUMPDEST PUSH1 0x0 PUSH1 0x20 DUP3 ADD SWAP1 POP DUP2 DUP2 SUB PUSH1 0x0 DUP4 ADD MSTORE PUSH2 0x115D DUP2 PUSH2 0x1121 JUMP JUMPDEST SWAP1 POP SWAP2 SWAP1 POP JUMP JUMPDEST PUSH32 0x4E487B7100000000000000000000000000000000000000000000000000000000 PUSH1 0x0 MSTORE PUSH1 0x22 PUSH1 0x4 MSTORE PUSH1 0x24 PUSH1 0x0 REVERT JUMPDEST PUSH1 0x0 PUSH1 0x2 DUP3 DIV SWAP1 POP PUSH1 0x1 DUP3 AND DUP1 PUSH2 0x11AB JUMPI PUSH1 0x7F DUP3 AND SWAP2 POP JUMPDEST PUSH1 0x20 DUP3 LT DUP2 SUB PUSH2 0x11BE JUMPI PUSH2 0x11BD PUSH2 0x1164 JUMP JUMPDEST JUMPDEST POP SWAP2 SWAP1 POP JUMP JUMPDEST PUSH1 0x0 DUP2 SWAP1 POP DUP2 PUSH1 0x0 MSTORE PUSH1 0x20 PUSH1 0x0 KECCAK256 SWAP1 POP SWAP2 SWAP1 POP JUMP JUMPDEST PUSH1 0x0 PUSH1 0x20 PUSH1 0x1F DUP4 ADD DIV SWAP1 POP SWAP2 SWAP1 POP JUMP JUMPDEST PUSH1 0x0 DUP3 DUP3 SHL SWAP1 POP SWAP3 SWAP2 POP POP JUMP JUMPDEST PUSH1 0x0 PUSH1 0x8 DUP4 MUL PUSH2 0x1226 PUSH32 0xFFFFFFFFFFFFFFFFFFFFFFFFFFFFFFFFFFFFFFFFFFFFFFFFFFFFFFFFFFFFFFFF DUP3 PUSH2 0x11E9 JUMP JUMPDEST PUSH2 0x1230 DUP7 DUP4 PUSH2 0x11E9 JUMP JUMPDEST SWAP6 POP DUP1 NOT DUP5 AND SWAP4 POP DUP1 DUP7 AND DUP5 OR SWAP3 POP POP POP SWAP4 SWAP3 POP POP POP JUMP JUMPDEST PUSH1 0x0 DUP2 SWAP1 POP SWAP2 SWAP1 POP JUMP JUMPDEST PUSH1 0x0 PUSH2 0x126D PUSH2 0x1268 PUSH2 0x1263 DUP5 PUSH2 0xC92 JUMP JUMPDEST PUSH2 0x1248 JUMP JUMPDEST PUSH2 0xC92 JUMP JUMPDEST SWAP1 POP SWAP2 SWAP1 POP JUMP JUMPDEST PUSH1 0x0 DUP2 SWAP1 POP SWAP2 SWAP1 POP JUMP JUMPDEST PUSH2 0x1287 DUP4 PUSH2 0x1252 JUMP JUMPDEST PUSH2 0x129B PUSH2 0x1293 DUP3 PUSH2 0x1274 JUMP JUMPDEST DUP5 DUP5 SLOAD PUSH2 0x11F6 JUMP JUMPDEST DUP3 SSTORE POP POP POP POP JUMP JUMPDEST PUSH1 0x0 SWAP1 JUMP JUMPDEST PUSH2 0x12B0 PUSH2 0x12A3 JUMP JUMPDEST PUSH2 0x12BB DUP2 DUP5 DUP5 PUSH2 0x127E JUMP JUMPDEST POP POP POP JUMP JUMPDEST JUMPDEST DUP2 DUP2 LT ISZERO PUSH2 0x12DF JUMPI PUSH2 0x12D4 PUSH1 0x0 DUP3 PUSH2 0x12A8 JUMP JUMPDEST PUSH1 0x1 DUP2 ADD SWAP1 POP PUSH2 0x12C1 JUMP JUMPDEST POP POP JUMP JUMPDEST PUSH1 0x1F DUP3 GT ISZERO PUSH2 0x1324 JUMPI PUSH2 0x12F5 DUP2 PUSH2 0x11C4 JUMP JUMPDEST PUSH2 0x12FE DUP5 PUSH2 0x11D9 JUMP JUMPDEST DUP2 ADD PUSH1 0x20 DUP6 LT ISZERO PUSH2 0x130D JUMPI DUP2 SWAP1 POP JUMPDEST PUSH2 0x1321 PUSH2 0x1319 DUP6 PUSH2 0x11D9 JUMP JUMPDEST DUP4 ADD DUP3 PUSH2 0x12C0 JUMP JUMPDEST POP POP JUMPDEST POP POP POP JUMP JUMPDEST PUSH1 0x0 DUP3 DUP3 SHR SWAP1 POP SWAP3 SWAP2 POP POP JUMP JUMPDEST PUSH1 0x0 PUSH2 0x1347 PUSH1 0x0 NOT DUP5 PUSH1 0x8 MUL PUSH2 0x1329 JUMP JUMPDEST NOT DUP1 DUP4 AND SWAP2 POP POP SWAP3 SWAP2 POP POP JUMP JUMPDEST PUSH1 0x0 PUSH2 0x1360 DUP4 DUP4 PUSH2 0x1336 JUMP JUMPDEST SWAP2 POP DUP3 PUSH1 0x2 MUL DUP3 OR SWAP1 POP SWAP3 SWAP2 POP POP JUMP JUMPDEST PUSH2 0x1379 DUP3 PUSH2 0xEE9 JUMP JUMPDEST PUSH8 0xFFFFFFFFFFFFFFFF DUP2 GT ISZERO PUSH2 0x1392 JUMPI PUSH2 0x1391 PUSH2 0xCE3 JUMP JUMPDEST JUMPDEST PUSH2 0x139C DUP3 SLOAD PUSH2 0x1193 JUMP JUMPDEST PUSH2 0x13A7 DUP3 DUP3 DUP6 PUSH2 0x12E3 JUMP JUMPDEST PUSH1 0x0 PUSH1 0x20 SWAP1 POP PUSH1 0x1F DUP4 GT PUSH1 0x1 DUP2 EQ PUSH2 0x13DA JUMPI PUSH1 0x0 DUP5 ISZERO PUSH2 0x13C8 JUMPI DUP3 DUP8 ADD MLOAD SWAP1 POP JUMPDEST PUSH2 0x13D2 DUP6 DUP3 PUSH2 0x1354 JUMP JUMPDEST DUP7 SSTORE POP PUSH2 0x143A JUMP JUMPDEST PUSH1 0x1F NOT DUP5 AND PUSH2 0x13E8 DUP7 PUSH2 0x11C4 JUMP JUMPDEST PUSH1 0x0 JUMPDEST DUP3 DUP2 LT ISZERO PUSH2 0x1410 JUMPI DUP5 DUP10 ADD MLOAD DUP3 SSTORE PUSH1 0x1 DUP3 ADD SWAP2 POP PUSH1 0x20 DUP6 ADD SWAP5 POP PUSH1 0x20 DUP2 ADD SWAP1 POP PUSH2 0x13EB JUMP JUMPDEST DUP7 DUP4 LT ISZERO PUSH2 0x142D JUMPI DUP5 DUP10 ADD MLOAD PUSH2 0x1429 PUSH1 0x1F DUP10 AND DUP3 PUSH2 0x1336 JUMP JUMPDEST DUP4 SSTORE POP JUMPDEST PUSH1 0x1 PUSH1 0x2 DUP9 MUL ADD DUP9 SSTORE POP POP POP JUMPDEST POP POP POP POP POP POP JUMP JUMPDEST PUSH32 0x4E487B7100000000000000000000000000000000000000000000000000000000 PUSH1 0x0 MSTORE PUSH1 0x11 PUSH1 0x4 MSTORE PUSH1 0x24 PUSH1 0x0 REVERT JUMPDEST PUSH1 0x0 PUSH2 0x147C DUP3 PUSH2 0xC92 JUMP JUMPDEST SWAP2 POP PUSH32 0xFFFFFFFFFFFFFFFFFFFFFFFFFFFFFFFFFFFFFFFFFFFFFFFFFFFFFFFFFFFFFFFF DUP3 SUB PUSH2 0x14AE JUMPI PUSH2 0x14AD PUSH2 0x1442 JUMP JUMPDEST JUMPDEST PUSH1 0x1 DUP3 ADD SWAP1 POP SWAP2 SWAP1 POP JUMP JUMPDEST PUSH1 0x0 PUSH1 0x60 DUP3 ADD SWAP1 POP DUP2 DUP2 SUB PUSH1 0x0 DUP4 ADD MSTORE PUSH2 0x14D3 DUP2 DUP7 PUSH2 0xF2F JUMP JUMPDEST SWAP1 POP PUSH2 0x14E2 PUSH1 0x20 DUP4 ADD DUP6 PUSH2 0xEDA JUMP JUMPDEST DUP2 DUP2 SUB PUSH1 0x40 DUP4 ADD MSTORE PUSH2 0x14F4 DUP2 DUP5 PUSH2 0xF2F JUMP JUMPDEST SWAP1 POP SWAP5 SWAP4 POP POP POP POP JUMP JUMPDEST PUSH32 0x42756B752064656E67616E204953424E2079616E6720646974656E74756B616E PUSH1 0x0 DUP3 ADD MSTORE PUSH32 0x20746964616B2061646100000000000000000000000000000000000000000000 PUSH1 0x20 DUP3 ADD MSTORE POP JUMP JUMPDEST PUSH1 0x0 PUSH2 0x155A PUSH1 0x2A DUP4 PUSH2 0xEF4 JUMP JUMPDEST SWAP2 POP PUSH2 0x1565 DUP3 PUSH2 0x14FE JUMP JUMPDEST PUSH1 0x40 DUP3 ADD SWAP1 POP SWAP2 SWAP1 POP JUMP JUMPDEST PUSH1 0x0 PUSH1 0x20 DUP3 ADD SWAP1 POP DUP2 DUP2 SUB PUSH1 0x0 DUP4 ADD MSTORE PUSH2 0x1589 DUP2 PUSH2 0x154D JUMP JUMPDEST SWAP1 POP SWAP2 SWAP1 POP JUMP JUMPDEST PUSH1 0x0 PUSH2 0x159B DUP3 PUSH2 0xC92 JUMP JUMPDEST SWAP2 POP PUSH1 0x0 DUP3 SUB PUSH2 0x15AE JUMPI PUSH2 0x15AD PUSH2 0x1442 JUMP JUMPDEST JUMPDEST PUSH1 0x1 DUP3 SUB SWAP1 POP SWAP2 SWAP1 POP JUMP JUMPDEST PUSH32 0x48616E79612061646D696E2064616E2070656D696C696B2079616E6720646170 PUSH1 0x0 DUP3 ADD MSTORE PUSH32 0x6174206D656E67616B7365732066756E67736920696E69000000000000000000 PUSH1 0x20 DUP3 ADD MSTORE POP JUMP JUMPDEST PUSH1 0x0 PUSH2 0x1615 PUSH1 0x37 DUP4 PUSH2 0xEF4 JUMP JUMPDEST SWAP2 POP PUSH2 0x1620 DUP3 PUSH2 0x15B9 JUMP JUMPDEST PUSH1 0x40 DUP3 ADD SWAP1 POP SWAP2 SWAP1 POP JUMP JUMPDEST PUSH1 0x0 PUSH1 0x20 DUP3 ADD SWAP1 POP DUP2 DUP2 SUB PUSH1 0x0 DUP4 ADD MSTORE PUSH2 0x1644 DUP2 PUSH2 0x1608 JUMP JUMPDEST SWAP1 POP SWAP2 SWAP1 POP JUMP INVALID LOG2 PUSH5 0x6970667358 0x22 SLT KECCAK256 0x24 SLOAD 0x4B 0xB7 SGT 0xD7 SGT 0xD7 PUSH17 0xF2E75C7220DDF34976E55C5F4EF6D79834 0xE9 0xDB 0xBE 0xB5 DUP3 DUP7 PUSH5 0x736F6C6343 STOP ADDMOD SLT STOP CALLER "
				},
				"gasEstimates": {
					"creation": {
						"codeDepositCost": "1152200",
						"executionCost": "49732",
						"totalCost": "1201932"
					},
					"external": {
						"DapatkanBuku(uint256,address)": "infinite",
						"HapusBuku(uint256)": "infinite",
						"PerbaruiBuku(uint256,string,uint256,string)": "infinite",
						"TambahBuku(uint256,string,uint256,string)": "infinite",
						"admin()": "2602",
						"buku(uint256)": "infinite",
						"isAdmin(address)": "2812",
						"jumlahBuku()": "2451",
						"pemilik()": "2578"
					}
				},
				"methodIdentifiers": {
					"DapatkanBuku(uint256,address)": "e4854e65",
					"HapusBuku(uint256)": "79302e75",
					"PerbaruiBuku(uint256,string,uint256,string)": "c6f25071",
					"TambahBuku(uint256,string,uint256,string)": "4b9d4169",
					"admin()": "f851a440",
					"buku(uint256)": "4c30b541",
					"isAdmin(address)": "24d7806c",
					"jumlahBuku()": "7d1a1111",
					"pemilik()": "6ebcd2c2"
				}
			},
			"storageLayout": {
				"storage": [
					{
						"astId": 3,
						"contract": "contracts/perpustakaan.sol:Perpustakaan",
						"label": "pemilik",
						"offset": 0,
						"slot": "0",
						"type": "t_address"
					},
					{
						"astId": 5,
						"contract": "contracts/perpustakaan.sol:Perpustakaan",
						"label": "admin",
						"offset": 0,
						"slot": "1",
						"type": "t_address"
					},
					{
						"astId": 19,
						"contract": "contracts/perpustakaan.sol:Perpustakaan",
						"label": "buku",
						"offset": 0,
						"slot": "2",
						"type": "t_mapping(t_uint256,t_struct(Buku)14_storage)"
					},
					{
						"astId": 21,
						"contract": "contracts/perpustakaan.sol:Perpustakaan",
						"label": "jumlahBuku",
						"offset": 0,
						"slot": "3",
						"type": "t_uint256"
					}
				],
				"types": {
					"t_address": {
						"encoding": "inplace",
						"label": "address",
						"numberOfBytes": "20"
					},
					"t_mapping(t_uint256,t_struct(Buku)14_storage)": {
						"encoding": "mapping",
						"key": "t_uint256",
						"label": "mapping(uint256 => struct Perpustakaan.Buku)",
						"numberOfBytes": "32",
						"value": "t_struct(Buku)14_storage"
					},
					"t_string_storage": {
						"encoding": "bytes",
						"label": "string",
						"numberOfBytes": "32"
					},
					"t_struct(Buku)14_storage": {
						"encoding": "inplace",
						"label": "struct Perpustakaan.Buku",
						"members": [
							{
								"astId": 7,
								"contract": "contracts/perpustakaan.sol:Perpustakaan",
								"label": "ISBN",
								"offset": 0,
								"slot": "0",
								"type": "t_uint256"
							},
							{
								"astId": 9,
								"contract": "contracts/perpustakaan.sol:Perpustakaan",
								"label": "judul",
								"offset": 0,
								"slot": "1",
								"type": "t_string_storage"
							},
							{
								"astId": 11,
								"contract": "contracts/perpustakaan.sol:Perpustakaan",
								"label": "tahun",
								"offset": 0,
								"slot": "2",
								"type": "t_uint256"
							},
							{
								"astId": 13,
								"contract": "contracts/perpustakaan.sol:Perpustakaan",
								"label": "penulis",
								"offset": 0,
								"slot": "3",
								"type": "t_string_storage"
							}
						],
						"numberOfBytes": "128"
					},
					"t_uint256": {
						"encoding": "inplace",
						"label": "uint256",
						"numberOfBytes": "32"
					}
				}
			},
			"userdoc": {
				"kind": "user",
				"methods": {},
				"version": 1
			}
		}
	}
}